:020000040800F2
:100000007048002035020008B13B00082135000887
:10001000AD3B000831060008354C00080000000028
:100020000000000000000000000000008141000806
:100030003B09000800000000053E00086943000875
:100040004F0200084F0200084F0200084F0200084C
:100050004F0200084F0200084F0200084F0200083C
:100060004F0200084F0200084F0200084F0200082C
:100070004F0200084F0200084F0200084F0200081C
:100080004F0200084F0200084F0200080000000065
:100090000000000000000000000000004F02000807
:1000A0004F0200084F0200084F0200084F020008EC
:1000B0003D4400084F0200084F0200084F020008AC
:1000C0004F0200084F0200084F0200085D3E000882
:1000D0004F0200084F0200084F0200080000000015
:1000E0004F0200084F0200084F0200080000000005
:1000F0000000000000000000000000004F020008A7
:10010000000000004F0200084F0200084F020008E4
:1001100000000000000000000000000000000000DF
:10012000350600084F0200084F0200085D0600086F
:100130006D06000800000000000000000000000044
:100140000000000000000000000000004F02000856
:100150004F0200084F0200084F020008254C00081B
:100160004F0200084F0200080000000000000000DD
:10017000000000000000000000000000000000007F
:10018000000000004F020008000000000000000016
:100190004F02000800F002F800F03CF80AA090E8D6
:1001A000000C82448344AAF10107DA4501D100F032
:1001B00031F8AFF2090EBAE80F0013F0010F18BFC3
:1001C000FB1A43F001031847E44D0000044E000001
:1001D000103A24BF78C878C1FAD8520724BF30C873
:1001E00030C144BF04680C60704700000023002445
:1001F00000250026103A28BF78C1FBD8520728BF37
:1002000030C148BF0B6070471FB504F0B9FE1FBD79
:1002100010B510BD00F0CFF81146FFF7F5FF04F060
:1002200027FD00F0EDF803B4FFF7F2FF03BC00F088
:10023000F5F800000948804709480047FEE7FEE757
:10024000FEE7FEE7FEE7FEE7FEE7FEE7FEE7FEE786
:1002500004480549054A064B704700002944000838
:1002600095010008700600207048002070080020EA
:100270007008002053EA020C00F069802DE9F04B71
:100280004FF00006002B1FBFB3FA83F503FA05F405
:1002900024FA05F65E4012BF1643B2FA82F502FA5E
:1002A00005F4C5F120051EBF22FA05FC44EA0C0442
:1002B000203556EA044C4FEA144418BF641C4FF032
:1002C00000084FF00009904271EB030C39D300296C
:1002D00019BFB1FA81F701FA07F6B0FA80F700FA10
:1002E00007F6C7F120071EBF20FA07FC46EA0C06F6
:1002F0002037B6FBF4FCA7EB0507103F07F01F0BF8
:10030000CBF120060CFA0BFB2CFA06F644BFB346E1
:100310000026202FA4BF5E464FF0000B5BEA060CC0
:1003200008BF4FF0010B19EB0B09ABFB027C48EB4C
:100330000608C01B06FB02CC0BFB03CC71EB0C01C7
:10034000C1E70B46024641464846BDE8F08B13B56F
:100350004FF000004FF00001AFF30080BDE81C40FB
:1003600070474FF0000200B5134694469646203978
:1003700022BFA0E80C50A0E80C50B1F12001BFF45E
:10038000F7AF090728BFA0E80C5048BF0CC05DF8C4
:1003900004EB890028BF40F8042B08BF704748BF12
:1003A00020F8022B11F0804F18BF00F8012B704786
:1003B000704770477047754600F02CF8AE46050050
:1003C0006946534620F00700854618B020B5FFF770
:1003D0003FFFBDE820404FF000064FF000074FF010
:1003E00000084FF0000B21F00701AC46ACE8C00953
:1003F000ACE8C009ACE8C009ACE8C0098D4670475C
:1004000010B50446AFF300802046BDE81040FFF76A
:100410000ABF0000004870470C0600200149182060
:10042000ABBEFEE726000200704770B50546AC6B18
:10043000206C00F0500050BB206C40F40070206431
:100440002068806800F04050E8B9207ED8B9206864
:10045000C06A00F4700020B12068806800F48060F9
:1004600088B92068406820F0200021684860206C2E
:1004700020F480702064206C00F4805018B9206C47
:1004800040F001002064204600F022FB0BE0206CCD
:1004900000F0100018B1204600F01CFB03E0A06B38
:1004A000C16C2846884770BD70B50546AC6B4020CE
:1004B0002064606C40F004006064204600F00AFB99
:1004C00070BD70B50446A56B284600F002FB70BDF8
:1004D00055494A6822F440324A604A6843681A43E0
:1004E0004A600268526822F4807203685A600268A7
:1004F0005368026943EA022203685A60026852683C
:1005000022F0407203685A600268526883681A4396
:1005100003685A600268926822F4006203689A6075
:1005200002689268C3681A4303689A603F4B826A04
:100530009A4218D00268926822F0706203689A604A
:1005400002689268836A1A4303689A600268926834
:1005500022F0405203689A6002689268C36A1A43A4
:1005600003689A600BE00268926822F07062036888
:100570009A600268926822F0405203689A600268AA
:10058000926822F0020203689A6002689368027E11
:1005900043EA420203689A602022125CA2B1026818
:1005A000526842F4006203685A600268526822F49A
:1005B000604203685A6002685368426A521E43EA06
:1005C000423203685A6005E00268526822F4006211
:1005D00003685A600268D26A22F470020368DA6221
:1005E0000268D36A828B521E43EA02520368DA62BF
:1005F0000268926822F4007203689A600268936845
:1006000090F8302043EA422203689A6002689268B8
:1006100022F4806203689A6002689368426943EA40
:10062000822203689A607047002301400100000F96
:1006300000BFFEE710B5054800F00CFC0823044A93
:100640000449054801F0FEFC10BD0000C003002075
:1006500080000020880000206803002010B50248B8
:1006600000F0F8FB10BD00002004002010B55C482D
:10067000846D90F85C1020208840A0605948008864
:1006800059490880594800885949088059480088C4
:1006900059490880594890ED000A594880ED000AF0
:1006A0005848008800EE100AB8EE400ADFED560AFE
:1006B00020EE200A4C48008800EE900AF8EE600A0E
:1006C0009FED521A00EE810AF6EE000A30EE200A83
:1006D000BCEEC00A10EE100A424908804948408822
:1006E00000EE100AB8EE400ADFED470A20EE200ABD
:1006F0003F48008800EE900AF8EE600A9FED431A2A
:1007000000EE810AF6EE000A30EE200ABCEEC00AC6
:1007100010EE100A354908803A48808800EE100A29
:10072000B8EE400ADFED3A0A20EE200A324800888F
:1007300000EE900AF8EE600A9FED361A00EE810A8C
:10074000F6EE000A30EE200ABCEEC00A10EE100AE7
:10075000284908802348008800EE100AB8EE400AB5
:10076000DFED2D0A20EE200A2C4880ED000A1F48FC
:10077000008800EE100AB8EE400ADFED270A20EEEE
:10078000200A274880ED000A0846008800EE100A7B
:10079000B8EE400ADFED230A20EE200A2248D0ED11
:1007A000000A20EE200A214880ED000A1C4890ED46
:1007B000000A1E48D0ED000A20EE200ADFED120AE2
:1007C00020EE200A0E48D0ED000A9FED101A00EE30
:1007D000810A0A4880ED000A03F0ECF910BD000020
:1007E00008030020A4000020AA000020A60000208A
:1007F000AC000020A8000020AE000020B0000020C7
:10080000B4000020DC000020CDCC4C3ECDCC4C3FD1
:10081000CDCCCC3D6666663F6C8F833CB800002033
:10082000BC00002076144E3BC4000020C000002015
:100830000146087810381823B0FBF3F20848805CB2
:10084000C865032A05D908686FF30900001D88658B
:1008500003E008686FF309008865886D7047000041
:100860008A4F0008014600208A6A8B69CBB932B1F1
:10087000012A0DD0022A03D0032A10D10EE000BFB6
:10088000CB6A03F08073B3F1807F00D1012007E0D1
:10089000CB6AB3F1C07F00D1012001E000E000BFCE
:1008A00034E08B69B3F5005F1AD132B1012A07D069
:1008B000022A03D0032A11D10AE000BF01200EE072
:1008C000CB6A03F08073B3F1807F00D1012006E092
:1008D000CB6AB3F1C07F00D1012000E000BF15E07A
:1008E00032B1012A05D0022A04D0032A0CD103E038
:1008F00000BF00BF012008E0CB6A03F08073B3F1B2
:10090000807F00D1012000E000BF00BF704730B5FC
:100910000468246824F4802405682C6004686360FB
:100920008468402C04D10468A2600468E16003E09C
:100930000468A1600468E26030BD704772B600BF11
:10094000FEE7000038B502460020009000BF92F894
:100950003C00012801D1022038BD012082F83C0072
:1009600000BF0868092816D91068C0680C780A3CCE
:1009700004EB44050724AC40A0431468E0600C7805
:100980000A3C04EB44048868A0401468E4682043EF
:100990001468E06013E0106800690C7804EB44050B
:1009A0000724AC40A043146820610C7804EB440495
:1009B0008868A0401468246920431468206148684E
:1009C000072817D21068406B0C79641E04EB84056D
:1009D0001F24AC40A04314686063088880B20C797F
:1009E000641E04EB8404A0401468646B2043146804
:1009F000606331E048680D2817D21068006B0C79ED
:100A0000E41F04EB84051F24AC40A043146820635A
:100A1000088880B20C79E41F04EB8404A0401468B9
:100A2000246B20431468206316E01068C06A0C79B8
:100A30000D3C04EB84051F24AC40A0431468E06225
:100A4000088880B20C790D3C04EB8404A040146843
:100A5000E46A20431468E062194B1A4C1068A04203
:100A600006D10868122803D1586840F48000586005
:100A7000144C1068A0421CD10868102802D00868E5
:100A8000112816D1586840F40000586008681028F2
:100A90000FD10D4800680D4CB0FBF4F000EB800066
:100AA0004000009002E00098401E0090009800284E
:100AB000F9D100BF002082F83C0000BF00BF4BE727
:100AC0000023014000200140D800002040420F00D8
:100AD000704770477047000070B5044600250CB998
:100AE000012070BD1549A06A884200D000BF206C6B
:100AF00030B9204600F024F80020606484F83C00FF
:100B0000206C00F0100088B9206C20F4885040F070
:100B1000020020642046FFF7DBFC00206064206CAC
:100B200020F0020040F00100206400E0012500BF39
:100B3000002084F83C0000BF2846D2E70100000FE7
:100B400010B586B00446142101A8FFF70AFC294914
:100B5000206888424CD100BF0020009026480068E1
:100B600040F48070244908600846006800F48070F2
:100B7000009000BF00BF00BF002000901E48143846
:100B8000006840F001001C491439086008460068FC
:100B900000F00100009000BF00BF0720019003207B
:100BA00002900020039001A9144800F047FB14486C
:100BB0001449086000204860002112488160C1602B
:100BC0004FF48061016149004161890081614911EF
:100BD000C1614FF4403101620021416200F05AFAD4
:100BE00008B1FFF7ABFE00BF0648A063846300BFF7
:100BF00006B010BD00200140443802400000024011
:100C00007064024008030020F8B504460D461646FD
:100C10000020009000BF94F83C00012801D1022080
:100C2000F8BD012084F83C0000BF2068806800F017
:100C30000100A0B92068806840F001002168886048
:100C4000484800684849B0FBF1F000EB40000090D4
:100C500002E00098401E009000980028F9D120681A
:100C6000806800F48070B0F5807F05D120688068CE
:100C700020F48070216888602068806800F001009E
:100C8000002865D0206C40F20161884340F48070F8
:100C900020642068406800F4806028B1206C20F453
:100CA000005040F480502064206C00F48050B0F577
:100CB000805F04D1606C20F00600606401E00020D9
:100CC000606400BF002084F83C0000BF274F284824
:100CD000A16BC8632748A16B08642748A16BC8644F
:100CE0006FF02200216808602068406840F0806052
:100CF000216848602068806840F4807021688860BE
:100D0000226802F14C0133462A46A06B00F038FA03
:100D1000786800F01F0058B92068806800F04050E3
:100D2000F0B92068806840F080402168886017E052
:100D300012492068884213D12068806800F0405032
:100D400070B92068806840F080402168886007E0C2
:100D5000206C40F010002064606C40F00100606482
:100D600000205DE7D800002040420F000023014032
:100D70002B040008C3040008A90400080020014057
:100D800070B50446A56D00F04DFB064694F835009D
:100D9000022808D08020606500BF002084F834005D
:100DA00000BF012070BD2068006820F01600216897
:100DB00008602068406920F0800021684861206C4C
:100DC00008B9A06C28B12068006820F008002168EC
:100DD00008602068006820F001002168086010E0C9
:100DE00000F020FB801B05280BD920206065032024
:100DF00084F8350000BF002084F8340000BF0320D1
:100E0000D0E72068006800F001000028E8D194F8DD
:100E10005C103F208840A860012084F8350000BFA6
:100E2000002084F8340000BF00BFBBE7014691F802
:100E30003500022803D08020486501207047052036
:100E400081F835000868006820F001000A68106029
:100E50000020F3E7F8B50446002000908C480068B5
:100E60004FF41651B0FBF1F7A56D2E6894F85C10A5
:100E700008208840304098B12068006800F00400E5
:100E800070B12068006820F004002168086094F8C0
:100E90005C1008208840A860606D40F0010060652B
:100EA00094F85C1001208840304068B120684069A7
:100EB00000F0800040B194F85C1001208840A860E8
:100EC000606D40F00200606594F85C10042088407A
:100ED000304068B12068006800F0020040B194F82A
:100EE0005C1004208840A860606D40F004006065DC
:100EF00094F85C1010208840304078B32068006877
:100F000000F0080050B394F85C1010208840A860EE
:100F10002068006800F4802080B12068006800F438
:100F2000002028B9206CC8B12046216C884715E004
:100F3000A06C98B12046A16C88470FE0206800683B
:100F400000F4807028B92068006820F0080021684B
:100F50000860206C10B12046216C884794F85C1022
:100F6000202088403040002865D02068006800F0CC
:100F7000100000285FD094F85C1020208840A86002
:100F800094F83500052828D12068006820F0160064
:100F9000216808602068406920F08000216848616D
:100FA000206C08B9A06C28B12068006820F0080007
:100FB0002168086094F85C103F208840A8600120F8
:100FC00084F8350000BF002084F8340000BF206D95
:100FD00010B12046216D8847F8BD2068006800F4F4
:100FE000802080B12068006800F4002028B9606C7F
:100FF00010B12046616C88471DE0E06BD8B12046F7
:10100000E16B884717E02068006800F4807068B9D9
:101010002068006820F0100021680860012084F832
:10102000350000BF002084F8340000BFE06B10B131
:101030002046E16B8847606D38B3606D00F00100B9
:10104000F0B1052084F835002068006820F0010028
:101050002168086000BF0098401C0090B84200D989
:1010600005E02068006800F001000028F3D100BF0F
:10107000012084F8350000BF002084F8340000BF50
:10108000E06C10B12046E16C884700BFA4E7000087
:10109000D80000202DE9F0410446002500F0C2F9F7
:1010A000074614B90120BDE8F081606A00B100BFB5
:1010B000022084F8350000BF002084F8340000BF0F
:1010C0002068006820F00100216808600AE000F054
:1010D000A9F9C01B052805D920206065032084F8E4
:1010E0003500E0E72068006800F001000028EED13C
:1010F0002068056821480540D4E901010843E168FA
:1011000008432169084361690843A1690843E1690B
:101110000843216A08430543606A042803D1D4E9DF
:101120000B0108430543206805602068456925F0E8
:101130000705606A0543606A04280DD1A06A05436B
:10114000E06A48B12046FFF78DFB28B1402060657A
:10115000012084F83500A6E7206845612046FFF7A6
:1011600067FB064694F85C103F208840B060002082
:101170006065012084F83500002094E73F8010F07E
:101180002DE9F04704460D4616461F464FF000086D
:10119000D4F8589000BF94F83400012802D10220FE
:1011A000BDE8F087012084F8340000BF94F83500D2
:1011B000012825D1022084F83500002060653B46D7
:1011C000324629462046FFF7A2FB94F85C103F20E8
:1011D0008840C9F808002068006840F016002168BF
:1011E0000860206C28B12068006840F00800216881
:1011F00008602068006840F001002168086006E08F
:1012000000BF002084F8340000BF4FF002084046C1
:10121000C6E7000070B5044600F004F9064625460E
:10122000681C10B104480078054400BF00F0FAF8CB
:10123000801BA842FAD370BDD4000020F8B5024646
:101240000B460025002400200021C7E0012606FAF5
:1012500001F51E6806EA0504AC4274D11E7906F059
:101260000306012E04D01E7906F00306022E13D1C8
:1012700090684F000326BE40B0434F00DE68BE407A
:1012800030439060506801268E40B0431E79C6F30B
:1012900000168E40304350601E7906F00306032E80
:1012A00009D0D0684F000326BE40B0434F009E686F
:1012B000BE403043D0601E7906F00306022E13D1E3
:1012C000CF0802F1200656F827004E07F70E0F262A
:1012D000BE40B0434F07FF0E1E69BE403043CF08EB
:1012E00002F1200646F8270010684F000326BE4092
:1012F000B0431E7906F003064F00BE403043106035
:101300005E6806F44036002E67D000BF00260096C7
:10131000344E366846F48046324F3E603E4636686C
:1013200006F48046009600BF00BF2F4E8F0856F887
:1013300027008E07370F0F26BE40B0432B4EB24218
:1013400002D1002615E048E0294EB24201D1012623
:101350000FE0284EB24201D102260AE0264EB242E8
:1013600001D1032605E0254EB24201D1042600E05A
:1013700007268F073F0FBE4030431B4E8F0846F8AD
:1013800027001F4E3068A0435E6806F4801606B141
:1013900020431B4E3060361D3068A0435E6806F463
:1013A000001606B12043164E361D3060144E361F0F
:1013B0003068A0435E6806F4003606B12043104E44
:1013C000361F3060361F3068A0435E6806F48036F2
:1013D00006B120430A4E083E3060491C1029FFF434
:1013E00035AFF8BD443802400838014000000240E3
:1013F0000004024000080240000C024000100240BD
:10140000083C014010B5426921EA020302EA0104E6
:1014100043EA0443836110BD0AB1816101E00B041A
:10142000836170470148006870470000CC000020CD
:1014300001464AF6AA200A681060002070470000A2
:101440000348006803490978084401490860704767
:10145000CC000020D400002010B50D48006840F4F6
:1014600000700B4908600846006840F4806008601E
:101470000846006840F480700860032000F0A2F87D
:101480000F2000F007F800F02BF8002010BD00003E
:10149000003C024070B504460E4800784FF47A7163
:1014A000B1FBF0F00C490968B1FBF0F5284600F0FB
:1014B00022FF08B1012070BD102C07D20022214666
:1014C000501E00F041F80548046001E00120F2E7F9
:1014D0000020F0E7D4000020D8000020D000002039
:1014E00008B500BF002000900E48006840F480401E
:1014F0000C4908600846006800F48040009000BF76
:1015000000BF00BF00200090081F006840F080501E
:10151000091F08600846006800F08050009000BF76
:1015200000BF08BD4438024001460846002809DBD8
:1015300000F01F0301229A4043099B0003F1E023BE
:10154000C3F8002100BF70472DE9F05F80460D46CB
:101550001646002703F070FB074639462A463346F5
:1015600001F00700C0F1070ABAF1040F02D94FF0E9
:10157000040A01E0C0F1070AD14600F1040ABAF1F9
:10158000070F02D24FF0000A01E0A0F1030AD4468F
:101590004FF0010A0AFA09FAAAF1010A0AEA020A54
:1015A0000AFA0CFA4FF0010B0BFA0CFBABF1010B32
:1015B0000BEA030B4AEA0B042146404603F044FBC6
:1015C000BDE8F09F00BF00F00702064B19684FF618
:1015D000FF031940044B0B4343EA0221014B1960FE
:1015E00000BF70470CED00E00000FA0570B504463E
:1015F0000D460CB9012070BD5848006800F0070086
:10160000A84209D255490D700846006800F007004D
:10161000A84201D00120EEE7207800F00200022865
:101620001DD1207800F00400042805D14C48006842
:1016300040F4E0504A490860207800F0080008288B
:1016400005D14748006840F4604045490860444877
:10165000006820F0F000A168084341490860207844
:1016600000F00100A8B36068012807D13C480838A1
:101670000068C0F34040B8B90120BCE760680228A8
:1016800002D06068032807D1354808380068C0F3E5
:10169000406048B90120AEE7314808380068C0F31F
:1016A000400008B90120A6E72D48006820F003009B
:1016B000616808432A490860FFF7B4FE064609E05E
:1016C000FFF7B0FE801B41F28831884202D9032027
:1016D00091E707E02248006800F00C006168B0EB79
:1016E000810FEDD11D48006800F00700A84209D91C
:1016F0001A490D700846006800F00700A84201D0A2
:10170000012078E7207800F00400042807D114486D
:10171000006820F4E050E16808431149086020782F
:1017200000F00800082808D10D48006820F4604047
:10173000216940EAC1000A49086000F03FF8084901
:101740000968C1F30311074A515CC84006490860A3
:1017500006480068FFF79EFE00204CE7003C024070
:1017600008380240924F0008D8000020D000002026
:101770000148006870470000D800002000B5FFF75E
:10178000F7FF04490968C1F38221034A515CC8404C
:1017900000BD000008380240A24F000800B5FFF766
:1017A000E7FF04490968C1F34231034A515CC8406C
:1017B00000BD000008380240A24F00082DE9F047A4
:1017C000002400250026A1462548006800F00C00F2
:1017D00020B1042805D008283AD105E0DFF884902C
:1017E00039E0DFF8849036E01D48001F006800F003
:1017F0003F041B48001F006800F4800078B11A48BD
:101800001749091F0968C1F38811A0FB017001463F
:10181000224600233846FEF72DFD05460EE011480E
:101820000F49091F0968C1F38811A0FB0170014627
:10183000224600233846FEF71DFD05460848001FD6
:101840000068C0F30140401C4600B5FBF6F902E019
:10185000DFF8109000BF00BF4846BDE8F0870000E9
:10186000083802400024F40000127A00F8B504465B
:101870000CB90120F8BD207800F00100002874D0D8
:10188000F948006800F00C0004280DD0F648006804
:1018900000F00C00082813D1F348001F006800F482
:1018A0008000B0F5800F0BD1EF4808380068C0F316
:1018B0004040002859D06068002856D10120D9E75F
:1018C00000BF6068B0F5803F08D1E748083800687D
:1018D00040F48030E449083908601EE06068B0F5E3
:1018E000A02F0DD1E0480838006840F48020DE4980
:1018F000083908600846006840F4803008600CE051
:10190000D9480838006820F48030D7490839086081
:101910000846006820F48020086000BF606890B12D
:10192000FFF780FD054606E0FFF77CFD401B6428BD
:1019300001D903209EE7CC4808380068C0F3404036
:101940000028F1D011E0FFF76DFD054606E0FFF736
:1019500069FD401B642801D903208BE7C248083881
:101960000068C0F340400028F1D1207800F0020068
:1019700002285FD1BC48006800F00C0058B1BA489A
:10198000006800F00C0008281CD1B748001F006850
:1019900000F48000B0B9B44808380068C0F34000D3
:1019A00020B1E068012801D0012063E7AE48083883
:1019B000006820F0F800216940EAC100AA4908390E
:1019C000086037E0E06800B30120A8490860FFF72D
:1019D00029FD054606E0FFF725FD401B022801D939
:1019E000032047E7A04808380068C0F340000028FB
:1019F000F1D09D480838006820F0F800216940EADD
:101A0000C10099490839086014E00020974908602E
:101A1000FFF708FD054606E0FFF704FD401B02281E
:101A200001D9032026E7904808380068C0F3400039
:101A30000028F1D1207800F0080008282CD1606936
:101A4000A8B101208A490860FFF7ECFC054606E0D2
:101A5000FFF7E8FC401B022801D903200AE782486F
:101A60006C300068C0F340000028F1D014E0002082
:101A70007F490860FFF7D6FC054606E0FFF7D2FC79
:101A8000401B022801D90320F4E677486C30006837
:101A9000C0F340000028F1D1207800F004000428B1
:101AA00070D1002770483830006800F0805090B93D
:101AB00000BF002000906C483830006840F0805033
:101AC0006949383108600846006800F0805000908D
:101AD00000BF00BF01276748006800F48070B0B9FC
:101AE0006448006840F4807062490860FFF79AFC1F
:101AF000054606E0FFF796FC401B022801D90320AB
:101B0000B8E65C48006800F480700028F2D000BF9E
:101B1000A068012808D154486830006840F00100EE
:101B20005149683108601DE0A06805280DD14E4874
:101B30006830006840F004004B496831086008468E
:101B4000006840F0010008600CE047486830006819
:101B500020F001004449683108600846006820F020
:101B60000400086000BFA068A8B1FFF75BFC054651
:101B700009E0FFF757FC401B41F28831884202D947
:101B8000032077E626E0384868300068C0F340005C
:101B90000028EED013E0FFF745FC054608E0FFF70C
:101BA00041FC401B41F28831884201D9032061E6A3
:101BB0002D4868300068C0F340000028EFD1012FA5
:101BC00007D129483830006820F080502649383144
:101BD000086000BFA069002845D02348006800F0D5
:101BE0000C0008285DD0A069022845D100201F49BB
:101BF0000866FFF717FC054606E0FFF713FC401BDD
:101C0000022801D9032035E6174808380068C0F3D8
:101C100040600028F1D1D4E907010843616A40EA35
:101C200081110122A06AC2EB500041EA00412C2040
:101C3000005D41EA00600C49091F086001200B4962
:101C40000866FFF7EFFB054606E0FFF7EBFB401BDE
:101C5000022801D903200DE6034808380068C0F3C4
:101C600040600028F1D049E00838024000004742B7
:101C7000800E474200700040002021490866FFF7AF
:101C8000D1FB054606E0FFF7CDFB401B022801D93A
:101C90000320EFE51B480068C0F340600028F2D144
:101CA0002CE0A069012800D1E4E51648001D066873
:101CB000A069012820D006F48001E06981421BD18F
:101CC00006F03F01206A814216D147F6C0703040CD
:101CD000616AB0EB811F0FD106F440310122A06A86
:101CE000C2EB5000B1EB004F06D106F070612C2022
:101CF000005DB1EB006F01D00120BBE50020B9E52C
:101D0000000047420038024070470000F8B5044622
:101D10002068466820688568C5F3801048B905F0DA
:101D2000010030B1C6F3801018B12046216C8847FD
:101D3000F8BDC5F3400030B1C6F3C01018B120465D
:101D4000616C8847F4E7C5F3401030B9C5F38010E3
:101D500018B9C5F3002000287CD0C6F34010002835
:101D60007DD0C5F38010F0B194F8510003280ED057
:101D7000606D40F00400606500BF002000902068A6
:101D8000C068009020688068009000BF0BE000BF32
:101D9000002000902068C068009020688068009053
:101DA00000BF00BFC4E7C5F3401088B1606D40F0CC
:101DB0000100606500BF00200090206880680090EE
:101DC0002068006820F040002168086000BF00BF64
:101DD000C5F3002058B1606D40F00800606500BF99
:101DE0000020009020688068009000BF00BF606DF8
:101DF00078B32068406820F0E00021684860012046
:101E000084F8510006F00200022802D006F001001A
:101E100008B32068406820F0030021684860E06C47
:101E200050B11048E16C0865E06CFEF7FFFF18B197
:101E3000606D40F040006065A06C50B10948A16C35
:101E40000865A06CFEF7F2FF18B1606D40F040002D
:101E5000606503E003E02046FFF756FF68E700BF38
:101E600066E700006D3E000810B504460CB901207D
:101E700010BD606A38B96068B0F5827F00D105E0B6
:101E80000021E16102E00021216161610021A16284
:101E900094F8510028B9002084F85000204600F042
:101EA00047F8022084F851002068006820F04000C4
:101EB00021680860A08800F48270218901F404413F
:101EC0000843A18901F400610843217C01F002016B
:101ED0000843217D01F001010843218B01F40071C9
:101EE0000843217F01F0380108432021095D01F0FA
:101EF00080010843218D01F40051084321680860E6
:101F00000421A06901EA104094F8241001F01001A6
:101F10000843216848602068C06920F40060216897
:101F2000C86100206065012084F8510000209FE70F
:101F300010B586B00446142101A8FEF712FA3A49FA
:101F4000206888426DD100BF0020009037480068AB
:101F500040F48050354908600846006800F480501D
:101F6000009000BF00BF00BF002000902F48143831
:101F7000006840F001002D491439086008460068E7
:101F800000F00100009000BF00BFE020019002209F
:101F900002900390032004900520059001A9244895
:101FA000FFF74CF92348244908604FF0C0604860AF
:101FB000002121488160C1604FF4806101610021EE
:101FC00041618161C1614FF4803101620021416250
:101FD000FFF760F808B1FEF7B1FC00BF1648E064F7
:101FE000846300BF13484830144908604FF0C06054
:101FF00048604021114881600021C1604FF4806138
:102000000161002141618161C16101624162FFF7AB
:1020100041F808B1FEF792FC00BF0848A064846351
:1020200000BF06B010BD000000300140443802403F
:102030000000024010640240C00300202004002081
:10204000704770472DE9F04704460E4617461D4677
:102050004FF0000A00BF94F85000012802D102207E
:10206000BDE8F087012084F8500000BF94F851804B
:10207000D4F80490B8F1010F0AD0B9F5827F04D1E9
:10208000A06810B9B8F1040F02D04FF0020A7DE049
:102090000EB107B115B94FF0010A77E094F851007D
:1020A000042802D0052084F85100002060652663D2
:1020B000A586E586A763A587E5872064606494F814
:1020C0005100042806D13548E16C08643448E16CBD
:1020D000C86305E03348E16C08643348E16CC863C9
:1020E0003248E16CC8640020E16C0865E38FD4F8E5
:1020F00000C00CF10C01A26BE06CFFF741F848B195
:10210000606D40F0100060654FF0010A012084F816
:1021100051003BE02068406840F0010021684860C1
:102120000020A16C0864A16CC863A16CC864A16C98
:102130000865E38ED4F800C00CF10C02216BA06C92
:10214000FFF71EF848B1606D40F0100060654FF079
:10215000010A012084F8510018E02068006800F0AE
:102160004000402805D02068006840F04000216809
:1021700008602068406840F02000216848602068BE
:10218000406840F002002168486000BF00BF0020A6
:1021900084F8500000BF504662E70000A93E0008E6
:1021A000C53E0008B73E0008413F0008813E0008D8
:1021B0000246002046498978454BDB781943444B59
:1021C0001B791943424B5B7941EA03004049097886
:1021D0005A2935D13E494978A52931D13C498979D7
:1021E00081422DD13A49C979AA2929D1384989781A
:1021F000384B19703649C978597035490979997041
:1022000033494979D970194691ED000A324981ED77
:10221000000A91ED000AF7EE000AB4EEE00AF1EED2
:1022200010FA0DDD91ED000ADFED2C0AB4EEE00AA4
:10223000F1EE10FA04D291ED000A294981ED000A6D
:10224000A521284B1970244991ED000AF6EE000AE9
:1022500030EE200ABCEEC00A10EE101A5970224966
:1022600091ED000A214981ED000A91ED000A204913
:1022700081ED000A097899701D494978D9701C4987
:10228000897819711A49C978597119468978DB78A2
:102290001943144B1B791943124B5B791943114BAA
:1022A0005B7819430F4B99715A21D971A021084BC2
:1022B0001970B0215970C0219970D021D970D121E5
:1022C0001971C1215971B1219971A121D971704739
:1022D000800000209C000020900000200000484367
:1022E0005C00002088000020B8000020940000203E
:1022F00098000020704770B504462546681EB0F16E
:10230000807F01D301200FE0681E4FF0E02148617B
:102310000F214FF0FF3002F097FC00204FF0E0213A
:10232000886107200861002070BD7047704710B5B4
:102330000346002200BF93F83C00012801D102208F
:1023400010BD012083F83C0000BF22F0FF00CC68E4
:1023500040EA040222F440708C6840EA040222F44D
:1023600080604C6840EA040222F400600C6840EA95
:10237000040222F480500C6940EA040222F4005066
:102380004C6940EA040222F48040CC6940EA04022D
:102390001868426400BF002083F83C0000BF00BF03
:1023A000CEE7000030B502460B4600BF92F83C0075
:1023B000012801D1022030BD012082F83C0000BF7D
:1023C000022082F83D00106844681068816824F09B
:1023D00070041868044310684460144D1068A842E3
:1023E00013D01068B0F1804F0FD0114D1068A84283
:1023F0000BD0104D1068A84207D00F4D1068A842AE
:1024000003D00E4D1068A84205D121F08001586814
:10241000014310688160012082F83D0000BF002068
:1024200082F83C0000BF00BFC5E70000000001408B
:102430000004004000080040000C00400040014043
:1024400070B504460D4615B994F842000BE0042D12
:1024500002D14320005D06E0082D02D14420005D3A
:1024600001E04520005D012801D0012070BD1DB9AB
:10247000022084F842000EE0042D03D10221432003
:10248000015508E0082D03D102214420015502E046
:1024900002214520015504222946206802F039F81E
:1024A0002068406C40F40040216848641649206868
:1024B000884213D02068B0F1804F0FD013492068B4
:1024C00088420BD012492068884207D01149206801
:1024D000884203D01049206888420CD12068806867
:1024E00000F00706062E0CD02068006840F00100BE
:1024F0002168086005E02068006840F0010021685C
:1025000008600020B2E70000000001400004004025
:1025100000080040000C00400040014070B5044637
:102520000D4600222946206801F0F3FF00BF206815
:10253000006A41F21111084050B92068006A891000
:10254000084028B92068406C20F4004021684864A5
:1025500000BF00BF2068006A41F21111084050B965
:102560002068006A8910084028B92068006820F0B7
:1025700001002168086000BF1DB9012084F84200F5
:102580000EE0042D03D101214320015508E0082D60
:1025900003D101214420015502E0012145200155CC
:1025A000002070BD10B504460CB9012010BD94F890
:1025B0003D0028B9002084F83C00204600F026F8B1
:1025C000022084F83D00211D206801F03FFF01201A
:1025D00084F8460000BF84F83E0001213F200155E9
:1025E000402001554120015500BF00BF012084F863
:1025F000420043200155442001554520015500BFAC
:10260000012084F83D000020D0E7000038B50446E2
:102610002449206888420FD100BF00200090224842
:10262000006840F00100204908600846006800F09A
:102630000100009000BF34E02068B0F1804F1AD153
:1026400000BF002000901848001F006840F0010003
:102650001549091F08600846006800F00100009055
:1026600000BF00BF002205211C20FEF76DFF1C20CB
:10267000FEF75AFF15E00D492068884211D100BFCE
:10268000002000900848001F006840F00200064942
:10269000091F08600846006800F00200009000BFB3
:1026A00000BF38BD00000140443802400004004033
:1026B000014691F83D00012801D001207047022019
:1026C00081F83D00164B0868984213D00868B0F1B5
:1026D000804F0FD0134B086898420BD0124B0868FC
:1026E000984207D0114B0868984203D0104B0868F5
:1026F00098420CD10868806800F00702062A0CD0C6
:102700000868006840F001000B68186005E0086880
:10271000006840F001000B6818600020CEE7000060
:10272000000001400004004000080040000C004090
:1027300000400140014691F83D00012801D00120F0
:102740007047022081F83D000868C06840F0010031
:102750000B68D860164B0868984213D00868B0F12F
:10276000804F0FD0134B086898420BD0124B08686B
:10277000984207D0114B0868984203D0104B086864
:1027800098420CD10868806800F00702062A0CD035
:102790000868006840F001000B68186005E00868F0
:1027A000006840F001000B6818600020C8E70000D6
:1027B000000001400004004000080040000C004000
:1027C000004001402DE9F04104460D46002700BFBE
:1027D00094F83C00012802D10220BDE8F0810120DC
:1027E00084F83C0000BF022084F83D002068866821
:1027F00026F0770626F47F462068866028685028F1
:1028000033D00CDC202850D004DC00284BD010281A
:1028100051D149E0302849D040284CD139E06028D6
:102820002DD0702807D0B0F5805F03D0B0F5005FE1
:1028300041D10DE041E0D5E902136A68206801F05A
:1028400079FE2068866846F077062068866034E066
:10285000D5E902136A68206801F06CFE2068806880
:1028600040F480402168886027E0EA686968206851
:1028700001F030FF5021206801F067FE1DE0EA689A
:102880006968206801F039FF6021206801F05DFE71
:1028900013E0EA686968206801F01CFF40212068A5
:1028A00001F053FE09E000BF00BF00BF29682068A7
:1028B00001F04BFE01E0012700BF00BF012084F8BA
:1028C0003D0000BF002084F83C0000BF384684E78C
:1028D000704710B5044620680069C0F34000D8B1C5
:1028E0002068C068C0F34000B0B16FF002002168FA
:1028F0000861012020772068806900F0030018B18A
:102900002046FFF7E5FF05E0204600F0FFF82046EF
:1029100000F0B3F90020207720680069C0F3800040
:10292000D8B12068C068C0F38000B0B16FF0040077
:1029300021680861022020772068806900F44070D7
:1029400018B12046FFF7C4FF05E0204600F0DEF88E
:10295000204600F092F90020207720680069C0F33B
:10296000C000D8B12068C068C0F3C000B0B16FF03B
:10297000080021680861042020772068C06900F001
:10298000030018B12046FFF7A3FF05E0204600F042
:10299000BDF8204600F071F900202077206800691A
:1029A000C0F30010D8B12068C068C0F30010B0B107
:1029B0006FF0100021680861082020772068C06946
:1029C00000F4407018B12046FFF782FF05E0204672
:1029D00000F09CF8204600F050F900202077206895
:1029E000006900F0010058B12068C06800F00100E3
:1029F00030B16FF0010021680861204600F002FA52
:102A000020680069C0F3C01058B12068C068C0F3E6
:102A1000C01030B16FF08000216808612046FFF7D8
:102A200084FC20680069C0F3801058B12068C06839
:102A3000C0F3801030B16FF040002168086120467B
:102A400000F026FA20680069C0F3401058B12068F1
:102A5000C068C0F3401030B16FF0200021680861F9
:102A60002046FFF763FC10BD10B586B00446142164
:102A700001A8FDF776FC2149206888423CD100BFBF
:102A8000002000901E48006840F002001C490860C9
:102A90000846006800F00200009000BF00BF00BFC1
:102AA000002000900846006840F0010008600846D9
:102AB000006800F00100009000BF00BF4FF4C0406C
:102AC0000190022002900020039003200490012036
:102AD000059001A90B48FEF7B1FB4FF4407001903F
:102AE0000220029000200390032004900120059012
:102AF00001A90548FEF7A2FB06B010BD0000014089
:102B000030380240000402400000024070472DE9C6
:102B1000F04104460D461646002700BF94F83C00DD
:102B2000012802D10220BDE8F081012084F83C0098
:102B300000BF36B1042E1BD0082E31D00C2E5ED132
:102B400045E02946206801F009FD2068806940F0D1
:102B50000800216888612068806920F004002168ED
:102B6000886120688069296908432168886148E094
:102B70002946206801F022FD2068806940F4006049
:102B8000216888612068806920F4806021688861FC
:102B900020688069296940EA01202168886130E065
:102BA0002946206801F03EFD2068C06940F0080019
:102BB0002168C8612068C06920F004002168C861EC
:102BC0002068C069296908432168C86119E029465D
:102BD000206801F05BFD2068C06940F40060216856
:102BE000C8612068C06920F480602168C8612068DD
:102BF000C069296940EA01202168C86101E0012714
:102C000000BF00BF00BF002084F83C0000BF384672
:102C100089E710B504460CB9012010BD94F83D00B9
:102C200028B9002084F83C00204600F025F8022056
:102C300084F83D00211D206801F008FC012084F883
:102C4000460000BF84F83E0001213F20015540208E
:102C500001554120015500BF00BF012084F842000A
:102C600043200155442001554520015500BF012056
:102C700084F83D000020D0E77047704770B50446E7
:102C80000D4615B994F83E000BE0042D02D13F200B
:102C9000005D06E0082D02D14020005D01E04120EA
:102CA000005D012801D0012070BD1DB9022084F80B
:102CB0003E000EE0042D03D102213F20015508E023
:102CC000082D03D102214020015502E002214120BC
:102CD000015501222946206801F00AFC1D4920689F
:102CE000884201D1012000E0002028B12068406C1A
:102CF00040F400402168486416492068884213D097
:102D00002068B0F1804F0FD01349206888420BD063
:102D100012492068884207D011492068884203D0B0
:102D20001049206888420CD12068806800F00706AE
:102D3000062E0CD02068006840F001002168086071
:102D400005E02068006840F001002168086000206C
:102D5000AAE7000000000140000400400008004015
:102D6000000C00400040014030B504460D460022F2
:102D70002946206801F0BCFB21492068884201D126
:102D8000012000E0002090B100BF2068006A41F2FD
:102D90001111084050B92068006A8910084028B90C
:102DA0002068406C20F400402168486400BF00BFE8
:102DB0002068006A41F21111084050B92068006A89
:102DC0008910084028B92068006820F001002168B7
:102DD000086000BF1DB9012084F83E000EE0042DFC
:102DE00003D101213F20015508E0082D03D1012125
:102DF0004020015502E0012141200155002030BD55
:102E00000000014010B504461A48844231D101F057
:102E100053FA00F087FB00F0F7FF00F085FF16483B
:102E2000FEF706FB154890ED000AF2EE0E0AB4EE2E
:102E3000E00AF1EE10FA00D300BF11480078012833
:102E400004D010480078012800D100BF0E48006867
:102E50003221B0FBF1F02321B0FBF1F201FB1200B3
:102E60000A49086000BF00BF07480068401C0649C7
:102E7000086010BDC804002058050020B8000020DC
:102E80000100002067000020700000207400002076
:102E90007047704738B5054601221149114800F0C6
:102EA0005BFA0446DCB1022C19D100BF002000906F
:102EB0000C480068006800900A480068406800906C
:102EC00000BF00BF2020074981F83E00002081F8A4
:102ED0003C0001220249034800F03EFA044638BD96
:102EE000A0000020A80500202DE9F84F0446206826
:102EF00005682068C668206847694FF00009CA461F
:102F000005F00F09B9F1000F0AD105F0200038B122
:102F100006F0200020B1204601F053FCBDE8F88FF8
:102F2000B9F1000F7CD007F0010018B906F49070D9
:102F3000002875D005F0010030B106F4807018B19A
:102F4000206C40F00100206405F0040030B107F06F
:102F5000010018B1206C40F00200206405F002006E
:102F600030B107F0010018B1206C40F0040020647B
:102F700005F0080048B106F0200010B907F0010084
:102F800018B1206C40F008002064206C002846D066
:102F900005F0200028B106F0200010B1204601F015
:102FA00010FC20684069C0F3801A206C00F0080013
:102FB00010B9BAF1000F2DD0204601F0BCFB2068FB
:102FC000406900F04000402820D100BF00BF2168C8
:102FD000143151E8001F21F040002168143141E80C
:102FE0000002002AF3D100BFA06B50B17548A16B5D
:102FF0000865A06BFDF71AFF88B1A06B016D8847CB
:103000000DE02046FFF746FF09E009E02046FFF704
:1030100041FF04E02046FFF73DFF002020647DE7EC
:10302000206B012876D105F01000002872D006F040
:1030300010000028FAD000BF00200090206800682F
:10304000009020684068009000BF00BF2068406981
:1030500000F0400040285ED1A06B006840681FFA75
:1030600080F8B8F1000F54D0A08D404551DDA4F890
:103070002E80A06BC069B0F5807F43D000BF00BF39
:1030800021680C3151E8001F21F4807021680C3157
:1030900041E80002002AF3D100BF00BF00BF216851
:1030A000143151E8001F21F001002168143141E87A
:1030B0000002002AF3D100BF00BF00BF2168143115
:1030C00051E8001F21F040002168143141E800025E
:1030D000002AF3D100BF202084F83E0000202063A6
:1030E00000BF00BF21680C3151E8001F21F0100023
:1030F00021680C3141E80002002AF3D100BFA06B27
:10310000FDF73EFEA08DE28D801A81B22046FFF7CA
:10311000C0FE03E740E0A08DE18D401A1FFA80F861
:10312000E08DC0B3B8F1000F35D000BF00BF2168FB
:103130000C3151E8001F21F4907021680C3141E8F6
:103140000002002AF3D100BF00BF00BF2168143184
:1031500051E8001F21F001002168143141E800020C
:10316000002AF3D100BF202084F83E000020206315
:1031700000BF00BF21680C3151E8001F21F0100092
:1031800021680C3141E80002002AF3D100BF41461A
:103190002046FFF77EFEC1E605F0800030B106F064
:1031A000800018B1204601F0C4FCB7E605F04000ED
:1031B00030B106F0400018B1204601F0F2FAADE659
:1031C00000BFABE62347000810B504460CB9012048
:1031D00010BDA06900B100E000BF94F83D0028B91F
:1031E000002084F83C00204600F028F8242084F8D1
:1031F0003D002068C06820F400502168C860204667
:1032000001F05CFB2068006920F4904021680861AF
:103210002068406920F02A00216848612068C06861
:1032200040F400502168C86000202064202084F809
:103230003D0084F83E000020CAE7000010B586B0CB
:103240000446142101A8FDF78CF83E492068884205
:1032500038D100BF002000903B48006840F01000CB
:10326000394908600846006800F01000009000BF6F
:1032700000BF00BF0020009033481438006840F0C1
:1032800002003149143908600846006800F0020065
:10329000009000BF00BF402001901220029000204B
:1032A0000390032004900720059001A92748FDF70B
:1032B000C5FF00220C212520FEF746F92520FEF748
:1032C00033F93CE022492068884238D100BF002011
:1032D00000901D48006840F020001B490860084627
:1032E000006800F02000009000BF00BF00BF002079
:1032F000009015481438006840F001001249143954
:1033000008600846006800F00100009000BF00BFA0
:103310004FF4C0500190022002900020039003203F
:1033200004900820059001A90A48FDF787FF0022B4
:1033300011464720FEF708F94720FEF7F5F806B0DA
:1033400010BD00000010014044380240000402405B
:10335000001401400000024070B504460D461646B8
:1033600094F83E00202816D105B10EB9012070BD99
:1033700000BF94F83C00012801D10220F7E70120AA
:1033800084F83C0000BF00202063324629462046D6
:1033900001F0AAFBEBE70220E9E7000038B505469B
:1033A00025492868884245D124480068C06820F033
:1033B000200022490968C860214800782149224A32
:1033C0001278885420480078401C1F49087008462D
:1033D00000781E2803DB0020087001F069FD174803
:1033E0000068C06840F0200014490968C8600122E4
:1033F00013491248FFF7B0FF0446DCB1022C19D183
:1034000000BF002000900D480068006800900B4845
:1034100000684068009000BF00BF2020074981F885
:103420003E00002081F83C00012205490348FFF7D7
:1034300093FF044638BD000000140140A805002099
:10344000A0000020EC050020C80000202DE9F84F66
:1034500004460E46174699464FF0000A94F83D0080
:1034600020285AD106B117B90120BDE8F88F00BF56
:1034700094F83C00012801D10220F6E7012084F8ED
:103480003C0000BF00202064212084F83D00FDF7AF
:10349000C9FF8246A784E784A068B0F5805F04D1A5
:1034A000206910B90025B04602E035464FF000080B
:1034B00000BF002084F83C0000BF1BE05346002200
:1034C00080212046CDF8009001F063FB08B1032075
:1034D000CBE745B9B8F80000C0F3080021684860A0
:1034E00008F1020803E02878216848606D1CE08C30
:1034F000401EE084E08C0028E0D1534600224021A9
:103500002046CDF8009001F044FB08B10320ACE761
:10351000202084F83D000020A7E70220A5E770479F
:1035200000BFFEE764200CE0411E6C4A02EB810103
:1035300091ED000A114601EB800181ED000A411E68
:10354000C8B20028F0DC664991ED000A634981EDBC
:10355000000A0021634A1170634A117000202DE0B7
:103560005E4901EB800191ED000A5C4A00F1140113
:1035700002EB8101D1ED000AB4EEE00AF1EE10FA9F
:1035800004D258490978491C564A1170534901EB35
:10359000800191ED000A514A00F1140102EB810112
:1035A000D1ED000AB4EEE00AF1EE10FA04DD4E4966
:1035B0000978491C4C4A1170811CC8B25128CFDBD4
:1035C00048490978494A117047490978484A1170B1
:1035D000454909780F2913DD404991ED000AD1EDE5
:1035E000640A30EE600ADFED430A30EE600AB5EEA1
:1035F000C00AF1EE10FA03DD01213F4A117002E02A
:1036000000213D4A11703749097814295CDD33499E
:1036100091ED640AD1ED000A30EE600ADFED350A63
:1036200030EE600AB5EEC00AF1EE10FA4CDD012171
:10363000324A11702A4991ED000AF3EE050AB4EE00
:10364000E00AF1EE10FA05DDB7EE000A2C4981ED33
:10365000000A41E0224991ED000AF2EE0A0AB4EEB6
:10366000E00AF1EE10FA0FDD91ED000AF3EE050A23
:1036700070EEC00A9FED231AB7EE000A00EE810A31
:103680001F4981ED000A27E0154991ED000AF1EE8E
:10369000040AB4EEE00AF1EE10FA0FDD91ED000A33
:1036A000F2EE0A0A70EEC00A9FED171A9FED170A94
:1036B00000EE810A124981ED000A0DE09FED140A27
:1036C0000F4981ED000A07E000210C4A1170B7EEA6
:1036D000000A0B4981ED000A704700002C01002010
:1036E000B80000206C0000206D0000206400002065
:1036F000650000200AD7233C6600002067000020F8
:10370000C40000206F12833C0AD7A33C4E62903F56
:10371000C3F5A83F1FB500200090019002900390D0
:103720002448254908604FF4803048600021224831
:1037300081600121016100210176012180F82010C2
:10374000032141624FF08051C16249108162002122
:10375000C1600321C161012180F830100021416165
:10376000FDF7BAF908B1FDF7E9F802200090012051
:1037700001900520029069460F48FDF7E3F808B173
:10378000FDF7DCF8012000900220019069460A480C
:10379000FDF7D8F808B1FDF7D1F80020009003201C
:1037A000019069460448FDF7CDF808B1FDF7C6F869
:1037B0001FBD000000200140C002002008B500BF6E
:1037C000002000901248006840F480001049086012
:1037D0000846006800F48000009000BF00BF00228F
:1037E0000E213820FDF7B0FE3820FDF79DFE0022A7
:1037F0000E213B20FDF7A8FE3B20FDF795FE0022A1
:1038000011463C20FDF7A0FE3C20FDF78DFE08BDD3
:103810003038024000B587B0142102A8FCF7A1FDA2
:1038200000BF002001904A48006840F00400484969
:1038300008600846006800F00400019000BF00BF67
:1038400000BF002001900846006840F0800008603A
:103850000846006800F08000019000BF00BF00BF74
:10386000002001900846006840F00100086008460A
:10387000006800F00100019000BF00BF00BF002001
:1038800001900846006840F00200086008460068A1
:1038900000F00200019000BF00BF00224FF4004181
:1038A0002C48FDF7B9FD012291022B48FDF7B4FD2C
:1038B0000122D1022848FDF7AFFD00224FF48051CC
:1038C0002548FDF7A9FD4FF46040029003200390C6
:1038D0000020049002A92148FDF7B0FC03200290CB
:1038E00003900020049002A91D48FDF7A7FC48F2B0
:1038F00018000290032003900020049002A91648AB
:10390000FDF79CFC41F2FF70029003200390002021
:10391000049002A90F48FDF791FC4FF4004002907B
:103920000120039000200490059002A90948FDF7AA
:1039300085FC4FF4805002900120039000200490F9
:10394000059002A90448FDF779FC07B000BD00000E
:1039500030380240000402400000024000080240EB
:10396000001C024010B50D480D4908600020486059
:1039700000210B488160C160016141614FF4007119
:10398000816100210162416281620A21C162FEF708
:103990006BFA08B1FCF7D2FF10BD00000030014007
:1039A0006803002000B595B000201190129013908C
:1039B00014900F9010901C2108A8FCF7D2FC202135
:1039C0006846FCF7CEFC3248324908600020486067
:1039D00000213048816040F2CF71C1600021016157
:1039E000416180218161FEF7DDFD08B1FCF7A6FF92
:1039F0004FF48050119011A92648FEF7E3FE08B15C
:103A0000FCF79CFF2348FFF704F908B1FCF796FF89
:103A100000200F9010900FA91E48FEF7C3FC08B1BC
:103A2000FCF78CFF6020089040F283300990002062
:103A30000A900B9004200C9000200D900E90002214
:103A400008A91448FFF763F808B1FCF777FF0422D0
:103A500008A91048FFF75BF808B1FCF76FFF0020DA
:103A600000900190029014200390002004904FF4E5
:103A7000005005900020079069460648FEF757FC65
:103A800008B1FCF75BFF0348FEF7EEFF15B000BD81
:103A9000000001408004002000B587B000200390A2
:103AA000049005900690019002904FF080401449D8
:103AB00008605320486000211148816040F2E731DE
:103AC000C1600021016180218161FEF76BFD08B1B9
:103AD000FCF734FF4FF48050039003A90848FEF729
:103AE00071FE08B1FCF72AFF00200190029001A9A5
:103AF0000348FEF757FC08B1FCF720FF07B000BDF4
:103B0000C804002000B587B0002003900490059001
:103B10000690019002901548154908600020486001
:103B200000211348816040F2CF71C1600021016122
:103B300080218161FEF736FD08B1FCF7FFFE4FF4EE
:103B40008050039003A90A48FEF73CFE08B1FCF739
:103B5000F5FE202001900020029001A90448FEF704
:103B600021FC08B1FCF7EAFE07B000BD00040040EC
:103B70001005002010B50B480B4908604FF4E130E8
:103B80004860002108488160C16001610C214161E9
:103B900000218161C161FFF717FB08B1FCF7CEFE80
:103BA00010BD000000140140A805002000BFFEE782
:103BB00000BFFEE74F4890ED000A4F48D0ED000AE5
:103BC0004E4890ED001A10EE810A4D4880ED030A30
:103BD00090ED030AD0ED040A30EE600AD0ED000A41
:103BE00020EE200AD0ED010A90ED031A00EE810AC2
:103BF000D0ED030A90ED041AF0EE001A41EEC10A6E
:103C000090ED051A70EE810A90ED021A01EE200A7D
:103C10003C48D0ED000A30EE200A80ED000A38481A
:103C200090ED030A80ED040A90ED040A80ED050A88
:103C3000344890ED000ADFED340AB4EEE00AF1EE0C
:103C400010FA04D89FED300A80ED000A0DE02D48EF
:103C500090ED000ADFED2D0AB4EEE00AF1EE10FA65
:103C600003DB9FED2A0A80ED000A264890ED000A4A
:103C7000DFED270AB4EEE00AF1EE10FA0AD290ED79
:103C8000000A244880ED000A9FED210A224880EDB9
:103C9000000A0EE09FED1E0A1E4880ED000A19483A
:103CA00090ED000ADFED1D0A30EEC00A1A4880EDE3
:103CB000000A1848D0ED000A9FED191AB7EE000A65
:103CC00011EE200ABCEEC00A10EE100A1549096870
:103CD00048631148D0ED000A9FED111AB7EE000AB3
:103CE00011EE200ABCEEC00A10EE100A0D49096858
:103CF00088637047B00000205C000020680000204E
:103D00002000002050000020CDCCCC3D9A99D93F16
:103D10006666663F54000020580000206666E63F55
:103D20000000FA44800400202E4890ED000AF7EECF
:103D3000000AB4EEE00AF1EE10FA05D29FED2A0A6D
:103D40002A4880ED000A4CE029480078012833D148
:103D50002848007878BB234890ED000AF1EE040A69
:103D6000B4EEE00AF1EE10FA0FD290ED000AF7EE91
:103D7000000A70EE600A9FED1C1A9FED1F0A00EE0C
:103D8000810A1A4880ED000A2BE0164890ED000ADF
:103D9000F2EE000AB4EEE00AF1EE10FA05D29FED61
:103DA000170A124880ED000A1BE0B7EE000A0F4820
:103DB00080ED000A15E0FFE70A4890ED000AF1EEF9
:103DC000080AB4EEE00AF1EE10FA05D29FED0C0AF3
:103DD000064880ED000A04E0B7EE000A034880EDD3
:103DE000000A7047B8000020CDCCCC3D6800002010
:103DF0006600002001000020CDCC4C3E3333333F21
:103E0000CDCC4C3F7047000010B5104890ED000A33
:103E1000DFED0F0AB4EEE00AF1EE10FA07DD00F074
:103E20008FFA01200B4908700B4908700CE0074815
:103E300090ED000AF2EE040AB4EEE00AF1EE10FA98
:103E400002D202200449087010BD0000B800002012
:103E50003333D741010000200000002010B5024894
:103E6000FDF754FF10BD00006803002070B5054643
:103E7000AC6B0020E087E0862046FDF745FF70BD73
:103E800070B50546AC6B2068406820F003002168DF
:103E90004860606D40F010006065012084F85100BA
:103EA0002046FDF731FF70BD70B50446A56B28466E
:103EB000FEF7C7F870BD70B50446A56B2846FEF73F
:103EC00019FA70BD70B50546AC6BFDF7ABFA064646
:103ED0002868006800F48070B0F5807F2BD02068DF
:103EE000406820F0200021684860A06850B96068F0
:103EF000B0F5827F06D12068406820F00300216879
:103F0000486005E02068406820F0010021684860B2
:103F100032466421204600F047F808B12020606551
:103F20000020E087012084F85100606D18B1204620
:103F3000FDF7EAFE70BD2046FEF782F800BFF9E704
:103F400070B50546AC6BFDF76DFA0646286800684B
:103F500000F48070B0F5807F21D02068406820F0A8
:103F600020002168486032466421204600F066F84F
:103F700018B1606D40F0200060652068406820F056
:103F80000300216848600020E086E087012084F873
:103F90005100606D18B12046FDF7B6FE70BD204699
:103FA000FEF706F900BFF9E7F8B504460E461546D8
:103FB0006068B0F5827F0DD1A068B0F5004F03D0E6
:103FC000A068B0F5806F05D12068006820F040003F
:103FD000216808606068B0F5827F1FD1A068B0F5E5
:103FE000806F0DD03346002280212046009500F0DE
:103FF0005BF808B3606D40F0200060650320F8BDF9
:104000003346002201212046009500F04DF898B17A
:10401000606D40F0200060650320F0E73346002229
:1040200001212046009500F03FF828B1606D40F076
:10403000200060650320E2E70020E0E77CB504464D
:104040000D461646164800681821B0FBF1F01549D8
:10405000B0FBF1F04FF47A71484301906068B0F51D
:10406000827F0DD12B46002280212046009600F051
:104070001BF898B1606D40F02000606503207CBDA6
:1040800000BF019800B908E00198401E0190206827
:104090008068C0F3C0100028F3D100BF0020EEE715
:1040A000D800002040420F002DE9F84F04460D468D
:1040B00090461E46DDF82890FDF7B4F9A0EB090004
:1040C000371AFDF7AFF982462C480068C0F3CB30B1
:1040D0007843009045E0701C002842D0FDF7A2F91B
:1040E000A0EB0A00B84200D2A7BB2068406820F0CD
:1040F000E000216848606068B0F5827F0DD1A0685B
:10410000B0F5004F03D0A068B0F5806F05D12068EE
:10411000006820F0400021680860A06AB0F5005FE8
:104120000DD100BF2068006820F4005021680860AD
:104130002068006840F400502168086000BF01203A
:1041400084F8510000BF002084F8500000BF032015
:10415000BDE8F88FFFE7009800B900270098401EDF
:104160000090206880682840A84201D1012000E02A
:1041700000204045AFD10020EAE70000D800002031
:104180007047000010B54048D0ED000A3F4890ED60
:10419000001A80EE810ADFED3E0A20EE200A3D483B
:1041A00080ED000A90ED000ADFED3B0AB4EEE00A74
:1041B000F1EE10FA04D89FED380A80ED000A0DE008
:1041C000344890ED000ADFED350AB4EEE00AF1EE76
:1041D00010FA03DB9FED310A80ED000A2D4890EDC7
:1041E000000ADFED2F0AB4EEE00AF1EE10FA0AD26F
:1041F00090ED000A2B4880ED000A9FED290A2A481D
:1042000080ED000A0EE09FED260A264880ED000AA8
:10421000204890ED000ADFED250A30EEC00A224862
:1042200080ED000A1F48D0ED000A9FED211AB7EE7D
:10423000000A11EE200ABCEEC00A10EE100A1D4959
:10424000096848631848D0ED000A9FED191AB7EEC7
:10425000000A11EE200ABCEEC00A10EE100A154941
:104260000968886300211348FEF708FD0021114802
:10427000FEF7E6F804210F48FEF700FD04210D4883
:10428000FEF7DEF810BD0000B8000020BC000020E2
:10429000CDCC4C3F50000020CDCCCC3D9A99D93F9D
:1042A0006666663F54000020580000206666E63FC0
:1042B0000000FA448004002010B51C4890ED000A6C
:1042C000DFED1B0AB4EEE00AF1EE10FA08DD194842
:1042D000007828B901201749087000F031F824E06F
:1042E000154890ED030AB5EEC00AF1EE10FA09D2B6
:1042F00010480078012805D100200E490870FFF70A
:1043000041FF12E0094890ED000ADFED0C0AB4EE1F
:10431000E00AF1EE10FA08D206480078012804D12C
:10432000002004490870FFF72DFF10BDB8000020E1
:104330003333D34101000020200000200000CC4195
:1043400010B500210748FEF70FFD00210548FEF7D4
:10435000E5F804210348FEF707FD04210148FEF7B4
:10436000DDF810BD8004002010B5FDF769F810BD20
:1043700000B593B0302107A8FBF7F3FF142102A882
:10438000FBF7EFFF00BF002001902548006840F0D8
:104390008050234908600846006800F08050019072
:1043A00000BF00BF00BF002001901E48006820F43D
:1043B000404040F400401B4908600846006800F493
:1043C0004040019000BF00BF0220079001200A90EA
:1043D00010200B9002200D9000210E9108210F91CA
:1043E000A821109104211191129107A8FDF73EFA1E
:1043F00008B1FCF7A3FA0F200290022003900020DE
:1044000004904FF48050059000200690022102A8ED
:10441000FDF7ECF808B1FCF791FA13B000BD00000D
:1044200040380240007000400348006840F47000CB
:10443000014908607047000088ED00E010B50248AF
:10444000FEF747FA10BD0000C804002010B502684E
:10445000204B98420BD0B0F1804F08D01E4B9842B1
:1044600005D01E4B984202D01D4B984203D122F03A
:1044700070024B681A43174B984214D0B0F1804F2A
:1044800011D0154B98420ED0144B98420BD0144BC0
:10449000984208D0134B984205D0134B984202D053
:1044A000124B984203D122F44072CB681A4322F097
:1044B00080034C6943EA040202608B68C3620B68A4
:1044C0008362044B984201D10B690363012343616A
:1044D00010BD000000000140000400400008004042
:1044E000000C0040004001400044014000480140F1
:1044F00030B501F01F05012404FA05F3046A9C435A
:104500000462046A01F01F0502FA05F52C430462F7
:1045100030BD30B501F01F05042404FA05F3046A28
:104520009C430462046A01F01F0502FA05F52C435E
:10453000046230BD30B50C46816821F47F4142EA07
:10454000032525432943816030BD0A46816821F057
:10455000700142F0070319438160704730B5056A66
:1045600025F001050562026A4368846924F070043D
:1045700024F003040D682C4322F002028D682A43C4
:104580000D4DA84206D100BF22F00802CD682A4393
:1045900022F00402084DA84207D123F4807323F4CB
:1045A00000734D692B438D692B43436084614D68D3
:1045B0004563026230BD00000000014030B5056A6D
:1045C00025F010050562026A4368846924F4E0441A
:1045D00024F440740D6844EA052422F020028D681A
:1045E00042EA05120E4DA84207D100BF22F0800218
:1045F000CD6842EA051222F04002094DA84209D1D5
:1046000023F4806323F400634D6943EA85038D69D5
:1046100043EA8503436084614D688563026230BD6F
:104620000000014030B5056A25F480750562026A14
:104630004368C46924F0700424F003040D682C431B
:1046400022F400728D6842EA05220F4DA84207D17C
:1046500000BF22F40062CD6842EA052222F48062A3
:10466000094DA84209D123F4805323F400534D6926
:1046700043EA05138D6943EA05134360C4614D683D
:10468000C563026230BD00000000014030B5056A1C
:1046900025F480550562036A4468C26922F4E04249
:1046A00022F440720D6842EA052223F400538D681B
:1046B00043EA0533064DA84204D124F480444D69F1
:1046C00044EA85144460C2614D680564036230BDEC
:1046D0000000014030B50B461446026A056A25F019
:1046E00001050562816921F0F00141EA041122F01F
:1046F0000A021A438161026230BD30B50B4614468E
:10470000056A25F0100505628169026A21F470418D
:1047100041EA043122F0A00242EA031281610262FE
:1047200030BD70B50546AC6B0020E085E0842046C6
:10473000FEF7B0FB70BD00BF00BF02680C3252E84C
:10474000002F22F4907102680C3242E80013002B13
:10475000F3D100BF00BF00BF0268143252E8002F3F
:1047600022F001010268143242E80013002BF3D159
:1047700000BF016B01290ED100BF00BF02680C32DF
:1047800052E8002F22F0100102680C3242E80013B8
:10479000002BF3D100BF202180F83E1000210163DF
:1047A000704710B504462068C06820F040002168BA
:1047B000C860202084F83D002046FEF7B0FE0020AF
:1047C00010BDF8B5044694F83E00222873D1A068C5
:1047D000B0F5805F0CD1206950B90025A66A206829
:1047E0004068C0F308003080A06A801CA06215E019
:1047F000A56A0026A068B0F5805F03D0A06828B93C
:10480000206918B920684068287004E02068406872
:1048100000F07F002870A06A401CA062E08D401E5E
:1048200080B2E085002844D12068C06820F02000D4
:104830002168C8602068C06820F480702168C86062
:104840002068406920F0010021684861202084F838
:104850003E00206B012826D10020206300BF00BF4E
:1048600021680C3151E8001F21F0100021680C3143
:1048700041E80002002AF3D100BF2068006800F080
:10488000100010280AD100BF0020009020680068A6
:10489000009020684068009000BF00BFA18D2046B6
:1048A000FEF7F7FA02E02046FEF778FD0020F8BD9B
:1048B00001E00020FBE70220F9E700002DE9F84FB6
:1048C00004462068006920F44050E16808432168EC
:1048D00008612169A068084361690843E1690843E8
:1048E00000902068C06849F20C6188430099084331
:1048F0002168C8602068406920F44070A1690843BD
:104900002168486176492068884203D0754920684B
:10491000884203D1FCF742FF814602E0FCF72EFFFC
:104920008146E069B0F5004F6CD102206168A0FBC0
:10493000015003461920A9FB007001462A4638465B
:10494000FBF798FC6421B0FBF1F04FEA001A02205B
:104950006168A0FB01510B461920A9FB00712A4692
:104960003846FBF787FC834602206168A0FB0150B4
:1049700003461920A9FB00712A463846FBF77AFC4A
:104980006421B0FBF1F000EBC00101EB0010ABEBD8
:104990008000322101EBC0006421B0FBF1F000F097
:1049A000F8000AEB400A02206168A0FB01500346B0
:1049B0001920A9FB007001462A463846FBF75AFC2D
:1049C000834602206168A0FB015003461920A9FB21
:1049D00000712A463846FBF74DFC6421B0FBF1F02C
:1049E00000EBC00101EB0010ABEB8000322101EBCA
:1049F000C0006421B0FBF1F000F0070050442168D2
:104A000088606AE004206168A0FB01500346192019
:104A1000A9FB007001462A463846FBF72BFC82466C
:104A200004206168A0FB015003461920A9FB007017
:104A300001462A463846FBF71DFC6421B0FBF1F025
:104A400000EBC00101EB0010AAEB8000322101EB6A
:104A500000106421B0FBF1F000F0F00A042061685E
:104A6000A0FB017003461920A9FB00513A462846D5
:104A7000FBF700FC6421B0FBF1F00AEB001A042004
:104A80006168A0FB01510B461920A9FB00712A4661
:104A90003846FBF7EFFB834604206168A0FB01501A
:104AA00003461920A9FB007001462A463846FBF749
:104AB000E1FB6421B0FBF1F000EBC00101EB001061
:104AC000ABEB8000322101EB00106421B0FBF1F070
:104AD00000F00F00504421688860BDE8F88F0000A6
:104AE000001001400014014010B5034699629A85F8
:104AF000DA8500201864222083F83E0000BF0020E1
:104B000083F83C0000BF186928B11868C06840F4F9
:104B100080701C68E0601868406940F001001C6803
:104B200060611868C06840F020001C68E0600020E8
:104B300010BD014691F83D00212828D18868B0F5C4
:104B4000805F0BD1086948B90A6A1088C0F3080071
:104B50000B685860086A801C086205E00B6A581CE4
:104B6000086218780B685860C88C401E80B2C884F0
:104B700058B90868C06820F080000B68D8600868E1
:104B8000C06840F040000B68D860002070470220E9
:104B9000FCE72DE9F04104460D4617469846069E6F
:104BA00034E0701C88B32EB1FCF73CFCA0EB08008D
:104BB000B0422BD900BF00BF21680C3151E8001F63
:104BC00021F4D07021680C3141E80002002AF3D1B1
:104BD00000BF00BF00BF2168143151E8001F21F061
:104BE00001002168143141E80002002AF3D100BF1E
:104BF000202084F83D0084F83E0000BF002084F8A7
:104C00003C0000BF0320BDE8F081FFE7206800689A
:104C10002840A84201D1012000E00020B842C0D0C5
:104C20000020F0E710B50248FEF75EF910BD000065
:104C3000A805002000BFFEE702480068C0F302207C
:104C4000704700000CED00E010B5002804DB0A07F7
:104C5000130E054A135406E00A07140E034A00F027
:104C60000F031B1FD45410BD00E400E018ED00E05A
:104C7000FCF7F2FBFFF77CFBFEF7CCFD0122910273
:104C80007848FCF7C9FBFEF799FDFEF743FDFEF7F8
:104C900069FEFEF701FFFEF785FEFEF733FFFEF724
:104CA00069FF012270497148FEF756FB03227049E3
:104CB0007048FBF7A9FF08B1FBF740FE6D4800689C
:104CC00040686D4908406B49096848606B48006856
:104CD000006820F08E00694909680860674800682C
:104CE000006820F08E006549096808606448006823
:104CF000C06820F0FF0062490968C8606148FDF79C
:104D000019FD0122D1036048FCF786FB4FF4967031
:104D1000FCF780FA5D48FDF7CBFC3220FCF77AFA0D
:104D200000205B490870FFF72DFA4FF4FA70FCF78A
:104D300071FAA52057490870574890ED000AF6EE21
:104D4000000A30EE200ABCEEC00A10EE100A4870CD
:104D5000524890ED000A524880ED000A00788870B1
:104D60004F484078C8704E48807808714C48C078E9
:104D700048714C4880784B49C978084349490979BA
:104D80000843484949790843464949780843414915
:104D900088715A20C871A02042490870B02048701C
:104DA000C0208870D020C870D1200871C1204871FF
:104DB000B1208871A120C87152E0A5203549087042
:104DC000354890ED000AF6EE000A30EE200ABCEEFF
:104DD000C00A10EE100A4870334890ED000A2F48C0
:104DE00080ED000A90ED000A2D4880ED000A007861
:104DF00088702B484078C870294880780871284806
:104E0000C078487108468078C978084321490979F3
:104E100008432049497908431E49497808431D49F8
:104E200088715A20C87100202049087011E0194883
:104E30001E4A127881184FF6FF7301220B48FEF7C5
:104E400005FB0320FCF7E6F918480078401C1749D9
:104E50000870164800780828E9DB0A20FCF7DAF920
:104E6000ABE7000000000240A0000020A8050020E1
:104E7000DC000020C00200201FFFFFFB0803002011
:104E800080040020C8040020000402401005002017
:104E900001000020880000209000002094000020E5
:104EA0009800002080000020B8000020A100002011
:104EB00070B5002455E02C49A01C085C0A46E11C92
:104EC000515C0843211D515C0843611D515C40EA5F
:104ED00001051046005D5A2841D11146601C085C4E
:104EE000A5283CD1A01D085CA84238D1E01D085C73
:104EF000AA2834D1A01C085C1C4908701146E01C8B
:104F0000085C1A4948701146201D085C17498870D2
:104F10001146601D085C1549C870084690ED000AEE
:104F2000134880ED000A90ED000AF7EE000AB4EE97
:104F3000E00AF1EE10FA0DDD90ED000ADFED0D0A4A
:104F4000B4EEE00AF1EE10FA04D290ED000A0A483D
:104F500080ED000A4FF480610848FCF753FA601CAA
:104F6000C4B2162CA7DD70BDEC0500209C0000200B
:104F700090000020000048435C0000200000024038
:104F80004FF04070E1EE100A704700061016000660
:104F900010160000000000000000010203040607D4
:104FA000080900000000010203040000CC4F0008C3
:104FB00000000020DC000000D0010008A85000081C
:104FC000DC00002094470000EC0100080000000015
:104FD00000000000000000000000000000000000D1
:104FE0000000000000000000000000006F12833A83
:104FF000ACC52737ACC5A736000000000000000094
:105000000000000017B7D13817B7D13800000000F2
:10501000000000000000000000000000CDCCCC3DEE
:10502000000000000000000000000442000000003A
:1050300000000000CDCCCC3D0000000000000000CE
:105040000000000000000000000000000000000060
:10505000000000000000000000000000000004420A
:105060000000C0410000000000000000000000003F
:105070000000000000000000000000000000000030
:105080000000000000000000000000000000000020
:105090000000803F00000000000000001000000041
:0850A000010000000024F400EF
:040000050800019559
:00000001FF
