:020000040800F2
:10000000282E00208901000873250008DD22000841
:10001000712500087F030008392E00080000000049
:10002000000000000000000000000000812A00081D
:10003000E904000800000000052A0008832A0008DF
:10004000A3010008A3010008A3010008A301000800
:10005000A3010008A3010008A3010008A3010008F0
:10006000A3010008A3010008A3010008A3010008E0
:10007000910400089D040008A3010008A9040008D9
:10008000A3010008A3010008A3010008A3010008C0
:100090002D2E0008A3010008A3010008A3010008F9
:1000A000A3010008A3010008A3010008A3010008A0
:1000B000E92A0008F52A0008A3010008A3010008A6
:1000C000A3010008A3010008A3010008A301000880
:1000D000A3010008212E0008A3010008A3010008C5
:1000E000A3010008A3010008A301000800F002F822
:1000F00000F03AF80AA090E8000C82448344AAF188
:100100000107DA4501D100F02FF8AFF2090EBAE885
:100110000F0013F0010F18BFFB1A43F0010318473B
:10012000D8320000F8320000103A24BF78C878C1F5
:10013000FAD8520724BF30C830C144BF04680C60ED
:10014000704700000023002400250026103A28BF35
:1001500078C1FBD8520728BF30C148BF0B60704739
:100160001FB51FBD10B510BD00F0CFF81146FFF749
:10017000F7FF02F099FE00F0EDF803B4FFF7F2FF8D
:1001800003BC00F0F5F80000094880470948004723
:10019000FEE7FEE7FEE7FEE7FEE7FEE7FEE7FEE737
:1001A000FEE7FEE704480549054A064B7047000094
:1001B000E52A0008ED00000828280020282E00204D
:1001C000282A0020282A0020032A40F2308010F03C
:1001D000030C00F0158011F8013BBCF1020F6244E2
:1001E00098BF11F801CB00F8013B38BF11F8013B73
:1001F000A2F1040298BF00F801CB38BF00F8013B20
:1002000011F0030300F04F80083AC0F0088051F865
:10021000043B083A51F804CBA0E80810F5E7121D9A
:100220005CBF51F8043B40F8043BAFF30080D207B9
:1002300024BF11F8013B11F801CB48BF11F8012B85
:1002400024BF00F8013B00F801CB48BF00F8012BA8
:1002500070474FF0000200B5134694469646203989
:1002600022BFA0E80C50A0E80C50B1F12001BFF46F
:10027000F7AF090728BFA0E80C5048BF0CC05DF8D5
:1002800004EB890028BF40F8042B08BF704748BF23
:1002900020F8022B11F0804F18BF00F8012B704797
:1002A00070477047704710B5203AC0F00B80B1E836
:1002B0001850203AA0E81850B1E81850A0E818509B
:1002C000BFF4F5AF5FEA027C24BFB1E81850A0E8A4
:1002D000185044BF18C918C0BDE810405FEA827CBE
:1002E00024BF51F8043B40F8043B08BF7047D207D5
:1002F00028BF31F8023B48BF11F8012B28BF20F876
:10030000023B48BF00F8012B7047754600F02CF8FF
:10031000AE4605006946534620F00700854618B0F2
:1003200020B5FFF73FFFBDE820404FF000064FF03B
:1003300000074FF000084FF0000B21F00701AC461A
:10034000ACE8C009ACE8C009ACE8C009ACE8C00939
:100350008D46704710B50446AFF300802046BDE8D7
:100360001040FFF70ABF000000487047C427002074
:1003700001491820ABBEFEE7260002007047FEE7E9
:100380007FB5274D254E3146286802F0DDFD02F08D
:10039000BFFD04463146686802F0D6FD02F0B8FDA4
:1003A00001462048002240F2013382600360C260AF
:1003B00008220261200E8DF80000200C8DF801004B
:1003C000200A8DF80200080E8DF80400080C8DF844
:1003D0000500080A8DF806008DF803408DF8071017
:1003E000114800E0401E02900E48343000F00CFA34
:1003F00010B902980028F5D10A48343000F004FA08
:1004000000280AD0074903AB6A4601F1340000F026
:10041000A1F8002801D000F068F87FBD00401C461C
:100420001800002070040020A086010000B58BB0E9
:1004300000200122CDE9050248F2200100911104BB
:10044000079001910291CDE90310CDE9082069469A
:10045000044800F0EDF8002801D000F046F80BB099
:1004600000BD0000A404002010B5084800F0D0FB37
:1004700008B100F03AF80221044800F059F80028C9
:1004800003D0BDE8104000F030B810BDA404002037
:10049000014800F05FBC000024050020014800F086
:1004A00059BC00006805002070B50C4800F052FCF3
:1004B0000B4C4FF4806529462288C2F5806083B2D8
:1004C0006380084802F0A0FA20886188084480B25E
:1004D0002080A84201D30020208070BDB4060020F7
:1004E000220000203C000020704772B6FEE70000AA
:1004F00010B5074C08E000BF10F8013B5340DBB2D9
:1005000034F8133083EA1222491EF5D2104610BD8A
:10051000F831000810B5054C04E000BF10F8013BAD
:100520005340E25C491EF9D2104610BDF830000875
:1005300090F82020012A07D0022A05D0416A41F410
:100540008021416201207047006842690A4342618C
:1005500000207047F0B590F820500468A468012D81
:1005600005D0022D03D0416A41F480215DE014F0F2
:10057000406F01D1E50055D5C4F30164022C03D9C5
:10058000416A41F4000150E00125A5401D608D68DD
:100590004FF4C0739DB1CE6835434E6845EAC60539
:1005A000066803EB0417F5514FF4C275076805EBB5
:1005B00004150E697E51097D012905D009E00E88D8
:1005C000CD6845EA4655EBE701684E5946F480761A
:1005D0004E511179D579567941EA056195792D0405
:1005E00045EA062529434FF4C676056806EB04164E
:1005F000A9511178D57841EA0561957852782D0492
:1006000045EA022211434FF4C475026805EB041554
:100610005151006803EB0411425842F0010242506C
:100620000020F0BD416A41F4001141620120F0BD9B
:1006300010B590F820300268012B07D0022B05D0AE
:10064000416A41F480214162012010BDD2F80002CC
:1006500040F00100C2F80002087D00F01F030120F5
:100660009840D2F81C328343C2F81C32CB69B3B92C
:10067000D2F80C328343C2F80C328C894B6864F395
:100680001F434C6902EBC404C4F840320C890B6868
:1006900064F31F434C6902EBC404C4F84432CB69D1
:1006A000012B16D1D2F80C320343C2F80C320C885D
:1006B0004B6864F31F434C6902EBC404C4F8403236
:1006C0000C89CB6864F31F434C6902EBC404C4F883
:1006D00044328B69002BD2F804320FD053EA000366
:1006E000C2F804320B69002BD2F8143208D003434D
:1006F000C2F81432096A012904D008E08343EFE705
:100700008343F5E7D2F81C120143C2F81C12D2F859
:10071000000220F00100C2F80002002010BD704766
:1007200030B590F82040012C05D0022C03D0416A4E
:1007300041F480215DE00468002955D02469A407B4
:1007400054D04FF4D874056804EB01142D5915F0FA
:100750000405956005682D594ED0ED085560056873
:100760002C5904F00204D4604FF4DA74056804EBE9
:1007700001142D5905F00F05156105682D59C5F3B4
:100780000725956105682C59240C54614FF4DC72DF
:10079000046802EB0112A4581C700468A458240ACF
:1007A0005C700468A458240C9C700468A258120E53
:1007B000DA704FF4DE72046802EB0112A4581C7167
:1007C0000468A458240A5C710468A458240C9C7121
:1007D0000468A258120EDA71006881B1016941F013
:1007E00020010161002030BDE468A8E7416A41F4BE
:1007F00000114162012030BD6D0D1560AFE7C16889
:1008000041F02001C160EDE70246002092F820107F
:10081000012901D002290CD111688A68520100D542
:1008200001208A68120100D5401C8968C90000D5E2
:10083000401C70472DE9F05F0546006800244669BA
:10084000D0F804908768D0F80CB0D0F810A0D0F899
:100850001880F10748D0F90714D001218160B8074A
:1008600003D5284600F001FA0CE0780702D54FF4D2
:10087000006407E0380702D54FF4805402E02846B0
:1008800000F0F2F9F80516D529684FF480708860F9
:10089000B80503D5284600F0EAF90CE0780502D542
:1008A00044F4005407E0380502D544F4804402E0E3
:1008B000284600F0DBF9F80316D529684FF480309C
:1008C0008860B80303D5284600F0D3F90CE078031C
:1008D00002D544F4004407E0380302D544F48034E0
:1008E00002E0284600F0C4F9300707D55FEACB6084
:1008F00004D52968102044F40074C86070074FF0D4
:10090000080707D55FEA0B7004D52868C76028463A
:1009100000F05AF9B00706D52868C068800702D0F1
:10092000284600F053F9700607D55FEACA6004D57F
:100930002968102044F480640861B00607D55FEA96
:100940000A7004D528680761284600F05DF9F006B2
:1009500006D528680069800702D0284600F055F9BE
:10096000B00308D55FEAC96005D529681020486042
:10097000284600F04BF9F00307D55FEA097004D56B
:1009800028684760284600F075F9300446D55FEACC
:10099000497040D5F00504D55FEAC87001D044F035
:1009A0000104B00504D55FEA887001D544F0020463
:1009B000700504D55FEA487001D544F004043005A1
:1009C00029D518F0700F26D008F07000402815D0F7
:1009D00006DC102809D020280AD0302816D10AE0D9
:1009E00050280ED0602811D10EE044F008040DE02C
:1009F00044F010040AE044F0200407E044F040040E
:100A000004E044F0800401E044F4807428688169C3
:100A100021F070018161296804204860002C05D014
:100A2000686A204368622846FFF779FEBDE8F09FB8
:100A300070B5040003D094F8200010B104E0012048
:100A400070BD204600F082F82068016841F0010185
:100A5000016000F067FB0546052604E000F062FB3C
:100A6000401B0A2811D820684068C007F6D02068CB
:100A7000016821F00201016000F054FB05460BE023
:100A800000F050FB401B0A2806D9606A40F4003091
:100A9000606284F82060D2E7206840688007EFD465
:100AA000207E0128206801683DD021F0800101608E
:100AB000607E01282068016838D021F04001016083
:100AC000A07E01282068016833D021F02001016058
:100AD000E07E0128206801682ED041F010010160FD
:100AE000207F01282068016829D021F008010160D9
:100AF000607F01282068016824D021F00401016092
:100B0000D4E902010843D4E904121143084361689F
:100B1000491E08432168C86100206062012084F8F2
:100B20002000002070BD41F08001C0E741F040018D
:100B3000C5E741F02001CAE721F01001CFE741F0FD
:100B40000801D4E741F00401D9E7000010B586B0F0
:100B50000021009101910291039100681749884298
:100B60002AD11748C16941F00071C161C16901F022
:100B700000710491816941F0040181618069114C27
:100B800000F0040004904FF4006000906946204695
:100B900000F0CAF9A01400900220019003200390F5
:100BA0006946204600F0C0F900220C21142000F014
:100BB00025FB142000F014FB06B010BD00640040BB
:100BC0000010024000080140704700001CB50C49AD
:100BD000884214D1A1F11C026B4600210848FFF79E
:100BE0009FFD00280BD106481C380068A0F58060E6
:100BF000013804D103499DF8000081F853001CBD61
:100C0000A4040020F82600207047704770470000B9
:100C100070B5044690F82000012804D0606A40F4C2
:100C20000020606218E0022084F82000206801683B
:100C300021F00101016000F075FA05460EE000BFE9
:100C400000F070FA401B0A2808D9606A40F40030AE
:100C50006062052084F82000012070BD2068406893
:100C6000C007EDD1606270BD704770477047704734
:100C700070477047704710B590F821100022022984
:100C800005D00421816380F82020012010BD016877
:100C90000B6823F00E030B6001680B6823F001035F
:100CA0000B6090F84030C46B012101FA03F36360DC
:100CB00080F8211080F82020104610BD10B590F863
:100CC00021100024022903D00421816301243DE086
:100CD00001680A6822F00E020A6001680A6822F0C0
:100CE00001020A601A4A0168914201D1012121E002
:100CF000174A1432914201D110211BE0144A2832C4
:100D0000914201D1891515E0114A3C32914201D13D
:100D100089140FE00E4A5032914202D14FF48031D3
:100D200008E00B4A6432914202D14FF4801101E095
:100D30004FF08071064A083A5160012180F8211075
:100D4000002180F82010416B01B18847204610BD7A
:100D5000080002402DE9F05FC16B0C6801680B6868
:100D6000D0F840C0042202FA0CF2494DDFF824A169
:100D7000494E4A4FDFF828B1DFF828E122422CD053
:100D80005A072AD50A68920603D40A6822F0040298
:100D90000A600168A94201D1042219E0514501D13C
:100DA000402215E0B14202D14FF4806210E0B94216
:100DB00002D14FF480420BE0594502D14FF480221A
:100DC00006E0714502D14FF4800201E04FF08062ED
:100DD0002F4908394A60C16A3BE04FF0020808FA1F
:100DE0000CF818EA040F4FF000094FF0010235D05B
:100DF0005FEA837832D50B689B0605D40B6823F035
:100E00000A030B6080F821200168A94201D1022267
:100E100019E0514501D1202215E0B14202D14FF431
:100E2000007210E0B94202D14FF400520BE0594574
:100E300002D14FF4003206E0714502D14FF40012A6
:100E400001E04FF00072124908394A6080F82090A2
:100E5000816A00291AD0BDE8F05F0847082505FA25
:100E60000CF5254212D01B0710D50B6823F00E039A
:100E70000B6090F84010C36B02FA01F15960826375
:100E800080F8212080F82090016BE2E7BDE8F09F18
:100E9000080002401C0002403000024044000240B2
:100EA000580002406C00024030B528B308C813490E
:100EB00014221944B1FBF2F18900C1631049816326
:100EC000022141771A6843F6F0718A43D0E9001491
:100ED0002143D0E902452C4321430469214344695D
:100EE0002143846921431143196000214163012298
:100EF00042770177084630BD012030BDF8FFFDBFC5
:100F00000000024070B5044600F00CF90546601C74
:100F100002D004480078044400F004F9401BA042C9
:100F2000FAD370BD280000202DE9F84FDFF8B89102
:100F3000002409F1040A0AF1040B23460F270BF1E0
:100F4000040EC9E00125A5402A40AA427DD1674E82
:100F5000D1F804C0ACEB0608B44532D014DCBCF1C7
:100F6000030F3AD009DCBCF1000F2AD0BCF1010F0D
:100F70001CD0BCF1020F31D11DE0BCF1110F17D014
:100F8000BCF1120F2AD119E0B8F5881F19D006DC80
:100F9000B8F5803F15D0B8F5801F1FD111E0B8F526
:100FA000001F0ED0B8F5041F18D10AE0CB6815E079
:100FB000CB681B1D12E0CB6808330FE0CB680C3305
:100FC0000CE08B682BB1012B4FF0080303D0456177
:100FD00004E0042302E0056100E00023FF2A01D8B9
:100FE000064601E000F104064FEA840501D9A5F1A7
:100FF0002005D6F8008007FA05FC28EA0C0803FA59
:1010000005F548EA0508C6F800804D68ED0062D590
:10101000374DAE6946F00106AE61AD6924F00306B6
:1010200005F001050095334D06EB050CDCF8085082
:10103000A607360F07FA06F825EA0805DFF8B88094
:10104000404503D14FF0000817E044E0DFF8AC80E2
:10105000404502D14FF001080FE0DFF8A480404581
:1010600002D14FF0020808E0DFF89880404502D135
:101070004FF0030801E04FF0040808FA06F848EAC8
:101080000508CCF808804D68D9F80060ED034D469E
:1010900001D5164300E096432E604D68DAF80060F3
:1010A000AD03554601D5164300E096432E604D68CA
:1010B000DBF80060ED025D4601D5164300E0964383
:1010C0002E604D68DEF80060AD02754601D516430E
:1010D00000E096432E60641C0D682A46E5407FF4CC
:1010E00031AFBDE8F88F000000040140000011108E
:1010F000001002400000014000080140000C0140C7
:101100000010014000140140C26821EA02030A40B5
:1011100043EA0241016170470AB101617047090465
:10112000FBE70000014880687047000028000020AD
:1011300002488168027811448160704728000020CD
:10114000074810B5016841F010010160032000F06C
:1011500075F80F2000F006F800F024F8002010BD0C
:101160000020024070B50D4D04464FF47A71287886
:10117000B1FBF0F00A490968B1FBF0F000F0ACFBFC
:1011800048B9102C07D200222146501E00F036F834
:1011900000206C6070BD012070BD000028000020A0
:1011A000340000200C4808B5816941F001018161DB
:1011B000816901F001010091C16941F08051C16173
:1011C000C06900F0805000900448416821F0E0615F
:1011D00041F00071416008BD001002400000014074
:1011E000002809DB00F01F02012191404009800026
:1011F00000F1E020C0F8001170470000F0B40E4B81
:101200001B680C46C3F30223C3F10705042D00D964
:101210000425191D072901D2002300E0DB1E012649
:1012200006FA05F1491E214099409E40761E16405F
:101230003143F0BC01F028BE0CED00E0064900F09F
:10124000070208684FF6FF03184040EA0220034AED
:1012500010430860704700000CED00E00000FA0544
:101260002DE9F0470F46050061D0434E306800F08D
:101270000700B84209D2306820F0070038433060D8
:10128000306800F00700B84251D128683B4C810714
:1012900012D5400703D5606840F4E06060602878AC
:1012A000000703D5606840F4605060606068A9681A
:1012B00020F0F000084360602878C00728D06868F4
:1012C000012810D02168022810D0890700292EDAC1
:1012D000616821F0030101436160FFF723FF80464D
:1012E00041F288390DE021688903EFE78901EDE7D4
:1012F000FFF718FFA0EB0801494502D90320BDE81C
:10130000F0876068696800F00C00B0EB810FEFD1E6
:10131000306800F00700B8420BD9306820F00700B1
:1013200038433060306800F00700B84201D0012037
:10133000E5E72878400705D56068E96820F4E060B3
:10134000084360602878000706D56068296920F4A2
:10135000605040EAC100606000F038F86168084AF7
:10136000C1F30311515CC840064908600648006893
:10137000FFF7F8FE0020C2E7002002400010024004
:10138000E0300008340000202C000020044805490B
:1013900000684968044AC1F30221515CC8407047A3
:1013A0003400002000100240F030000804480549D5
:1013B00000684968044AC1F3C221515CC8407047C3
:1013C0003400002000100240F030000812A185B067
:1013D0000FC98DE80F0014A0144A006804905168EA
:1013E000134801F00C03042B10D0082B0ED1C1F3CD
:1013F0008343C9031DF803000AD5516804AAC1F349
:101400004041515C0A4A5043B0FBF1F005B07047CF
:1014100008494843FAE700000203040506070809E3
:101420000A0B0C0D0E0F10100102000000100240FC
:1014300000127A0000093D002DE9F84F040070D039
:101440002078C04DC00749D06868C0F381000128EA
:1014500007D06868C0F38100022809D16868C0031A
:1014600006D52868800339D560680028E7D035E0C4
:101470006068B0F5803F0BD010B1B0F5A02F11D04F
:10148000286820F480302860286820F4802002E05A
:10149000286840F480302860606890B1FFF742FE11
:1014A00006460AE0286840F480202860F0E700BF84
:1014B000FFF738FE801B642873D828688003F7D5AF
:1014C0000CE0FFF72FFE064605E000BFFFF72AFEFF
:1014D000801B6428F0D828688003F7D420789A4EBF
:1014E00080074FF001094FF0000839D5686810F007
:1014F0000C0F07D06868C0F38100022809D1686822
:10150000C00306D42868800714D52069012808D1B3
:1015100010E02069B0B1C6F80090FFF703FE07465F
:1015200005E00AE1FFF7FEFDC01B0228C4D82868C9
:101530008007F7D52868616920F0F80040EAC1000B
:1015400028600DE0C6F80080FFF7ECFD074604E0D8
:10155000FFF7E8FDC01B022823D828688007F7D4CE
:10156000207800072CD57948A169D9B1C0F800903E
:10157000FFF7D8FD074604E0FFF7D4FDC01B0228A3
:101580000FD8686A8007F7D571484FF4FA510068A0
:10159000B0FBF1F0009000BF0098411E0091FAD21C
:1015A0000EE080E0C0F80080FFF7BCFD074604E0D5
:1015B000FFF7B8FDC01B022875D8686A8007F7D40A
:1015C0002078400760D5E8690027C00008D4E869A2
:1015D00040F08050E861E869012700F080500090F9
:1015E0005C480168C90513D40168834641F48071E1
:1015F0000160FFF797FD824606E000BFFFF792FD0E
:10160000A0EB0A0064284ED8DBF80000C005F5D531
:10161000E06801280AD008B1052813D0286A20F014
:1016200001002862286A20F0040002E0286A40F0E5
:1016300001002862E06841F2883B98B1FFF772FD33
:1016400082460BE0286A40F004002862EEE700BF03
:10165000FFF768FDA0EB0A0159455AD8286A8007B0
:10166000F6D50CE0FFF75EFD824605E0FFF75AFD78
:10167000A0EB0A0159454CD8286A8007F6D41FB15F
:10168000E86920F08050E861E06988B36968C1F3D7
:101690008101022944D00228C6F8608004D0FFF7F7
:1016A00041FD044638E034E0FFF73CFD074604E026
:1016B000FFF738FDC01B02282BD828688001F7D41B
:1016C000206AB0F5803F05D16868A16820F4003039
:1016D00008436860D4E908010843696821F474117B
:1016E00008436860C6F86090FFF71CFD044606E0FA
:1016F00025E000BFFFF716FD001B022809D8286867
:101700008001F7D51BE000BFFFF70CFD001B02288E
:1017100002D90320BDE8F88F28688001F4D40EE0D8
:101720000128F7D06868226A00F48031914204D120
:10173000616A00F47010884201D00120EAE70020BD
:10174000E8E70000001002400000424280044242EC
:10175000340000200070004070B5040009D0606AB9
:10176000002540B125616561A56294F8510040B142
:101770000CE0012070BD6068B0F5827FF4D0E561B7
:10178000F2E784F85050204600F040F8022084F838
:1017900051002068016821F040010160A088218982
:1017A00000F4827001F404410843A18901F400614E
:1017B0000843217C01F002010843217D01F0010171
:1017C0000843218B01F400710843217F01F03801A7
:1017D000084394F8201001F080010843218D01F4A2
:1017E0000051084321680860A069042101EA104003
:1017F000216848602068C16921F40061C1616565A4
:10180000012084F85100002070BD0000F0B585B0C3
:101810000024064600940194029403940068294928
:1018200088424CD12848816941F4805181618169A5
:1018300001F480510491816941F004018161806962
:10184000224D00F004000490A0200090022001909E
:101850000320039069462846FFF766FB4020CDE948
:101860000004694628460294FFF75EFB194D1848AC
:101870008027C5E90004C5E902472C616C61AC61B1
:101880002846EC61FFF710FB08B1FEF72EFEF56469
:101890006E62104D0E484435143001C5102091C5BC
:1018A000000245F810496C61C5E90640094844301A
:1018B000FFF7FAFA08B1FEF718FEB5646E6205B0DC
:1018C000F0BD00000030014000100240000801405F
:1018D0001C0002402405002010B5401EB0F1807F9E
:1018E00001D3012010BD4FF0E02460610F2160178B
:1018F00001F0CAFA0020A06107202061002010BD7D
:101900007047704770B590F83C20012A26D001241A
:1019100080F83C40022280F83D2003685A689D68A8
:1019200022F070060A6832435A600D4B02689A42F0
:1019300008D0B2F1804F05D00A4B9A4202D00A4B30
:101940009A4204D1496825F080031943916080F8D8
:101950003D40002180F83C10084670BD022070BD5B
:10196000002C0140000400400008004010B50400B5
:1019700003D094F83D0010B107E0012010BD002015
:1019800084F83C00204600F01FF8022084F83D0057
:10199000211D206801F0B4F8012084F8460084F885
:1019A0003E0084F83F0084F8400084F8410084F849
:1019B000420084F8430084F8440084F8450084F829
:1019C0003D00002010BD000008B501681448B1F1C9
:1019D000804F14D0134A914220D1C16941F00201D5
:1019E000C161C069002200F0020000900A211D20A0
:1019F000FFF704FC1D20BDE80840FFF7F1BBC169FB
:101A000041F00101C161C069002200F001000090B5
:101A10000B211C20FFF7F2FB1C20ECE708BD0000A7
:101A2000001002400004004090F83D10012901D050
:101A300001207047022180F83D100168CA6842F019
:101A40000102CA6000680B49884208D0B0F1804F9B
:101A500005D00949884202D00849884204D18168EA
:101A600001F00701062903D0016841F0010101607E
:101A700000207047002C0140000400400008004096
:101A800070B5044690F83C00012817D0012584F871
:101A90003C50022084F83D002068826822F07702E2
:101AA00022F47F4282600868502830D00DDC202864
:101AB0004DD005DC98B310283BD148E0022070BD22
:101AC000302844D0402834D139E0602828D070280C
:101AD00006D0B0F5805F2CD0B0F5005F29D10AE0C8
:101AE000CB68D1E90121206801F040F820688168C5
:101AF00041F0770109E0CB68D1E90121206801F0CC
:101B000035F82068816841F48041816011E0CA683D
:101B10004968206801F03CF85021206807E016E091
:101B2000CA684968206801F044F86021206801F023
:101B300027F884F83D50002084F83C0070BDCA6846
:101B40004968206801F024F840212068EFE7226806
:101B500001461046EBE7704770B50446006801691E
:101B60004FF00005C943890715D4C168C9438907E7
:101B700011D4E91E01610120207720688069800767
:101B8000204602D0FFF7E7FF04E000F098F8204677
:101B900000F096F8257720680169C943490717D4F2
:101BA000C168C943490713D46FF0040101610220E1
:101BB00020772068806910F4407F204602D0FFF72C
:101BC000CAFF04E000F07BF8204600F079F82577A2
:101BD00020680169C943090716D4C168C9430907C8
:101BE00012D46FF008010161042020772068C069D9
:101BF0008007204602D0FFF7AEFF04E000F05FF858
:101C0000204600F05DF8257720680169C943C906C0
:101C100017D4C168C943C90613D46FF0100101611C
:101C2000082020772068C06910F4407F204602D049
:101C3000FFF791FF04E000F042F8204600F040F882
:101C4000257720680169C943C90708D1C168C9431C
:101C5000C90704D1891E0161204600F033F82068CD
:101C60000169C943090609D4C168C943090605D4F5
:101C70006FF0800101612046FFF742FE2068016994
:101C8000C943490609D4C168C943490605D46FF060
:101C900040010161204600F077F820680169C943DE
:101CA00089060BD4C168C943890607D46FF02001A7
:101CB00001612046BDE87040FFF723BE70BD70474C
:101CC000704700002DE9F041254906460068096883
:101CD000244D88422AD1244C244994F800C0BCF1F8
:101CE000000F14D15A200870A520487020482A6897
:101CF000026002788A704778CF7083780B71C07861
:101D00003A43034348711A438A71AA20C871614457
:101D10004FF6FF730122174800F086FA2078401C26
:101D2000C0B22070082801D3002020703068B0F1C4
:101D3000804F12D1FEF724FB00F01CFC0E4890F8F7
:101D40005300012805D0022805D0032805D10B48EF
:101D500002E00B4800E00B482860BDE8F08100007D
:101D6000F4050020000000202000002008000020D2
:101D7000100000203C060020F826002000005442FD
:101D800000002C4200003C42704770470E4908B5E5
:101D90000122A1F1440000F09BF9002813D0022891
:101DA00011D109480022443801680B684968009144
:101DB000202180F83E1080F83C20BDE80840012238
:101DC000014900F085B908BD80060020F8B5026819
:101DD00004461068D168536910F00F0F4FF00005EA
:101DE00053D003F0010601F4907737435FD0C20768
:101DF00005D0CA0503D5226C42F0010222644207D5
:101E000005D5DA0703D0226C42F002022264820771
:101E100005D5DA0703D0226C42F0040222640207DF
:101E200007D501F02002324303D0226C42F00802B1
:101E30002264226C002A34D0800604D5880602D59C
:101E4000204600F0E8FE20684069216CC0F3801055
:101E5000090700D430B3204600F0C5FE2068416970
:101E600049061BD5416921F040014161A06BA8B131
:101E700058494163A06BFEF721FF002811D0A06BE9
:101E8000416B01B0BDE8F040084783060FD58B06D3
:101E90000DD52046BDE8F84000F0BDBE2046FFF756
:101EA00075FFF8BD2046FFF771FF2564F8BD266B6E
:101EB0002023012E52D1C60650D5CE064ED510682D
:101EC00050680090506940062AD5A16B08684068A8
:101ED0000004000CEAD0A68D8642E7D9E085886927
:101EE000202818D0D06820F48070D0602068416924
:101EF00021F0010141612068416921F04001416107
:101F000084F83E3025632068C16821F01001C1606B
:101F1000A06BFEF7B0FEA08DE18D401A81B219E0F2
:101F2000A08DE18D401A81B2E08D0028BED000293D
:101F3000BCD0D06820F49070D0602068426922F054
:101F40000102426184F83E3025632068C26822F0B5
:101F50001002C2602046FFF718FFF8BD05062BD51A
:101F60000D0629D594F83D002128F6D1A068B0F5DA
:101F7000805F01D12069B0B1206A411C21622168D3
:101F800000784860E08C401E0004000CE084E4D13E
:101F90002068C16821F08001C1602068C16841F0FB
:101FA0004001C160F8BD206A0088C0F3080050609D
:101FB000206A801C2062E5E74006F3D54806F1D58B
:101FC000D168204621F04001D16084F83D3000F016
:101FD00084F9F8BDD72B000870B5040004D094F83C
:101FE0003D00002510B106E0012070BD84F83C5092
:101FF000204600F023F8242084F83D002068C168C2
:1020000021F40051C160204600F060FE20680169A3
:1020100021F4904101612068416921F02A01416168
:102020002068C16841F40051C1602564202084F813
:102030003D0084F83E00002070BD000030B585B042
:102040000024009401940294039400681C4988427F
:1020500033D11C48816941F480418161816901F477
:1020600080410491816941F0080181618069164DC8
:1020700000F008000490402000900220019003200E
:10208000039069462846FEF74FFF8020CDE9000403
:102090000120029069462846FEF746FF0B4841683A
:1020A00041F0E06141F00401416000221146252029
:1020B000FFF7A4F82520FFF793F805B030BD000026
:1020C0000038014000100240000C014000000140B7
:1020D00090F83E30202B0ED159B152B190F83C30DF
:1020E000012B08D0012380F83C300023036300F06B
:1020F00049BE012070470220704700002DE9F84FCB
:10210000DFF8FC80D8F80000C16821F02001C16030
:1021100008F144003B4D02783B484FF0000901783C
:102120006A54491CC9B2017013293ED3DFF8DCA000
:1021300080F80090002428198178C67807794379BF
:102140000A46314347EA030C41EA0C0190F801C00A
:1021500041EA0C0115F804C0BCF1A50F21D190F89B
:1021600006C08C451DD1C0795A281AD12848027062
:1021700046708770C3700068264AA0F50001CAF84F
:102180000000914201D224490860014600F0DCFEC3
:10219000224900F0D9FE2249086010212148FEF7AB
:1021A000B3FF641CE4B20C2CC5D9D8F80000444637
:1021B000C16841F02001C160114901224431104839
:1021C000FFF786FF0E49012244310D48FFF780FFDB
:1021D000002812D0022810D121680A6849680091AD
:1021E000202184F83E1084F83C90BDE8F84F044963
:1021F000012244310248FFF76BBFBDE8F88F0000B1
:102200003C0600203C0400202100002004000020A7
:102210001400002000007041180000200BD1113E76
:102220001C000020000C01402DE9F843044690F802
:102230003D001F4616460D4620284CD1C5B1BEB103
:1022400094F83C00012846D0012084F83C004FF06F
:102250000008C4F84080212084F83D00FEF762FFAA
:10226000A6848146E684A068B0F5805F03D004E0D0
:102270000120BDE8F883206928B12E465FF00005F3
:1022800084F83C800EE00026FAE78021204600F02A
:1022900094FDA0B9AEB116F8010B21684860E08C3E
:1022A000401EE084E08C4B464FF00002009700286F
:1022B000EBD14FF04001204600F07FFD30B103200C
:1022C000D7E735F8020BC0F30800E6E7202084F8D2
:1022D0003D000020CDE70220CBE77047FEE700007D
:1022E0000E4810B50C4901600621416000214FF4F1
:1022F00040328160C0E90312416101764176817606
:10230000C17601774177FEF793FB002803D0BDE843
:102310001040FEF7EAB810BD00640040A40400209D
:10232000114808B5416941F001014161406900224D
:1023300000F00100009002210C20FEF75FFF0C204E
:10234000FEF74EFF002203210D20FEF757FF0D2060
:10235000FEF746FF002211460F20FEF74FFFBDE8B3
:1023600008400F20FEF73CBF0010024030B585B09A
:10237000002000900190029003902648816941F06E
:1023800010018161816901F010010491816941F0BE
:1023900020018161816901F020010491816941F08E
:1023A00004018161816901F004010491816941F0B6
:1023B000080181618069184D00F008000490012235
:1023C00038212846FEF7A8FE4FF460400324CDE9EB
:1023D000000469461148FEF7A7FD48F21F70CDE9D9
:1023E000000469460E48FEF79FFD4FF60770CDE9E1
:1023F000000469462846FEF797FD38200121CDE903
:1024000000010220CDE9021069462846FEF78CFD46
:1024100005B030BD00100240000C0140001001402A
:1024200000080140104810B50E4901604FF4827158
:10243000416000218160C1604FF400720161C0E918
:1024400005122022C0E90721416281620A21C1628E
:10245000FFF782F9002803D0BDE81040FEF745B829
:1024600010BD000000300140CC04002010B586B043
:1024700000241648009401940294039404944FF0AD
:102480008041059401604821C0E901144FF47A713C
:10249000C0E903148461FFF769FA08B1FEF725F873
:1024A0004FF48050009069460848FFF7E9FA08B1F8
:1024B000FEF71BF8049404A904480594FFF722FAD8
:1024C000002801D0FEF711F806B010BDAC050020C1
:1024D00010B586B000241748009401940294039428
:1024E00004941349059401604721C0E9011442F2A4
:1024F0000F71C0E9031480218161FFF737FA08B139
:10250000FDF7F3FF4FF48050009069460948FFF74C
:10251000B7FA08B1FDF7E9FF049404A9054805944A
:10252000FFF7F0F9002801D0FDF7DFFF06B010BD7E
:1025300000040040F40500200C4810B50A49016071
:102540004FF4E1314160002181600C22C160C0E99B
:1025500004128161C161FFF73FFD002803D0BDE88F
:102560001040FDF7C2BF10BD003801403C060020FE
:10257000FEE7FEE72DE9F041FE4E307800287AD0E4
:10258000FD497078FD4D01EB8024617814F8020B51
:1025900001EB002007B22078A5286DD1052F6BDB59
:1025A0000521204600F060FC00287CD06078A178EE
:1025B00000EB01201FFA80F8F078E178401CC0B2EF
:1025C000814204D0D5F8B200401CC5F8B200E078D2
:1025D00008F10901F0708F4266DB204600F02DFC07
:1025E00000287DD06079A17900EB012080B2A0F5B0
:1025F0000071013941D0A0F50071023971D0A0F508
:10260000007103396ED0B0F5017F6CD0A0F5007178
:1026100005392FD0A0F50071063971D0A0F50071F1
:1026200007396ED0B0F5027F6CD0A0F50071093982
:1026300069D0A0F500710A39EBD001287ED00228BC
:102640007DD003287CD00428E3D00528E1D0A0F574
:102650008071013975D0B0F5817F73D0B0F5827F7C
:1026600071D0A0F580710539D3D0D5F8C600401CD3
:10267000C5F8C600A5E1B5E1C1E155F84E0F401C13
:10268000286014F8070F287160786871A078E178E5
:1026900000EB0120E8802079617900EB012028819E
:1026A000A07CE17C01E0A7E1A3E100EB01206881CF
:1026B000207D617D00EB0120A881A07DE17D00EB04
:1026C0000120E881207E617E00EB0120288214F841
:1026D0001A1F15F8120F61F300002870217803E02B
:1026E00082E111E03FE07EE0490861F3410028709B
:1026F00014F82119890861F3820005F8600960E186
:102700005EE079E09AE090E0D5F86100401CC5F801
:102710006100E079217A00EB0120A5F86500607A7C
:10272000A17A00EB0120A5F867009448E17A00F84F
:10273000691F217B4170617B817005E09FE0C2E0F1
:10274000C9E08DE024E133E1A17BC170E07B217C15
:1027500000EB0120A5F86D00607DA17D00EB01205C
:10276000A5F86F002DE1D5F87100401CC5F8710087
:102770008248E17900F8751F217A4170617A817091
:10278000A17AC1707D48E17A00F8791F217B417000
:10279000617B8170A17BC1707848E17B00F87D1F6F
:1027A000217C4170617C8170A17CC1707348E17CA7
:1027B00000F8811F217D4170617D8170A17D32E033
:1027C000D5F88A00401CC5F88A00E17995F88E009A
:1027D00061F3030085F88E00E179090961F30710C0
:1027E00085F88E00EDE0D5F88500401CC5F8850021
:1027F000E07985F88900E4E0D5F88F00401CC5F841
:102800008F00E07985F89700207A85F89800607A43
:1028100085F899005948A17A00F89A1FE17A417029
:10282000217B8170617BC170CBE0D5F8AA00401C90
:10283000C5F8AA00607AC5F8AE00C2E0D5F8A200DB
:10284000401CC5F8A200607AA17A00EB0120A5F82F
:10285000A600E07A217B00EB0120A5F8A800B0E0FB
:10286000A86B401CA863E079A17A227A00EB016092
:10287000617A090401EB02210844E863A1E02868B9
:10288000401C2860E179287961F303002871E1791F
:10289000090961F307102871207A617A00EB0120A1
:1028A000A5F80500A17AE971E17A2972217B6972A4
:1028B000617BA972A17BE972E17B2973217C697339
:1028C000617CA9737DE0D5F80F00401CC5F80F00AE
:1028D000E079E87475E06869401C686114F8070FD6
:1028E000617800EB01202883A078E17800EB0120DB
:1028F00068832079617900EB0120A883A079E179D0
:1029000000EB0120E883207A617A00EB0120288423
:10291000A07AE17A00EB01206884207B617B00EBE8
:102920000120A884A07BE17B00EB0120E884207CCF
:10293000617C00EB01202885A07CE17C00EB01207C
:102940006885207D617D00EB0120A885A07DE17D6B
:1029500000EB0120E885207E617E00EB01202886C7
:10296000A07EE17E00EB01206886207F617F00EB86
:10297000012005E038000020F8060020F82600209D
:10298000A886A07FE17FE41F00EB0120E88618E025
:10299000286C401C2864E07985F84400207A85F88A
:1029A0004500607A85F84600A07A85F8470008E07F
:1029B000A86C401CA864E07985F84C00207A85F862
:1029C0004D00A7EB08000938444407B20934002F32
:1029D0003FF7E1AD7078401C00F007007070307870
:1029E000401E3070BDE8F08155F8C20F401C2860D1
:1029F000F0E755F8BE0FF9E755F8BA0FF6E755F8C6
:102A0000B60FF3E7704700002DE9F0411D460E4672
:102A10000746934201D3A81A01E0501B301A030461
:102A20001B0C27D0144C2078082823D2DFF84CC088
:102A3000A078190A0CEB80200170B91843709542F8
:102A400001D91A460BE0B21A1646E046801CFDF783
:102A5000BBFBA1782A4608EB812030443946801C14
:102A6000FDF7B2FBA078401C00F00700A0702078B2
:102A7000401C2070BDE8F08138000020F8060020DE
:102A80007047FEF755BB30B58FB028216846FDF77B
:102A9000E0FB14210AA8FDF7DCFB01210804CDE9C5
:102AA00000100024029402250491CDE907504FF450
:102AB000E01009906846FEF7BFFC08B172B6FEE769
:102AC0000F20CDE90A054FF48060CDE90C400221CA
:102AD0000AA80E94FEF7C4FB002801D072B6FEE7E8
:102AE0000FB030BD704700000148FFF735B8000057
:102AF000AC0500200148FFF72FB80000F4050020C6
:102B0000F0B50268164B174C174D4FF080479842AE
:102B100005D0B84203D0A04201D0A84203D122F090
:102B200070064A683243984205D0B84203D0A042AA
:102B300001D0A84203D122F44074CA6822434C69F0
:102B400022F08002224302608A68C2620A688262BE
:102B5000984201D10969016301214161F0BD000082
:102B6000002C0140000400400008004010B58468BB
:102B700042EA032224F47F440A432243826010BDC8
:102B8000826822F070020A4342F0070181607047B8
:102B900010B5036A046A24F001040462846924F015
:102BA000F00444EA021423F00A020A438461026238
:102BB00010BD10B5036A23F0100303628369046A31
:102BC00023F4704343EA023224F0A00343EA0111E4
:102BD0008261016210BD10B5406A0021C185C184C7
:102BE000FFF7D4F810BD0168CA6822F49072CA6079
:102BF00001684A6922F001024A61016B012904D18E
:102C00000168CA6822F01002CA60202180F83E10D4
:102C100000210163704708B590F83E10222901D0C9
:102C2000022008BD82684FF480539A4201D10169A5
:102C300021B1816A9A421BD04AB10AE00268816AD6
:102C40005268C2F308020A80816A891C08E002699E
:102C500072B10268526802F07F020A70816A491CF0
:102C60008162C18D491E0904090CC18503D019E098
:102C700002685268F1E70168CA6822F02002CA605F
:102C80000168CA6822F48072CA6001684A6922F049
:102C900001024A61202180F83E10016B012903D016
:102CA000FFF72CFA002008BD002101630168CA6803
:102CB00022F01002CA6001680A68D20602D50A68CA
:102CC00049680091818DFFF760F8EBE770B5044625
:102CD00000680169E26821F44051114301612169F2
:102CE000A0680843616908432168CA6841F20C631F
:102CF0009A430243CA6020684169A26921F4407185
:102D0000114341611E492068884202D1FEF74EFB03
:102D100001E0FEF73BFB00EBC00101EB0012606835
:102D200064218000B2FBF0F3B3FBF1F36FF01806FF
:102D30007343B2FBF0F5B2FBF0F605EB83053223EB
:102D400003EB0515B5FBF1F5B6FBF1F605F0F00563
:102D500005EB0615B2FBF0F6B2FBF0F0B0FBF1F0BC
:102D60006FF01802504306EB800003EB0010B0FB3D
:102D7000F1F0216800F00F002844886070BD000069
:102D80000038014081628285C285002101642222CF
:102D900080F83E2080F83C100168CA6842F48072D6
:102DA000CA6001684A6942F001024A610068C1686C
:102DB00041F02001C160002070472DE9F0419846A4
:102DC00017460E460446069D1DE0681C1BD02DB11B
:102DD000FEF7A8F9A0EB0800A84214D92068C16842
:102DE00021F4D071C1602068416921F00101416185
:102DF000202084F83D0084F83E00002084F83C0048
:102E00000320BDE8F0812068006836EA000004D0A5
:102E10000020B842D9D00020F3E70120F9E70000F4
:102E20000148FEF7D3BF00003C0600200148FDF733
:102E300001BD0000A4040020FEE730B50C460546A5
:102E40004FF6FF72891EFDF753FB2919C2B211F824
:102E5000023C9A4206D111F8011CB1EB102F01D1AE
:102E6000012030BD002030BD30B50C460546FF22A4
:102E7000491EFDF74FFB291911F8011C814201D1B0
:102E8000012030BD002030BD0907090E002804DBF9
:102E900000F1E02080F80014704700F00F0000F10E
:102EA000E02080F8141D7047FEF74AF9FFF7EBFDAC
:102EB000FFF75CFAFFF734FAFFF7B4FAFFF73CFBD1
:102EC000FFF706FBFFF70CFAFFF7D0FA0B48FEF707
:102ED000ABFD0B49A5200870FDF7A8FAFDF7C4FA71
:102EE0000848FEF7A1FD4FF4FA60FEF70BF8012247
:102EF00005490648FFF7ECF8FEE70000F40500205E
:102F000008000020AC050020800600203C060020C0
:102F100041000B0ED3F19E0208D950F400034FEA92
:102F2000032323FA02F048BF4042704710B500F077
:102F30008CF800BF49922480002070476FF0004257
:102F400082EA2000704700004FF47F0C1CEAD01288
:102F50001EBF1CEAD11392EA0C0F93EA0C0F00F08B
:102F6000478090EA010F48BF42F480724FF0004C56
:102F70004CEA00204CEA012102EB0302A0FB011302
:102F8000A2F50002002918BF43F001035B0028BF2F
:102F90004FEA330342EB22425FEA132C4CEBC25060
:102FA0002EBFBCEB436FB2F57C0F70474FEA036C4A
:102FB000BCF1004F08BF20F00100B2F57C0F38BF14
:102FC00070470BD582F0FF0212F5803FC8BF7047F3
:102FD00000F1C040D8BF00F00040704700F5000C81
:102FE0005FEA4C0C48BF7047B0F1C04000F073B8C6
:102FF00090EA010F0CEAD11348BF42F48072624597
:1030000038BF634504D280EA010000F000407047F9
:1030100010B500F01AF800BF8900013E00F007B8B3
:1030200000F009B85FEA410C5FEA1C6C08D080EA46
:10303000010000F050B85FEA400C5FEA1C6CF6D16A
:103040004FF00040A0F5800070470EF1020E2EF008
:10305000030E5EF8044B244204D44FEA4102B2F15D
:103060007F4F11D84FEA4003B3F17F4F0CD80ED1F8
:103070004FEAD07CB2F17F4F0CEB4C0C0CF1020C00
:1030800008BF4CEBD17C04E04FF0080C01E04FEAA4
:10309000D17C0CEB4C0324FA03F404F00704B4F1E4
:1030A000040C06D20EEB840CBDE810404CF0010C71
:1030B0006047DFE80CF0070802024FF00040A0F57F
:1030C000800010BD0846420018BFD2F1807288BF50
:1030D00000F0004010BDFF2141EAD050C00570470C
:1030E00000000000000000000102030406070809B8
:1030F0000000000001020304005EBCE2613FDD83CA
:10310000C29C7E20A3FD1F419DC3217FFCA2401EC7
:103110005F01E3BD3E6082DC237D9FC1421CFEA0B7
:10312000E1BF5D0380DE3C62BEE0025CDF81633DA7
:103130007C22C09E1D43A1FF4618FAA427799BC597
:1031400084DA3866E5BB5907DB856739BAE4065887
:103150001947A5FB7826C49A653BD987045AB8E677
:10316000A7F91B45C6987A24F8A6441A99C7257B67
:103170003A6486D85B05E7B98CD2306EEDB3510F57
:103180004E10F2AC2F7193CD114FADF3702ECC9247
:10319000D38D6F31B2EC0E50AFF1134DCE90722C37
:1031A0006D33D18F0C52B0EE326C8ED0530DEFB127
:1031B000F0AE4C1291CF2D73CA947628ABF5174917
:1031C0000856B4EA6937D58B5709EBB536688AD407
:1031D00095CB2977F4AA4816E9B7550B88D6346AF7
:1031E0002B7597C94A14F6A8742AC896154BA9F7E7
:1031F000B6E80A54D7896B350000891112239B3237
:103200002446AD573665BF74488CC19D5AAFD3BEB6
:103210006CCAE5DB7EE9F7F88110080193331A22C6
:10322000A5562C47B7753E64C99C408DDBBF52AE96
:10323000EDDA64CBFFF976E802218B3010029913A6
:103240002667AF763444BD554AADC3BC588ED19F76
:103250006EEBE7FA7CC8F5D983310A209112180386
:10326000A7772E66B5543C45CBBD42ACD99E508F56
:10327000EFFB66EAFDD874C904428D5316619F7056
:103280002004A9153227BB364CCEC5DF5EEDD7FC36
:103290006888E1997AABF3BA85520C4397711E6046
:1032A000A1142805B3373A26CDDE44CFDFFD56EC16
:1032B000E9986089FBBB72AA06638F7214409D5126
:1032C0002225AB343006B9174EEFC7FE5CCCD5DDF6
:1032D0006AA9E3B8788AF19B87730E6295501C4106
:1032E000A3352A24B1163807CFFF46EEDDDC54CDD6
:1032F000EBB962A8F99A708B088481951AA793B6E6
:103300002CC2A5D33EE1B7F04008C919522BDB3AD5
:10331000644EED5F766DFF7C899400859BB712A6A5
:10332000ADD224C3BFF136E0C1184809D33B5A2AB5
:10333000E55E6C4FF77D7E6C0AA583B41886919785
:103340002EE3A7F23CC0B5D14229CB38500AD91B95
:10335000666FEF7E744CFD5D8BB502A49996108765
:10336000AFF326E2BDD034C1C3394A28D11A580B75
:10337000E77F6E6EF55C7C4D0CC685D71EE597F435
:103380002880A1913AA3B3B2444ACD5B5669DF7855
:10339000600CE91D722FFB3E8DD604C79FF516E425
:1033A000A9902081BBB332A2C55A4C4BD7795E6835
:1033B000E11C680DF33F7A2E0EE787F61CC495D505
:1033C0002AA1A3B03882B193466BCF7A5448DD5915
:1033D000622DEB3C700EF91F8FF706E69DD414C5E5
:1033E000ABB122A0B9923083C77B4E6AD5585C49F5
:1033F000E33D6A2CF11E780F18340008000000200D
:103400003C00000028010008543400083C00002063
:10341000EC2D000044010008000020420000C041E3
:10342000000000000000000000000000000000009C
:10343000000000000000000000000000000000008C
:103440000100000010000000000000000024F40053
:043450000000000078
:04000005080000ED02
:00000001FF
