:020000040800F2
:10000000008800203104000891BF0008F17E00083C
:10001000D9BE0008491F0008E1E800080000000000
:100020000000000000000000000000004304000881
:10003000F9230008000000003D050008F504000851
:100040004B0400084B0400084B0400084B04000854
:100050004B0400084B040008012400081124000888
:100060004B0400084B0400084B040008511F000813
:100070004B040008591F0008611F00084B040008CA
:100080004B0400084B0400084B040008F924000846
:100090001925000809250008292500084B04000837
:1000A0004B0400084B0400084B0400084B040008F4
:1000B0004B0400084B0400084B0400084B040008E4
:1000C0004B0400084B0400084B0400084B040008D4
:1000D0004B04000809E5000851E6000821E7000884
:1000E0004B0400084B040008000000004B0400080B
:1000F0004B0400084B0400084B0400084B040008A4
:100100004B0400084B0400084B0400084B04000893
:10011000E1C9000821CA00084B0400084B0400088C
:10012000711F0008A91F00084B0400084B040008B9
:100130004B0400084B0400084B0400084B04000863
:1001400000000000000000000000000000000000AF
:100150004B0400084B0400084B0400084B04000843
:100160004B0400084B0400084B0400084B04000833
:100170004B0400084B0400084B040008000000007A
:100180004B0400084B04000879CA00084B0400081F
:100190004B0400084B0400084B0400084B04000803
:1001A0004B0400084B0400084B0400084B040008F3
:1001B0004B0400084B0400084B0400084B040008E3
:1001C0004B0400084B0400084B0400084B040008D3
:1001D0004B0400084B0400084B0400084B040008C3
:1001E0004B0400084B0400084B0400084B040008B3
:1001F0004B0400084B0400084B0400084B040008A3
:100200004B0400084B0400084B0400084B04000892
:100210004B0400084B04000889C400084B04000884
:100220004B0400084B0400084B04000800000000C9
:100230004B0400084B040008000000004B040008B9
:100240004B0400084B0400084B0400084B04000852
:100250004B0400084B0400084B0400084B04000842
:100260004B0400084B0400084B0400084B04000832
:100270004B0400084B0400084B0400080000000079
:100280004B0400084B0400084B0400080000000069
:10029000000000004B04000800F002F800F0B8F87D
:1002A0000AA090E8000C82448344AAF10107DA45D1
:1002B00001D100F0ADF8AFF2090EBAE80F0013F06B
:1002C000010F18BFFB1A43F00103184734D6010091
:1002D00064D601000A444FF0000C10F8013B13F003
:1002E000070408BF10F8014B1D1108BF10F8015B8F
:1002F000641E05D010F8016B641E01F8016BF9D182
:1003000013F0080F1EBF10F8014BAD1C0C1B09D1D8
:100310006D1E58BF01F801CBFAD505E014F8016B4A
:1003200001F8016B6D1EF9D59142D6D370470000DC
:100330000023002400250026103A28BF78C1FBD8EE
:10034000520728BF30C148BF0B6070476E2900F0CC
:10035000BD84702900F0018666291CF07A82652927
:100360001CF0778267291CF0748261291CF073826B
:1003700003681B0A28BF41F08001692900F06A84E4
:10038000642900F06784752900F064846F2900F007
:100390008F85782900F0CD85E92900F02985E429A9
:1003A00000F02685F52900F02385EF2900F08C85E3
:1003B000F82900F0CC850368DB0928BF41F08001F3
:1003C000632901F04783732901F04C83E32901F08D
:1003D0005783F32901F05C83002070471FB51CF0A0
:1003E00026FA9DE8030000F06BFB01F0EBFB040034
:1003F000002000211BF0A0FE401C606000200021B6
:100400001BF0B0FEE06000F029FB1FBD10B510BD71
:1004100001F0B2FB1146FFF7E1FF1AF0A1FE01F077
:1004200087FC03B4FFF7F2FF03BC00F0B3FE00004B
:100430000948804709480047FEE7FEE7FEE7FEE778
:10044000FEE7FEE7FEE7FEE7FEE7FEE704480549B4
:10045000054A064B7047000059C30008990200087E
:10046000007800200088002000800020008000200C
:100470000000000848680020001000E0FF5207005C
:100480000000FF4000BF00BF00BF00BF00BF00BFB3
:1004900072B64FF0E0205FF82810C0F8081D5FF832
:1004A0002C005FF83410096801605FF834000168BF
:1004B00041F0010101604FF0E0205FF84010416120
:1004C0004FF0070101614FF00001C0F8181D4FF017
:1004D0007F41C0F81C1D5FF85810C0F8201D704700
:1004E000FFF7FEBFFFF7FEBFFFF7FEBF01B5BDE898
:1004F0000140704701B500F08BF8BDE8014070473E
:10050000FFF7FEBFFFF7FEBF000000000000000085
:100510004FF000002A4A1060EFF3148020F004002E
:1005200080F3148862B64FF080504FF0E021C1F89C
:10053000040DBFF34F8FBFF36F8FFEE72148224AB0
:100540004FF00003016891B10360EFF3098C2CE9CF
:10055000F00F1EF0100F01D12CED108A1B4C4CF83F
:1005600004ED2568C1F808C00DB18D61236072B635
:100570001168B1B1016062B64F68144C8D6907F122
:1005800001074F602560D1F808C05CF804EB1EF04D
:10059000100F01D1BCEC108ABCE8F00F8CF3098875
:1005A000704772B61168016009B962B6F9E74FF099
:1005B00000674FF0E028C8F8047D62B6DCE77047BA
:1005C000C4190020A8190020AC190020D41900205B
:1005D000026922F00702A2F144026FF002031360E5
:1005E0004FF0000353609360D360136153619361D4
:1005F000D361136253629362D362136353634FF008
:10060000FF339363D1634FF080731364826070474C
:100610002249086800F101000860214B1A683AB1CC
:10062000A2F101021A601AB91E4B4FF001001860C6
:100630001D490868026822B11C4B4FF001021A6084
:1006400008E000F104001A4B1A68904201D1194BDE
:1006500018680860134B1A6812B914490868D0B1B9
:100660002DE901401149086808B118F0FDFB0D4B58
:100670001A6872B118F098FB0F48016849B90F4821
:1006800001680F4A13680F484FF08052994200D01A
:100690000260BDE80140BFF34F8F7047D0190020C2
:1006A000D4190020D8190020E8190020DC190020F6
:1006B000EC190020E4190020C4190020A81900201A
:1006C000AC19002004ED00E070B5064600F0D8F942
:1006D000056806F10B0020F00704B4429CBF00201F
:1006E00070BD2B466A68BAB11068A04210D304F1FD
:1006F000080188423CBF5068586007D35168101900
:1007000041601168091B016058601460101D70BDC4
:1007100013465268002AE7D12146284600F0BCF96A
:100720000028DED170BD53EA020C00F069802DE98B
:10073000F04B4FF00006002B1FBFB3FA83F503FA0E
:1007400005F424FA05F65E4012BF1643B2FA82F5AC
:1007500002FA05F4C5F120051EBF22FA05FC44EAA1
:100760000C04203556EA044C4FEA144418BF641CAC
:100770004FF000084FF00009904271EB030C39D3A1
:10078000002919BFB1FA81F701FA07F6B0FA80F72C
:1007900000FA07F6C7F120071EBF20FA07FC46EA59
:1007A0000C062037B6FBF4FCA7EB0507103F07F05B
:1007B0001F0BCBF120062CFA06F60CFA0BFB44BFFC
:1007C000B3460026202FA4BF5E464FF0000B5BEA25
:1007D000060C08BF4FF0010B19EB0B0948EB06089C
:1007E000ABFB027C06FB02CC0BFB03CCC01B71EB0A
:1007F0000C01C1E70B46024641464846BDE8F08B76
:1008000013B5084318BF4FF0FF300146AFF3008027
:10081000BDE81C40704700007CB51D4616460C0024
:10082000009007D04142A14202D32044401E01E083
:100830004FF0FF30064B7B442A4669460190304614
:1008400000F05DFA002C02D0009A002111707CBDEE
:10085000EB040000032A40F2308010F0030C00F09B
:10086000158011F8013BBCF1020F624498BF11F8EA
:1008700001CB00F8013B38BF11F8013BA2F10402A3
:1008800098BF00F801CB38BF00F8013B11F003031B
:1008900000F02580083AC0F0088051F8043B083A7F
:1008A00051F804CBA0E80810F5E7121D5CBF51F821
:1008B000043B40F8043BAFF30080D20724BF11F89B
:1008C000013B11F801CB48BF11F8012B24BF00F800
:1008D000013B00F801CB48BF00F8012B704710B571
:1008E000203AC0F00B80B1E81850A0E81850B1E8E9
:1008F0001850A0E81850203ABFF4F5AF5FEA027C28
:1009000024BFB1E81850A0E8185044BF18C918C057
:10091000BDE810405FEA827C24BF51F8043B40F8F8
:10092000043B08BF7047D20728BF31F8023B48BFDD
:1009300011F8012B28BF20F8023B48BF00F8012B1B
:1009400070474FF000020429C0F0128010F0030C31
:1009500000F01B80CCF1040CBCF1020F18BF00F8B2
:10096000012BA8BF20F8022BA1EB0C0100F00DB861
:100970005FEAC17C24BF00F8012B00F8012B48BFBF
:1009800000F8012B70474FF0000200B51346944663
:100990009646203922BFA0E80C50A0E80C50B1F1D7
:1009A0002001BFF4F7AF090728BFA0E80C5048BFEB
:1009B0000CC05DF804EB890028BF40F8042B08BF89
:1009C000704748BF20F8022B11F0804F18BF00F885
:1009D000012B70470000000030B44FF0013C50F88C
:1009E000042BCCFA52F451F8043BD51A20D1FCB9AF
:1009F00050F8042BCCFA52F451F8043BD51A17D115
:100A0000B4B950F8042BCCFA52F451F8043BD51A7F
:100A10000ED16CB950F8042BCCFA52F451F8043BC7
:100A2000D51A05D1002CDAD030BC4FF00000704749
:100A300029BAB1FA81F111F01801D1F120008440F6
:100A4000F2D1CA40CB4012F0FF0213F0FF0330BCDA
:100A5000D01A7047704770477047000070B5064C59
:100A60007C44064D7D4404E02046016808448047EC
:100A7000241DAC42F8D170BDF8CF010000D00100B8
:100A80000048704770170020004870476817002022
:100A9000704770477047704738B504460A460020D3
:100AA0006946AFF30080002808BF38BD02460099B0
:100AB000204600F081FB012038BD012001F017B86D
:100AC000F8B5AFF30080054600200C46102000BFAB
:100AD0000646A819A0420DD9324669460020AFF358
:100AE0000080070008BF01F002F80098A04218BF7C
:100AF0000546C419FFF7C4FF05600746F01D20F046
:100B000007004619284600F00AF8B44208BFF8BDAD
:100B1000A21B31463868BDE8F84000F04DBB00210B
:100B20000160C0E9011070471020704770B504469D
:100B3000051FFFF7A5FF0068002C14BF446870BDB7
:100B4000002C18BFAC423CBF20466468F8D3016853
:100B50000A18AA4218BF456003D12A680546114405
:100B6000016028684119A1421CBF6C6070BD6168BA
:100B7000696021680844286070BD10B5FFF784FFE4
:100B8000006810BD10B50446FFF77EFF046010BD7D
:100B900070B5044685690068C10601D5302600E0BD
:100BA0002026C00707D070BDD4E901213046904708
:100BB000206A401C20626D1EF6D570BD70B50446DB
:100BC00085690078C00707D170BDD4E901212020D4
:100BD0009047206A401C20626D1EF6D570BD0968E2
:100BE0004A0501D540B27047C905FCD500B270472F
:100BF00009684A0501D5C0B27047C905FCD580B265
:100C0000704770B50C460546012A05D02878800645
:100C100000D5EA69002302E0012305E05B1C934252
:100C200002D2E05C0028F9D1A869E618C01AA861D0
:100C3000286A184428622846FFF7AAFF04E0D5E98D
:100C4000012114F8010B9047B442F8D32846FFF76E
:100C5000B5FF70BD2DE9F0410646002410687529E6
:100C6000314616A510D0FFF7BAFF002802DA40423D
:100C700013A507E031688A0701D512A502E04907EC
:100C800004D511A5012401E0FFF7B2FF00210A22DB
:100C900006F1240709E0B0FBF2FCB0FBF2F302FB23
:100CA0001C00303078541846491C0028F3D12346E4
:100CB0002A463046BDE8F04100F0DDBA00000000F1
:100CC0002D0000002B0000002000000011680268C9
:100CD000006A530501D508700AE0D30501D50880E4
:100CE00006E0130603D5C217C1E9000200E0086060
:100CF0000120704701694A1C02610878704700B5FD
:100D00008FB0CDE901310021059105497944CDE944
:100D100003101146684600F02BF90FB000BD00002B
:100D2000E5FFFFFFD1E900239A4202D2531C0B607A
:100D3000107070472DE9FF5F15468A460446DFF8BC
:100D4000AC80F8440027D8E900103E46CDE90010F9
:100D500010E03AF816106A4602A800F09DFE411C09
:100D600007D02178890603D5E269391891420DD858
:100D70000744761C2078800602D5E069B84205DD7C
:100D8000AE42E6DB3AF816000028E2D1A069C01BAB
:100D9000A0612046FFF7FCFED8E90010CDE9001065
:100DA000002017E03AF818106A4602A800F074FE16
:100DB000B0F1FF3F81460BD000250DF1080B05E097
:100DC000D4E901211BF8050090476D1C4D45F7D370
:100DD00008F10100B0428046E4DB206A384420621A
:100DE0002046FFF7EBFEBDE8FF9F000016BB0100A9
:100DF0002DE9F0418046D21D22F007020025D2E9FC
:100E00000002F52915A614D0011E72F1000106DAC0
:100E10000023D0EB030063EB020211A608E0D8F830
:100E200000108B0701D50FA602E0490701D50EA6D9
:100E300001251146002408F1240704E000F0D6F94A
:100E400030323A55641C50EA0102F7D12B46324643
:100E500021464046BDE8F04100F00DBA0000000018
:100E60002D0000002B0000002000000030B4002105
:100E700000F1240408E002F00705D208303542EA08
:100E80004372DB086554491C52EA0305F3D1046838
:100E9000002310A2250708D504F020040C4304D039
:100EA000C46901230CA2641EC46130BC00F0E3B924
:100EB00010B5044621461068FFF79AFE0246204608
:100EC000BDE810400023D1E7D21D22F00701D1E98F
:100ED0000023CBE70000000030000000F0B40D4616
:100EE0000188090502D5214C7C4402E01F4C7C445A
:100EF0000E34002100F1240608E002F00F07120969
:100F0000E75D42EA03721B097754491C52EA030762
:100F1000F3D102780023120704D5702D06D009B151
:100F2000022311342246F0BC00F0A5B9012310348D
:100F3000F8E770B504460D4621461068FFF758FEE5
:100F4000024629462046BDE870400023C6E7D21D70
:100F500022F00703D3E90023C0E70368126843F0D7
:100F6000200303600823C3610023B7E778B90100B9
:100F70002DE9F05F894604464FF0000ADFF874B1AE
:100F8000FB44C0F820A02046E1688847002874D0C0
:100F9000252806D0D4E901219047206A401C206210
:100FA000F1E700265F462046E1688847202805468D
:100FB00007DB312D05D2781910F8200C08B1064353
:100FC000F1E7B00701D526F00406C4F81CA00027FD
:100FD000C4F818A02A2D09D028461BF087F838B38A
:100FE00004EB8708303DC8F8185019E059F8041B85
:100FF000204604EB87029161E1688847012F05468E
:1010000018D1E069002820DA26F020061DE0D8F883
:10101000180000EB800005EB40003038C8F81800DD
:101020002046E168884705461BF060F80028EED1AD
:10103000012F0AD02E2D08D12046E16888477F1C59
:101040000546022F46F02006C4DBA069002803DA1B
:10105000404246F00106A061F00701D026F01006DC
:101060006C2D0BD0682D09D04C2D39D06A2D35D080
:10107000742D35D07A2D33D016E038E0E1682F4654
:1010800020468847B842054609D16C2F26D04FF438
:101090008060E168064320468847054604E06C2FDF
:1010A0001AD04FF4807006430DB3A5F14100192802
:1010B00002D8203546F400664A4629462046266076
:1010C0004E46FFF743F980B101280BD0F61D26F0FC
:1010D000070000F1080956E74020E4E78020D8E740
:1010E0000020D6E706F104094DE7284652E7206ABA
:1010F000BDE8F09F08B9010010B5002000F0F0FC39
:10110000FFF784F9BDE81040012000F043B8431A0E
:1011100028BF9A427FF69EAB10441144032A40F246
:10112000268010F0030F1EBF11F8013D521E00F87B
:10113000013D10F0030F7FF4F6AF11F0030300F050
:10114000F084083AC0F00B8051F8043D083A51F899
:1011500004CD40F8043D40F804CDFFF7F3BF121D65
:101160005CBF51F8043D40F8043DAFF30080D20766
:1011700024BF11F8013D11F801CD48BF11F8012C31
:1011800024BF00F8013D00F801CD48BF00F8012C54
:101190007047000001491820ABBEFEE726000200A0
:1011A000004870476817002010B500F00BFD001DC7
:1011B00010BD00BF85AF0100034640688C46002883
:1011C00018BF88423CBF03464068F8D318681844EB
:1011D000884207D00CF1030020F00700001D411ADF
:1011E000521A0146081D0A60FFF7A0BC30B5B0F1E5
:1011F0000A0271F100034FEA900E4EEA817EB0EBD5
:101200000E0061EB91014FEA101E4EEA017E10EBD9
:101210000E0041EB11114FEA102E4EEA016E10EB59
:101220000E0041EB11214FEA104E4EEA014E10EB39
:101230000E0041EB1141401841F100014FEAD0008E
:1012400040EA41704FEAD1014FEA810444EA9074C8
:1012500010EB800544EB01046D1944EB0404521BB0
:10126000A3414FF0000348BF0A3200D530BD401CF7
:1012700041F1000130BD2DE9F0470D4699469246F7
:10128000044600F124080168880604D5E06921F0CD
:101290001001216000E00120A84201DD471B00E0B1
:1012A0000027A1697A1902EB0900081AA0612078C9
:1012B000C00602D42046FFF76BFC002608E0D4E904
:1012C00001211AF806009047206A401C761C206213
:1012D0004E45F4DB2078C0060AD52046FFF758FCBF
:1012E00006E0D4E9012130209047206A401C2062AA
:1012F000381EA7F10107F4DC07E0D4E9012118F852
:1013000005009047206A401C2062281EA5F10105B7
:10131000F3DC2046FFF752FC2078000602D50220BD
:10132000BDE8F0870120FBE72DE9FF4F0C461E4684
:101330004FF0FF378BB0D2E90001DDF860800A90F2
:101340008A46C1F30A5505B93D46002108464FF0CB
:101350000000BAF1000F00F4400005DA00EB800055
:101360004FF4400101EA50004FEA9059B9F1010FE2
:1013700000DDB9460A9850EA4A000ED044F61050F3
:10138000A5F2FF3545432F14B8F1000F1ED075426A
:10139000291E1EDDC9F100021CE0B8F1010F4FF05B
:1013A000000001D0302103E0F24305E02154401C4D
:1013B000B042FBDB30460022002121540B99C1F8DA
:1013C0000880C1E900200FB0BDE8F08FBD1B6D1C87
:1013D000DEE74A4600DA694206A800F037FC06ABB1
:1013E00093E8070003AB83E8070050460A9919F019
:1013F000FBFF8DE80700A0F500501F380090039810
:10140000002D0ADD42F21F014A460844002303A9C9
:10141000039068461AF064FA09E0A0F500504A46C5
:101420001F38002303A9039068461AF06EFA8DE86E
:1014300007000004000C03D04FF0FF30410800E02B
:101440001046B8F1000F03D00022009215461EE0AE
:10145000751E05D4FFF7CAFE303262556D1EF9D5F0
:10146000B3460122084302D000227F1C04E020780A
:10147000302801D100227F1E002A099784D01DE068
:10148000112D07DAFFF7B2FE303262556D1C50EABB
:101490000102F5D1084302D00098C8B10EE0002146
:1014A000681E05E0235C625C63542254401E491CA4
:1014B0008142F7DBAB46A81B401E0990002004F8D0
:1014C0000B000B98099AC0F80880C0E9002B7AE756
:1014D00011264FF0000857E72DE9F04F88460446E3
:1014E000D21D22F0070191B0D1E90001CDE90A0136
:1014F0001AF042FB02460B98C00F01D02D2007E0E6
:101500002068810701D52B2002E0202101EAC000DC
:10151000032A099001D0072A05DB034641462046ED
:1015200000F054FB0BE12078800601D5E06900E073
:101530000620B8F1650F814606D0B8F1660F18D0C5
:10154000B8F1670F70D131E00020B9F1110F0090B0
:1015500001DB112301E009F101030AAA01A90CA88A
:10156000FFF7E2FEDDE90C70002609F10105834674
:1015700047E001204B4600904FF000470AAA01A91E
:101580000CA8FFF7D1FEDDE90DB00C995D460026F1
:1015900010B909F101000D18B9EB050003D4C0F131
:1015A000FF3609F10105A5EB09002BE0B9F1010FA8
:1015B00001DA4FF001090020B9F1110F00904846FF
:1015C00001DD112300E003460AAA01A90CA8FFF7D8
:1015D000ABFEDDE90C704D460026834620780007FF
:1015E0000AD4AB4500DA5D4601A8012D04DD41199E
:1015F00011F8011C302907D04F4502DA17F1040F0A
:1016000004DA012082460FE06D1EEEE7002F02DCB7
:10161000ED1B3E4403E0781CA84200DD7D1CB81B96
:1016200000F1010A4FF000472078000703D4AA45D3
:1016300001DB4FF0FF3A0021B7F1004F0DF14308F5
:101640008DF8431024D002202B23002F01DA7F4293
:101650002D230A21021EA0F1010000DC5FB197FBDF
:10166000F1FC97FBF1F201FB1C7C17460CF1300CEE
:1016700008F801CDEEE7A8F1010003702188090503
:1016800001D5452100E06521A0F1010800F8011C09
:1016900009980FA9A1EB0807FF1D00B1012041190E
:1016A00001EBEA70A1693844081A401EA061207855
:1016B000C00602D42046FFF76BFA099828B1D4E996
:1016C00001219047206A401C20622078C00622D564
:1016D0002046FFF75DFA1EE0002E04DBB34502DD75
:1016E00001A8805D00E03020D4E901219047206A04
:1016F000401C2062761CAAF101005FEA000A0AD1B0
:1017000000F060FAC0680168405CD4E901219047AC
:10171000206A401C2062281EA5F10105DCDC07E0E0
:10172000D4E9012118F8010B9047206A401C20627F
:10173000381EA7F10107F3DC2046FFF73FFA03202C
:1017400011B041E62DE9F04F04460D46D21D22F0BE
:10175000070089B0D0E90097484639461AF00CFADC
:101760000246F80F01D02D2307E02068810701D53C
:101770002B2302E0202101EAC0038DF820300BB1B9
:10178000012000E00020032A824601D0072A04DB62
:101790002946204600F01AFA3FE12078800601D45D
:1017A0000D2500E0E569C7F30A560D2D49DA002141
:1017B0004FEA175B08464FF00000002F00F440008E
:1017C00007DA00EB80004FF4400100EBD07001EA33
:1017D00060008115012901DD4FF0FF3100224FEA41
:1017E000850CBCF1180F06D31346ACF118004FF06E
:1017F0008052C24003E04FF4801323FA0CF30CF143
:101800000C0CBCF1200F04D3ACF1200C09FA0CF045
:1018100001E007FA0CF000294FF0004801DD18B98B
:101820000FE00ED140450CD319EB02095F4121B9FD
:10183000404502D19F4329EA0209BBEB175F00D064
:10184000761C2088000502D57B48784402E07A485F
:101850007844193808AA302302F80A30037C0AF1C8
:101860000101002E0AF1020A53546A4602DC4FF0CD
:10187000300101E04FF031014FF001088DF8001008
:1018800002D0A6F2FF3603E059EA470100D06B4EC2
:10189000002D02DC2178090704D54FF002082E2123
:1018A0008DF80110C44600210BE0C7F303433F014C
:1018B000C35C491C6D1E02F80830052908F10108B7
:1018C00001DA002DF1DC00210CE000EB1973491C5A
:1018D0001B786D1E082902F808304FEA091908F133
:1018E000010801DA002DF0DC21688B0602D516E034
:1018F000A8F10108E04505DD02EB080313F8013CFF
:10190000302BF5D0B8F1000F09DD02EB080313F816
:10191000013C2E2B03D1090701D4A8F10108002DA9
:1019200005DD3E2102F808106D1E08F10108407C1B
:10193000002E02F8080008F1010804DA2D20764292
:1019400002F8080002E02B2002F808000A214FF4F8
:101950007A70864208F101080BDB96FBF0F3303316
:1019600002F8083096FBF0F308F1010800FB13665B
:1019700001E0642E0CDB642096FBF0F3303302F8B8
:10198000083096FBF0F308F1010800FB136601E054
:101990000A2E06DB96FBF1F0303002F8080008F161
:1019A000010896FBF1F001FB1060303002F80800EE
:1019B000A16908F1010808EB050202EB0A00081A08
:1019C000A0612078C00602D42046FFF7E1F8216A22
:1019D00008AE01EB0A00206204E0D4E9012116F808
:1019E000010B9047BAF1010AF7D22078C00602D560
:1019F0002046FFF7CDF86E4609E016F8010B3E28A9
:101A00000FD0D4E901219047206A401C2062B8F130
:101A10000108F2D22046FFF7D1F809B00320BDE853
:101A2000F08F206A2844206203E0D4E901213020AD
:101A300090476D1EEBD3F8E762B0010002FCFFFF98
:101A400010B5436913B1AFF3008001E0FFF7D9F897
:101A5000012010BD127800F124010A7000224A70A2
:101A60000122EDE711684FF0FF32E9E710B5436955
:101A700013B1AFF3008001E0FFF75CF9012010BD66
:101A8000128800F1240182840022C2840122EDE741
:101A900011684FF0FF32E9E72DE9F04116460C4698
:101AA0000546FFF781FB036893F80101012807D081
:101AB000FF2C12D8185D80B101202C70BDE8F08198
:101AC000D3F807013246214603F20713C718284608
:101AD000BC46BDE8F041002360474FF0FF30EDE722
:101AE00010B500F033F9BDE8104000F02AB910B588
:101AF00000F044F9BDE8104000F023B9431A28BFB4
:101B00009A427EF6ECAE1044114410F0030F1EBF53
:101B100011F8013D521E00F8013D10F0030F7FF453
:101B2000F6AF103AC0F00A8010B531E9185020E93C
:101B30001850103ABFF4F9AFBDE81040530724BF66
:101B400031E9081020E9081044BF51F8043D40F87D
:101B5000043D12F0030F08BF7047D20728BF31F8C9
:101B6000023D48BF11F8012C28BF20F8023D48BFB4
:101B700000F8012C704770477546FFF711FBAE4621
:101B800005006946534620F00700854618B020B589
:101B9000FEF75CFCBDE820404FF000064FF0000768
:101BA0004FF000084FF0000BAC46ACE8C009ACE8C1
:101BB000C009ACE8C009ACE8C00921F007018D46B6
:101BC0007047000000487047881700202DE9F04159
:101BD0001F46044603260168072A01F4006004DB5F
:101BE00008B116A505E016A503E008B115A500E0AB
:101BF00015A521F010002060A069C01EA0610FB1E2
:101C0000401EA0612046FEF7C3FF4FB1D4E9012179
:101C100038469047206A401C2062C01C206206E0C3
:101C2000206AFAE7D4E9012115F8010B9047761EE6
:101C3000F8D22046FEF7C2FFBDE8F0814E414E00CB
:101C40006E616E00494E4600696E66002DE9F047F0
:101C5000814616468AB0354878440DC88DE80D0097
:101C600032487844801C03AC0DC884E80D0041F66E
:101C70009B300844372190FBF1F290FBF1F5A5F180
:101C8000800501FB12041B3C02D56442012000E0E8
:101C90000020DFF898A080460027FA44AAF1BE0A87
:101CA0000EE0E0070AD03246684607EB4701012301
:101CB0000AEB810119F029FE8DE8070064107F1CF2
:101CC000002CEED1194F7F44AE3F19E0E80715D044
:101CD00007EB04100DF1180A90E80E008AE80E00D8
:101CE000C068F04201D1981908903246012306A934
:101CF00003A819F00AFE03AB83E807006D10641C0B
:101D0000002DE3D14FF0010332466946B8F1000FD0
:101D100003A802D019F0E4FD01E019F0F6FDC9E9CD
:101D20000001C9F808200AB0BDE8F087E4AC010062
:101D300010B50446AFF300802046BDE81040FEF722
:101D400070BB002801D0FFF725BA704710B50021FD
:101D500002A000F03BF8012010BD000053494741AC
:101D60004252543A2041626E6F726D616C2074650C
:101D7000726D696E6174696F6E00000010B50128A4
:101D800005D0002103A000F021F8012010BD09A119
:101D9000F8E7000053494752544D454D3A204F75DE
:101DA00074206F662068656170206D656D6F727953
:101DB000000000003A2048656170206D656D6F720B
:101DC0007920636F727275707465640070B5054632
:101DD0000C460A2000E06D1C00F011F835B128789F
:101DE0000028F8D102E0641C00F009F814B1207852
:101DF0000028F8D1BDE870400A20AFF3008008B594
:101E000069468DF800000320ABBE08BD000000004D
:101E1000B0B50446006842F2001140F48070C4F28C
:101E20000201884218D142F20830C4F20200006870
:101E300010F4403F18D003F06FFE61680546B1F51D
:101E4000803F05D0B1F5403F2CD0B1F5003F2AD1FD
:101E5000080CB5FBF0F526E046F20830C5F60200A6
:101E6000006810F4403FE6D14FF40020002103F059
:101E7000FBFB61680546A1F580224FEAB2420A2ABF
:101E800011D8DFE802F00707070707075153555736
:101E9000590000BF6FF0010000EA5140B5FBF0F5BA
:101EA00001E000BFAD0803F083F841F2030188426E
:101EB0000ED8206842F60151C0F231118D4281687E
:101EC0002CBF41F4807121F480718160B0BD00BFEE
:101ED0004BF62140C0F2BE00854205D820688168DB
:101EE00021F440718160B0BD47F64100C0F27D1021
:101EF000854207D820680122816862F30921816048
:101F0000B0BD00BF20684FF28101C0F2FA218D42BE
:101F1000816805D8022262F309218160B0BD00BF4B
:101F200041F440718160B0BD2D09BCE76D09BAE78D
:101F3000AD09B8E7ED09B6E72D0AB4E700000000E7
:101F40000020704700000000FEE7000000000000D5
:101F50007047000000000000704700000000000013
:101F600041F21040C2F20000043014F079BD0000CC
:101F700040F20841C4F2020151F8080C800607D46F
:101F8000042008600820086001200860704700BF36
:101F90002020086041F2CC708A68C2F2000022F072
:101FA00001028A6017F0FCBA41F24450C2F200000C
:101FB000006814F055BD000040F20F42D0F800C098
:101FC000C4F20202944511DC6F22C4F2020294456D
:101FD00022DC3F22C4F20202944539DC1022C4F212
:101FE000020294455AD0282254E000BF40F26F42CA
:101FF000C4F2020294451BDC40F23F42C4F20202EA
:1020000094452DDC40F21042C4F20202944545D0C2
:1020100040F228423EE000BF9F22C4F202029445F3
:1020200028DC7022C4F20202944537D0882231E0C5
:1020300040F29F42C4F20202944523DC40F2704217
:10204000C4F20202944529D040F2884222E000BF47
:102050004022C4F20202944520D058221AE000BF68
:1020600040F24042C4F20202944517D040F2584276
:1020700010E000BFA022C4F2020294450ED0B822A4
:1020800008E000BF40F2B842C4F20202944505D015
:1020900040F2A042C4F20202944517D10CF0F802BB
:1020A0004AF6AB23103ACAF6AA23A2FB03310AA3CD
:1020B0005F2AC1F302115B5C40F2FF312CEA01019F
:1020C000C36588BF04318165084670472CF0FF0165
:1020D00081650846704700BF0006101600061016FE
:1020E00070B540F26F44D0F800C0C4F20204D0F8DA
:1020F00058E0A4451ADC9F25C4F20205AC4533DC48
:102100005725C4F20205AC455ADC1025C4F202057D
:10211000AC4500F098802825C4F20205AC4500F0DB
:1021200092804025C4F202058AE000BF45F22F45A7
:10213000C5F60205AC452DDC40F2B745C4F20205F8
:10214000AC454BDC40F27045C4F20205AC457AD098
:1021500040F28845C4F20205AC4574D040F2A04577
:10216000C4F202056CE000BF40F22745C4F202054C
:10217000AC4543DCA025C4F20205AC4563D0B825CC
:10218000C4F20205AC455ED040F21045C4F202052F
:1021900056E000BF45F26B45C5F60205AC453FDC95
:1021A00045F23045C5F60205AC454CD045F24445F4
:1021B000C5F60205AC4546D045F258453EE000BFA5
:1021C0005825C4F20205AC453DD07025C4F2020585
:1021D000AC4538D08825C4F2020531E040F2B8455C
:1021E000C4F20205AC452ED045F20845C5F60205FD
:1021F000AC4528D045F21C4520E000BF40F2284500
:10220000C4F20205AC451ED040F24045C4F20205BE
:10221000AC4518D040F25845C4F2020510E000BFAA
:1022200045F26C45C5F60205AC450CD045F2944527
:10223000C5F60205AC4506D045F28045C5F6020557
:10224000AC4540F0D580456EC66E002E866E6E6041
:102250001CBFD0E91C566E60A44515DC9F24C4F257
:102260000204A4452CDC5724C4F20204A44551DC2A
:102270001024C4F20204A4457AD02824C4F2020433
:10228000A44575D040246FE045F22F44C5F6020402
:10229000A44529DC40F2B744C4F20204A44545DC5D
:1022A00040F27044C4F20204A44561D040F2884474
:1022B000C4F20204A4455BD040F2A04454E000BF45
:1022C00040F22744C4F20204A4453FDCA024C4F237
:1022D0000204A4454CD0B824C4F20204A44547D05B
:1022E00040F2104440E000BF45F26B44C5F60204E2
:1022F000A44555DC45F23044C5F60204A44561D03E
:1023000045F24444C5F60204A4455BD045F2584466
:1023100054E000BF5824C4F20204A44528D070241D
:10232000C4F20204A44523D088241DE040F2B8443E
:10233000C4F20204A4451BD045F20844C5F60204C9
:10234000A4453FD045F21C4438E000BF40F2284489
:10235000C4F20204A4450BD040F24044C4F202048B
:10236000A44505D040F25844C4F20204A4453FD12C
:102370008468C06D00F01F003F2505FA00F0CEF81C
:102380000800DCF80000402C20F48020CCF800008D
:10239000CCF8043023D0CCF80810CCF80C2070BD59
:1023A00045F26C44C5F60204A4450BD045F28044C6
:1023B000C5F60204A44505D045F29444C5F60204CE
:1023C000A44515D1C46D806804F01F040125402880
:1023D00005FA04F4CEF80440CCF8043004D1CCF86B
:1023E0000820CCF80C1070BDCCF80810CCF80C20EC
:1023F00070BD0000000000007047000000000000F9
:1024000088200121C5F6000001607047000000002F
:1024100010B541F2D844C2F20004206800684C3084
:1024200014F0AEFF206800684C3014F0EDFF206817
:102430000168B1F9582091ED1A1A00EE102AB1F98D
:102440005A2091ED242AB8EEC00A91EE402A00EEFF
:10245000102AB1F95C20B8EEC00A80ED012A91ED96
:102460001A1A91ED252A91EE402A00EE102AB1F9B0
:102470005E20B8EEC00A80ED022A91ED1A1A91EDA5
:10248000262AA1EE002A00EE102AB1F96020B8EE4B
:10249000C00A80ED032A91ED1B1A91ED212A91EEDD
:1024A000402A00EE102AB1F96220B8EEC00A80ED91
:1024B000042A91ED1B1A91ED222A91EE402A00EE9A
:1024C000102AB8EEC00A80ED052A91ED1B1A91ED95
:1024D000232A0221A1EE002A80ED062A8820C5F6D3
:1024E0000000016010BD0000EFF3108072B600BF65
:1024F000FEE700000000000046F62020C2F20000C7
:1025000001F002BF0000000046F62020C2F20000E9
:1025100001F0FABE0000000046F6C020C2F2000042
:1025200001F0F2BE0000000046F6C020C2F200003A
:1025300001F0EABE00000000B0B582B090F8502073
:10254000012A03D10221084602B0B0BD42F208328E
:1025500000230193C4F202020093A2F542740368BF
:10256000A34227D14FF6006E4FF60055CFF6FF7EFF
:10257000CFF6FF7552F80E40535923435B0719D429
:10258000D1F800C01368BCF1000F23F440441DD003
:102590004B6823431360535952F80E502B43DB070B
:1025A00022D1136840F61F75AB438968194341EA8D
:1025B0000C0116E0416D41F020014165012100222E
:1025C00080F85020084602B0B0BD00BF14605159D9
:1025D00052F80E301943C90708D1116840F61F732D
:1025E000994311600021EAE70021E8E70021E6E7CE
:1025F000F0B581B00022009290F85020012A03D15A
:102600000221084601B0F0BD0768012380F8503070
:10261000BB685B0700F178810B684FF6FF7CB3F174
:10262000FF3FC0F20F0C11DD93FAA3F413EA0C0F75
:10263000B4FA84F44FF0010208BF9C0E9B0E04F024
:102640001F04A240FC692243FA6100E09B0E4A6825
:102650001F2603F01F03C2F3012402F01F0296405D
:1026600007EB840403FA02F2256B25EA06063243DF
:102670002263BA68BB6802F0040203F00803D218B0
:1026800078D10A6807258E68C2F34063C2F304520A
:1026900007EB830395405C6906FA02F224EA05051C
:1026A0002A435A6141F20002C5F60042126802F064
:1026B0007042B2F1805F33D14A69FB680E2606EAA8
:1026C000530302FA03F30C69042C39D007F16002BA
:1026D0000E6806F0F84652F82450334305F00045E2
:1026E0002B4342F824300B694E7E52F82350012EC2
:1026F00025F0004508BF05F1004542F823500A7E49
:102700000B693E69013A03F01F03B2FA82F226F424
:10271000F0465209D2029A4032433A612AE000BFA1
:10272000FA684B69FE68D2064FEA560402D404F0F8
:102730000E0201E004F0080293400C69042CC5D19C
:102740003A6E0B6802F0F8429B069A4240D07A6ECD
:1027500002F0F8429A4244D0BA6E02F0F8429A422D
:1027600048D0FA6E02F0F8429A4203D1FA6E22F093
:102770000042FA66BA68D20728D1CA680B6802F02C
:10278000180503EA0C042CFA05F540F2000CD7F802
:10279000C060C4F2FF7CA6431D40624545EA0602C4
:1027A000C7F8C02056D17CB393FAA3F2B2FA82F2F2
:1027B000013202F01E03092B02F01F032DD8012263
:1027C00003EB43069A4042EA065332E00021A0E0C0
:1027D0003A6E22F000423A667A6E02F0F8429A426D
:1027E000BAD17A6E22F000427A66BA6E02F0F842EE
:1027F0009A42B6D1BA6E22F00042BA66FA6E02F080
:10280000F8429A42B2D0B5E7012202EB936202F09D
:102810001E030A2B02F01F03D1D3012203EB430650
:102820009A400023CFF6206303EB06531A4342F08D
:102830000073C3F340620725C3F304538E6807EBAC
:1028400082029D40546906FA03F324EA05052B43EE
:1028500053610B68B3F1FF3F02DD002159E000BF77
:1028600042F2000146F2083CC4F20201C5F6020C35
:1028700001F5807201F542769742624608BF324602
:102880008F4242F2001508BF324647F48076C4F208
:102890000205AE4214682FD18A68D1F8081111439D
:1028A000C90731D1002104F0E07ECCF684318B429F
:1028B00008BF14F4000133D00021CCF252718B42D6
:1028C00008BF14F0807131D00021CCF6B8718B4272
:1028D0004FF000011DD114F4800204BFACF5427228
:1028E000974216D1DCF8001021F0E07141EA0E01A8
:1028F00041F480015EE000BF4FF60051CFF6FF715A
:102900005CF80110C907CDD0416D41F0200141654F
:102910000121002280F85020084601B0F0BD00BF20
:10292000ACF542718F4207D00021F2E7ACF542715D
:102930008F4237D00021ECE7DCF8001042F66352FA
:1029400021F0E071C0F23E5241EA0E0141F4000173
:10295000CCF8001041F20841C2F20001096889096F
:10296000A1FB02129109022202EB410100910099A0
:1029700021B3009901390091009909B300990139F7
:1029800000910099F1B10099013900910099D9B1F4
:10299000009901390091009900294FF00001E8D118
:1029A000B7E700BFDCF8001021F0E07141EA0E014A
:1029B00041F08071CCF800100021AAE70021A8E7BF
:1029C0000021A6E70021A4E70021A2E70000000003
:1029D00070B582B0044600284FF00000019009D085
:1029E000606D58B120688168890012D48168C9007F
:1029F00019D54AE00126304602B070BD204600F0ED
:102A00001FF90020A06584F85000206881688900C3
:102A1000ECD54FF6C0728168C5F6FF721140816037
:102A20008168C90031D44FF6C0718268C5F6FF7164
:102A300001F18051114042F6635201F180518160F1
:102A400041F20841C0F23E52C2F200010968890910
:102A5000A1FB0212012101EB921101E00199013960
:102A60000191019989B1019901390191019961B1EE
:102A7000019901390191019900291FBF019901397B
:102A80000191019918BF0029E8D18168C90009D4D2
:102A9000616D012641F010016165A16D41F00101F8
:102AA000A16500E000268168626D02F0100201F06D
:102AB00004018918616D40F0918021F48171023127
:102AC00061658168C90728D142F2001240F4807123
:102AD000C4F20202914242F20001C4F2020140F04B
:102AE000A5808A68D1F808311A43D20715D101F5BB
:102AF000807201F5427346F2080C9042C5F6020C52
:102B00001A4618BF0CF54072884208BF1A46606822
:102B1000116821F47C110843106002F049FA41F277
:102B2000030100228842A068A0F1100188BF0122A1
:102B3000B1FA81F1237F49091140226B617D15466D
:102B400016BF4D034A031C20012B45EA034141EA0D
:102B5000020141EA000106D1206A0022CFF6FE728E
:102B600002EB40400143606A20B100F47870A26A31
:102B70001043014320684CF20303CFF6F073C268A0
:102B80001A401143C1608168826801F0040102F0BB
:102B90000802891836D1217D44F20305E26AC36830
:102BA00042EA813123EA05021143C16094F83810EA
:102BB000012901691AD14FF61E020125CFF6004204
:102BC000CFF6FF751140D4E90F231943636C05EB71
:102BD00002421143A26C1943114309E041F0100075
:102BE00001266065304602B070BD00BF21F00101D2
:102BF00001610169626B21F070411143016120465E
:102C0000FFF706F92068E1680129026B22F00F0145
:102C100002D1A269013A114301630121606D61F3A0
:102C200001006065304602B070BD00BF46F2080288
:102C3000C5F602021268D2073FF459AF6DE70000F3
:102C400080B586B042F200020068C4F202020021A0
:102C500090420591049101D006B080BD44F2D84065
:102C60000223C5F6020050F8802C63F3114240F8AD
:102C7000802C026842F020020260026802F020020A
:102C80000092009A826842F001028260806800F03F
:102C9000010000900098802001900320CDE90201FE
:102CA000002001A9C5F6020002F0AAF806B080BD16
:102CB0002DE9F041044602F083F91CB3054694F86F
:102CC0003500022822D140F20F462768C4F20206DE
:102CD00040F26F48B7426FF00E00C4F202081DDCEC
:102CE0006F21C4F202018F422ADC3F21C4F20201AB
:102CF0008F4241DC1021C4F202018F4263D02821AF
:102D00005CE000BF0120BDE8F08100BF802060656D
:102D10000120002184F83410BDE8F08147451BDC18
:102D200040F23F41C4F202018F422DDC40F21041DB
:102D3000C4F202018F4246D040F228413EE000BF7B
:102D40009F21C4F202018F4228DC7021C4F20201EB
:102D50008F4238D0882131E040F29F41C4F2020115
:102D60008F4223DC40F27041C4F202018F422AD02C
:102D700040F2884122E000BF4021C4F202018F42AC
:102D800021D058211AE000BF40F24041C4F20201B4
:102D90008F4218D040F2584110E000BFA021C4F289
:102DA00002018F420FD0B82108E000BF40F2B841C5
:102DB000C4F202018F4206D040F2A041C4F20201E7
:102DC0008F42394607D13946386820F01E0041F855
:102DD000140B6FF080000A68474500EA02000860A3
:102DE0001ADC9F20C4F20200874233DC5720C4F271
:102DF000020087425ADC1020C4F20200874200F031
:102E000097802820C4F20200874200F09180402081
:102E1000C4F202008AE000BF45F22F40C5F602006E
:102E200087422DDC40F2B740C4F2020087424BDCFF
:102E300040F27040C4F20200874279D040F28840EC
:102E4000C4F20200874273D040F2A040C4F20200F4
:102E50006CE000BF40F22740C4F20200874243DC2E
:102E6000A020C4F20200874262D0B820C4F202005F
:102E700087425DD040F21040C4F2020056E000BF2D
:102E800045F26B40C5F6020087423FDC45F2304018
:102E9000C5F6020087424BD045F24440C5F6020019
:102EA000874245D045F258403EE000BF5820C4F26A
:102EB000020087423CD07020C4F20200874237D023
:102EC0008820C4F2020031E040F2B840C4F20200AF
:102ED00087422DD045F20840C5F60200874227D030
:102EE00045F21C4020E000BF40F22840C4F202003E
:102EF00087421DD040F24040C4F20200874217D002
:102F000040F25840C4F2020010E000BF45F26C40AD
:102F1000C5F6020087420BD045F29440C5F6020088
:102F2000874205D045F28040C5F60200874204D1B1
:102F3000206E016821F480710160386820F0010082
:102F4000386000BF3868C00710D002F039F8401B65
:102F50000628F7D320206065032084F8350001207F
:102F6000002184F83410BDE8F08100BF2068B04231
:102F700010DC6F21C4F2020188421DDC3F21C4F243
:102F80000201884234DC1021C4F20201884255D08B
:102F900028214FE040451BDC40F23F41C4F20201D2
:102FA00088422DDC40F21041C4F20201884245D033
:102FB00040F228413EE000BF9F21C4F20201884256
:102FC00028DC7021C4F20201884237D0882131E028
:102FD00040F29F41C4F20201884223DC40F270417A
:102FE000C4F20201884229D040F2884122E000BFA9
:102FF0004021C4F20201884220D058211AE000BFCB
:1030000040F24041C4F20201884217D040F25841D8
:1030100010E000BFA021C4F2020188420ED0B82106
:1030200008E000BF40F2B841C4F20201884205D076
:1030300040F2A041C4F2020188425BD1D4E91612E9
:1030400002F01F023F2303FA02F28A6040455BDC74
:103050009F21C4F20201884214DC5721C4F202010C
:10306000884227DC1021C4F20201884200F0A280CD
:103070002821C4F20201884200F09C804021C4F261
:10308000020195E040F22741C4F2020188421FDCB0
:10309000A021C4F20201884200F08C80B821C4F261
:1030A0000201884200F0868040F21041C4F2020121
:1030B0007EE000BF5821C4F2020188427AD070211C
:1030C000C4F20201884275D08821C4F202016FE087
:1030D00040F22841C4F2020188426BD040F24041E4
:1030E000C4F20201884265D040F25841C4F20201A4
:1030F0005EE000BFD4E9161202F01F02012303FABA
:1031000002F24A604045A3DD45F22F41C5F60201B7
:10311000884217DC40F2B741C4F20201884227DC42
:1031200040F27041C4F20201884243D040F288412B
:10313000C4F2020188423DD040F2A041C4F2020133
:1031400036E000BF45F26B41C5F6020188421FDC44
:1031500045F23041C5F6020188422BD045F2444188
:10316000C5F60201884225D045F258411EE000BF55
:1031700040F2B841C4F2020188421BD045F2084136
:10318000C5F60201884215D045F21C410EE000BF91
:1031900045F26C41C5F6020188420BD045F29441DC
:1031A000C5F60201884205D045F28041C5F602010C
:1031B00088420BD1616EA26EE06E4A6030B1016848
:1031C00021F480710160D4E91C014160012084F880
:1031D00035000020002184F83410BDE8F0810000A3
:1031E00080B5D8B190F83510022919D140F20F42BC
:1031F0000168C4F20202914216DC6F23C4F202039A
:10320000994227DC3F23C4F2020399423EDC10239B
:10321000C4F2020399425FD0282359E0012080BD07
:1032200080214165012080BD40F26F43C4F202035A
:1032300099421BDC40F23F43C4F2020399422DDC69
:1032400040F21043C4F20203994245D040F22843B1
:103250003EE000BF9F23C4F20203994228DC7023A2
:10326000C4F20203994237D0882331E040F29F43F1
:10327000C4F20203994223DC40F27043C4F2020319
:10328000994229D040F2884322E000BF4023C4F293
:103290000203994220D058231AE000BF40F2404375
:1032A000C4F20203994217D040F2584310E000BF25
:1032B000A023C4F2020399420ED0B82308E000BF55
:1032C00040F2B843C4F20203994205D040F2A04351
:1032D000C4F20203994275D191424FF0040280F882
:1032E000352011DC6F20C4F20200814222DC3F2035
:1032F000C4F20200814239DC1020C4F20200814293
:1033000059D0282054E000BF40F26F40C4F20200C0
:1033100081421BDC40F23F40C4F2020081422DDCBE
:1033200040F21040C4F20200814244D040F22840F2
:103330003EE000BF9F20C4F20200814228DC7020E2
:10334000C4F20200814236D0882031E040F29F4032
:10335000C4F20200814223DC40F27040C4F2020059
:10336000814228D040F2884022E000BF4020C4F2D1
:10337000020081421FD058201AE000BF40F24040B6
:10338000C4F20200814216D040F2584010E000BF63
:10339000A020C4F2020081420DD0B82008E000BF96
:1033A00040F2B840C4F20200814204D040F2A04092
:1033B000C4F202008142086820F001000860002089
:1033C00080BD00BF0A6822F00E020A6045F2574233
:1033D000C5F6020291420A6822F001020A600FDC7F
:1033E00045F22F42C5F60202914219DC45F208422D
:1033F000C5F60202914229D045F21C4222E000BFEC
:1034000045F27F42C5F60202914213DC45F2584272
:10341000C5F60202914219D045F26C4212E000BF9B
:1034200045F23042C5F6020291420FD045F24442C5
:1034300008E000BF45F29442C5F60202914205D071
:1034400045F28042C5F6020291421AD1D0E9181C19
:10345000D0E916E30A6822F480720A6003F01F01C3
:10346000012202FA01F1CEF80410816ECCF80410AA
:10347000C16E31B10A6822F480720A60D0E91C1270
:103480004A60012180F83510026D002180F8341067
:103490000AB190470021084680BD000000000000EE
:1034A000406D7047000000002DE9F041044601F036
:1034B00087FDFCB140F26F4805462068C4F202085F
:1034C00040451BDC9F21C4F20201884232DC5721B7
:1034D000C4F20201884259DC1021C4F20201884280
:1034E00000F083802821C4F20201884200F07D8030
:1034F000402175E00120BDE8F08100BF45F22F4179
:10350000C5F60201884229DC40F2B741C4F202014B
:10351000884247DC40F27041C4F20201884264D024
:1035200040F28841C4F2020188425ED040F2A041DC
:1035300056E000BF40F22741C4F20201884241DC5C
:10354000A021C4F2020188424FD0B821C4F2020186
:1035500088424AD040F2104142E000BF45F26B4140
:10356000C5F60201884200F3C18045F23041C5F63C
:103570000201884200F0CD8045F24441C5F60201C7
:10358000884200F0C68045F25841BDE05821C4F29F
:103590000201884229D07021C4F20201884224D05D
:1035A00088211DE040F2B841C4F2020188421CD0DB
:1035B00045F20841C5F60201884200F0AA8045F2B2
:1035C0001C41A1E040F22841C4F2020188420CD023
:1035D00040F24041C4F20201884206D040F2584114
:1035E000C4F20201884240F02981022184F835109A
:1035F000002184F83410016821F00101016000BF4E
:1036000020680168C9070DD001F0DAFC401B0628CC
:10361000F6D320206065032084F835000120BDE842
:10362000F08100BF48F23F0204F108060168CFF6BE
:10363000106211406CCE1143A2691943E36929431A
:10364000256A0E43616A3343042943EA050343EACA
:10365000020303D1D4E90B652E43334341F2000644
:10366000C5F600463668B6F1005F1DD36668A6F160
:103670002905292D18D8DFE805F01515151515159C
:1036800017171717171717171717171717171717CA
:1036900015151515171717171515171717171717C6
:1036A0001515151543F4801303600429436923F0AD
:1036B000070341EA030140F0DD80D4E90A53002BFF
:1036C00041EA050100F0D680B2F5005F00F0B88055
:1036D000002A40F0C180022D00F0C180012D00F0D1
:1036E000B580002D00F0BB80C4E000BF45F26C4106
:1036F000C5F6020188420CD045F28041C5F60201B0
:10370000884206D045F29441C5F60201884240F055
:10371000958004F1080E022184F83510002184F808
:1037200034100168A3699EE80450A2F18007E6699D
:10373000B7FA87F765697F09402A4FEA873743EA76
:1037400006026FF3101142EA050208BF102741EA92
:10375000DC0142EA0E02236A394341EAD20141EA1E
:10376000131140F80819C0B2CD2148433C2101EAA9
:103770009020E0652046FEF71FFCE16D012201F07C
:103780001F0102FA01F141602068404500F3818089
:103790009F21C4F20201884214DC5721C4F20201C5
:1037A000884227DC1021C4F20201884200F0C78061
:1037B0002821C4F20201884200F0C1804021C4F2F5
:1037C0000201B9E040F22741C4F20201884221DC43
:1037D000A021C4F20201884200F0B180B821C4F2F5
:1037E0000201884200F0AB8040F21041C4F20201B5
:1037F000A2E000BF5821C4F20201884200F09F807D
:103800007021C4F20201884200F099808821C4F23C
:10381000020191E040F22841C4F20201884200F026
:103820008E8040F24041C4F20201884200F087805D
:1038300040F25841C4F202017EE000BF4020E9E6B8
:10384000032D17D8DFE805F00E0B0E02A3F1C072AE
:10385000B2FA82F2520904E0032D03D30AD1C3F372
:1038600000623AB140206065012084F83500BDE86F
:10387000F08100BF41612046FEF79EFBE16D3F22D3
:1038800001F01F0102FA01F18160206840457FF7D5
:103890007FAF45F22F41C5F60201884216DC40F2A7
:1038A000B741C4F20201884226DC40F27041C4F202
:1038B0000201884243D040F28841C4F202018842AA
:1038C0003DD040F2A041C4F2020135E045F26B4127
:1038D000C5F6020188421FDC45F23041C5F60201FF
:1038E00088422CD045F24441C5F60201884226D0D8
:1038F00045F258411EE000BF40F2B841C4F2020157
:1039000088421CD045F20841C5F60201884216D013
:1039100045F21C410EE000BF45F26C41C5F60201C4
:1039200088420CD045F29441C5F60201884206D087
:1039300045F28041C5F60201884240F0E18045F23F
:10394000574C45F6FC01C5F6020CC5F60201604570
:103950000EDC45F22F42C5F60202904218DC45F219
:103960000842C5F60202904228D045F21C4221E0EE
:1039700045F27F42C5F60202904213DC45F25842FE
:10398000C5F60202904219D045F26C4212E000BF27
:1039900045F23042C5F6020290420FD045F2444251
:1039A00008E000BF45F29442C5F60202904205D0FD
:1039B00045F28042C5F60202904247D100F0FC0277
:1039C0004CF6CD43083ACCF6CC43A2FB0323A1F13D
:1039D000FC05A1F17C061B0905EB830503F01F0222
:1039E000A3682566802B4FF0010303FA02F2666696
:1039F000A26605D100206060286072601EE000BFF2
:103A00006768FBB2013F072F2B60726016D85E1EFD
:103A1000082E19D2604501F1440237DC45F22F47E8
:103A2000C5F60207B84241DC45F20847C5F6020771
:103A3000B84259D045F21C474AE000BF00206067F9
:103A4000C4E91B005CE000BFE06E54E000F0F80247
:103A50004AF6AB23103ACAF6AA23A2FB032740F288
:103A60000F43C4F2020308253A09984203F1AA065B
:103A7000134688BF05EB171340F60005B042C4F2A9
:103A8000020505F1800628BF1346A5E745F27F47EA
:103A9000C5F60207B84213DC45F25847C5F60207DF
:103AA000B84221D045F26C4712E000BF45F23047E2
:103AB000C5F60207B84217D045F2444708E000BFF8
:103AC00045F28047C5F60207B8420DD045F294474B
:103AD000C5F60207B84207D040F60000C4F2020063
:103AE00000F1FC0100F5A07201EB83000121E0660A
:103AF000B1402267616700210160D4E91C01416087
:103B000000206065012184F83510BDE8F0810000D7
:103B1000B0B500283CD0054690F83400012801D10A
:103B20000220B0BD012085F8340095F83500012849
:103B300028D1022085F835000020686528680468CF
:103B400024F0010404602846FEF7CAFA40F20F424E
:103B50002868C4F2020240F26F419042C4F20201AE
:103B600018DC6F23C4F20203984225DC3F23C4F221
:103B7000020398423CDC1023C4F2020398425ED058
:103B8000282357E04FF400606865002085F8340072
:103B90000120B0BD88421BDC40F23F43C4F2020367
:103BA00098422DDC40F21043C4F20203984246D002
:103BB00040F228433EE000BF9F23C4F20203984234
:103BC00028DC7023C4F20203984238D0882331E005
:103BD00040F29F43C4F20203984223DC40F2704358
:103BE000C4F2020398422AD040F2884322E000BF88
:103BF0004023C4F20203984221D058231AE000BFA8
:103C000040F24043C4F20203984218D040F25843B5
:103C100010E000BFA023C4F2020398420FD0B823E3
:103C200008E000BF40F2B843C4F20203984206D055
:103C300040F2A043C4F20203984240F02F8103688F
:103C40000B2464F3440303602B6C1BB1082304684A
:103C500023430360884219DC9F23C4F20203984285
:103C600032DC5723C4F20203984259DC1023C4F219
:103C70000203984200F096802823C4F2020398427F
:103C800000F090804023C4F2020389E045F22F4304
:103C9000C5F6020398422DDC40F2B743C4F202039A
:103CA00098424BDC40F27043C4F20203984279D050
:103CB00040F28843C4F20203984273D040F2A0431A
:103CC000C4F202036CE000BF40F22743C4F20203D7
:103CD000984243DCA023C4F20203984262D0B82386
:103CE000C4F2020398425DD040F21043C4F20203D2
:103CF00056E000BF45F26B43C5F6020398423FDC35
:103D000045F23043C5F6020398424BD045F2444396
:103D1000C5F60203984245D045F258433EE000BF45
:103D20005823C4F2020398423CD07023C4F2020329
:103D3000984237D08823C4F2020331E040F2B843FE
:103D4000C4F2020398422DD045F20843C5F602039F
:103D5000984227D045F21C4320E000BF40F22843A0
:103D6000C4F2020398421DD040F24043C4F2020361
:103D7000984217D040F25843C4F2020310E000BF4B
:103D800045F26C43C5F6020398420BD045F29443CA
:103D9000C5F60203984205D045F28043C5F60203FA
:103DA000984274D12B6E1C68E40303D51C6844F45C
:103DB00080741C60EB6E1BB11D6845F480751D603E
:103DC000904211DC6F21C4F2020188421EDC3F21C7
:103DD000C4F20201884235DC1021C4F2020188429B
:103DE00055D0282150E000BF88421BDC40F23F4103
:103DF000C4F2020188422DDC40F21041C4F20201FB
:103E0000884244D040F228413EE000BF9F21C4F2E6
:103E10000201884228DC7021C4F20201884236D0B7
:103E2000882131E040F29F41C4F20201884223DC44
:103E300040F27041C4F20201884228D040F2884129
:103E400022E000BF4021C4F2020188421FD0582165
:103E50001AE000BF40F24041C4F20201884216D08D
:103E600040F2584110E000BFA021C4F20201884294
:103E70000DD0B82108E000BF40F2B841C4F2020101
:103E8000884204D040F2A041C4F202018842016895
:103E900041F0010101600020B0BD00BF03680524AE
:103EA00064F3430303602B6C002B3FF4D3AE042375
:103EB000CDE600000000000090F89830013B012B97
:103EC0000ED80068836D0B4212D0836D0B408B427D
:103ED00016D1C36D43F00203C3658B0514D418E0FB
:103EE00000F19C01012002220B681A430A6070470E
:103EF000C36D43F00103C3658B0505D409E000BF22
:103F00000323C3658B0504D5D0F8E0301343C0F814
:103F1000E0304B0504D5D0F8E4301A43C0F8E42073
:103F20004FF6FF72436DC3F6CF720A401A434265E3
:103F30008A0F4AF614010020C4F200010B681A43EC
:103F40000A607047000000002DE9F04390F89830B7
:103F5000022B19D10668D6F8C03013F07C5F1DD053
:103F6000D6F8C4309B0223D4D6F8C4300C69C3F30E
:103F7000044CD1E90035002D8D6823D023432B4319
:103F800043F0804E22E000BFD0F89C1041F00801C1
:103F9000C0F89C100120BDE8F08300BFD0F89C1051
:103FA00041F02001C0F89C100120BDE8F08300BF63
:103FB000D0F89C1041F40071C0F89C100120BDE8BD
:103FC000F08300BF44EA834343EA050E836ED0F8D2
:103FD0008450D1E907970CFB03F48B6949EA076722
:103FE000D1F81480D1F80C901F4305EB840347EA05
:103FF000080745F824E047EA09475F60CF6887B1C2
:104000004DF29005083303320024C0F6010500BFCD
:10401000171957F8037C1F51CF680434EF5DBC4279
:10402000F6D3012101FA0CF1C6F8D010C0F89410B3
:104030000020BDE8F0830000704700000000000091
:1040400080B590F89820013A012A0BD80A68002A16
:10405000CA680FD00B69072A43EA427E18D18B69E0
:104060001BE000BFD0F89C1041F00201C0F89C108A
:10407000012080BD072A19D10A69D1F81CC0120499
:104080008B6942EA0C221A4342F0605218E000BFEA
:10409000D1F808C04B6943EA8C73006F496800EBA4
:1040A000C10240F831E00020536080BD8B68D1F838
:1040B00010C09B0743EAC2624B6942EA0C421A43B2
:1040C0004968C06E40F82120002080BD000000003B
:1040D00090F898C0BCF1010F0ED19200006842EA3E
:1040E0000111DDF800C041EA430141EA0C01C0F8CA
:1040F00080100020704700BFD0F89C1041F00401F0
:10410000C0F89C10012070477047000000000000BC
:1041100070470000000000002DE9F04390F898700F
:10412000022F11D1402919D10668D6F8A07017F4D2
:10413000FE0F2FD0D6F8A4707F0635D0D6F8A47025
:10414000FF013BD400273CE0D0F89C1041F008016F
:10415000C0F89C100120BDE8F08300BF41290FD1B9
:104160000668D6F8B07017F4FE0F13D0D6F8B47006
:104170007F0619D0D6F8B470FF012BD400272CE0AD
:10418000076D8F4206D900F17C04456D4FF0000C9D
:104190000E462BE0D0F89C1041F02001C0F89C1096
:1041A0000120BDE8F08300BFD0F89C1041F480717D
:1041B000C0F89C100120BDE8F08300BFD6F8A070C5
:1041C000FF0FD6F8A46000F17404C6F30526F519B4
:1041D000466C0AE0D6F8B070FF0FD6F8B46000F174
:1041E0007804C6F30526F519C66CAC4675432468F9
:1041F00004EB850E54F8257017F08047576054F88B
:10420000257027F0604608BFC7F38A46166054F849
:10421000257007F00057976054F8254004F00044DB
:104220001461BEF80440D461BEF8064014F00F04D7
:10423000D460DEF8044004F480145461DEF80440D5
:1042400004F4001494619EF8074004F07F041462A3
:10425000DEF804404FEAD474546228D04DF290083E
:104260000024C0F601080EEB0406651C377A1F55C2
:10427000D76818F80770BD4219D21F19757A7D707A
:10428000D56818F80590A51C4D453FBFB57ABD709F
:10429000D56818F805903CBFE51C4D4507D2F57A66
:1042A0000434FD70D56818F80550AC42DBD34029C2
:1042B00006D10068C0F8A8C00020BDE8F08300BFA8
:1042C000412905D10068C0F8B8C00020BDE8F083DE
:1042D0001F2909D80068012202FA01F1C0F89810DC
:1042E0000020BDE8F08300BF006801F01F0101223B
:1042F00002FA01F1C0F89C100020BDE8F083000034
:1043000070470000000000002DE9F04F89B004461E
:104310004AF61000C4F2000001684AF61400C4F224
:1043200000000268206802EA0108056DD0F8549088
:10433000036D0293436D0193036D0493436D0393E7
:10434000036D0893436D0793036D0693436D0593C7
:10435000D0F854A0D0F850B05FEACA530ED51BF481
:1043600080710BD04FF4807101654AF61001002076
:10437000C4F2000108602046FFF7C2FF05EA090603
:104380004AF610095FEA4A50C4F200094FEA8877FA
:1043900011D51BF480600ED02068D0F8DC10D0F866
:1043A000E42011404FF4806202650020C9F800004B
:1043B000204600F015FDDDE9011000EA010506F4D4
:1043C000704657B120680021016508F00300C9F864
:1043D000000020463946FFF72FFEDDE9031000EA12
:1043E000010705F00F0546B120683146066500203B
:1043F000C9F80000204600F0FBFC07F0F00645B1CC
:104400002068294605650020C9F80000204600F014
:104410009FFB46B12068314606650020C9F80000C0
:10442000204600F031FC5FEA0A500CD51BF4006016
:1044300009D020684FF4006101650020C9F8000030
:10444000204600F0D9FC5FEA8A5011D51BF40070B9
:104450000ED02068D0F8D810D0F8E02011404FF4EA
:10446000007202650020C9F80000204600F0BCFC84
:104470005FEA0A300CD51BF4002009D020684FF405
:10448000002101650020C9F80000204600F05CFB17
:104490005FEACA300CD51BF4803009D020684FF495
:1044A000803101650020C9F80000204600F094FC2E
:1044B0005FEA4A30DDE9051000EA01050CD51BF47E
:1044C000802009D020684FF4802101650020C9F8C0
:1044D0000000204600F07CFC5FEA8A30DDE907102E
:1044E00000EA010005F060710FD51BF400320CD01A
:1044F00022684FF4003313650022C9F80020D4F875
:104500009C2042F08002C4F89C2000F0715539B123
:10451000206801650020C9F800002046FFF7F8FD7B
:10452000206845B105650021C9F80010D4F89C1039
:104530002943C4F89C10A9F5016188420AD0D4F837
:104540009C00002868D0204609B0BDE8F04FFFF776
:10455000DBBD00BF606881688907F0D0016A426AEC
:10456000036A476A114003EA070202F03005D0F8F7
:104570002080D0F82490D0F820B0D0F824A0026A8F
:10458000089211F00F01426A0792466A026A069287
:1045900003D00162204600F00FFC08EA09072DB1A4
:1045A000606829460562204600F00EFC70060BEAA2
:1045B0000A0607F4C0750ED5069810F040000AD020
:1045C00060684023C16BC26B090C02F03F020362BA
:1045D000204600F0F5FBDDE9071000EA010706F4CC
:1045E000FC462DB1606829460562204600F0E0FBDC
:1045F00007F4F02036B161680E62D4F89C103143A4
:10460000C4F89C1000289AD061680862D4F89C1005
:104610000843C4F89C0092E709B0BDE8F08F0000A1
:104620002DE9F04F85B0A8B34AF200080446C4F261
:1046300000080068404531D094F89810A9B381690A
:1046400021F01001816100F0BBFC05462068816902
:10465000090705D500F0B4FC401B0B28F6D310E089
:10466000816941F00101816100F0AAFC054600BFAB
:1046700020688169C90721D100F0A2FC401B0B28EA
:10468000F6D30120D4F89C100843C4F89C00032002
:1046900084F89800012005B0BDE8F08F08F580711E
:1046A000616094F898100029C9D1002084F899001D
:1046B000204600F0B5F92068C1E700BF816941F0EC
:1046C00002018161217C826922F04002012918BF28
:1046D00040328261617C826922F48042012908BFF4
:1046E00002F580428261A17C826922F48052012914
:1046F00018BF02F580528261816921F44073D4E9C8
:1047000002120B438361836923F0A403836103696D
:1047100023F0100303619AB1012A0DD0022A09D0B7
:104720008369032A43F080038361036943F0100225
:10473000026105D1202200E0042283691A438261CC
:10474000D4E90572E369561E6FF0FF02256A02EB99
:104750000323B1F5407F43EA4663A5F1010646EA2B
:10476000030640F20003CFF6FF7303EB074746EA68
:104770000701C16110D1D4E90B65D4E90917013FE4
:1047800002EB06226FF00F063A4306EB05173A4399
:1047900003EB01411143C160236E2BB1616ED0F870
:1047A000C0201143C0F8C010E16DCDE90313D94218
:1047B0004CF65811C0F6010109D0D0F8C820A36EFC
:1047C00022F0070251F823301A43C0F8C820D4F869
:1047D00040A0BAF1000F09D0D0F8BC20636C22F0E1
:1047E000070251F823301A43C0F8BC20A76C57B118
:1047F000D0F8BC20E36C22F0700251F8233042EA7A
:104800000312C0F8BC20D4F850C0BCF1000F0AD08D
:10481000D0F8BC20636D22F4E06251F8231042EA24
:104820000121C0F8BC10404504D161688A6822F0BB
:1048300003028A600021C4F89410C4F89C1001217E
:1048400084F898104FF6FC72D0F88410D4F83C909D
:1048500021EA0203656CD4E90D120292019543EA44
:104860008103C0F88430D0F8843023F47F0343EA16
:104870000243C0F884305318D0F888606FF38F0675
:1048800046EA8306C0F88860D0F8886003EB4903E5
:1048900026F4FE0646EA0946C0F88860D0F8A06013
:1048A0006FF38F0646EA8306C0F8A060D0F8A060D8
:1048B00005FB0A3326F4FE0646EA0A46C0F8A06065
:1048C000D0F8B0606FF38F0646EA8306C0F8B06098
:1048D000D0F8B06026F4FE0646EA0746C0F8B0609D
:1048E000E66CD0F8AC506FF38F0506FB07337E43C0
:1048F00045EA8305C0F8AC50D4F8548008FB0C3569
:10490000D0F8F0306FF38F0308FB0CFC43EA85030B
:10491000C0F8F030D0F8F0E0A36D2EF47C1242EA3B
:104920000342C0F8F02005EB4302D0F8C0506FF30B
:104930008F0545EA8202C0F8C020D0F8C020DDF81B
:104940000CB022F47C1242EA0B42C0F8C020019A5B
:10495000D0F8C05025F07C5502FB0AFE4AF2000256
:10496000C4F20002DDF810A002EB8101029A01F509
:10497000406145EA0A6501EB8207C0F8C05007EBC9
:10498000C902A56E02EB8E00626700EB86060BFB88
:1049900005F2276706EB8C07C4E91E060AFB05F043
:1049A00007EBC30303EB8202C4F884304DF2FC33FF
:1049B000E16602EB8000C4F200039842C4F8807004
:1049C000C4F88820C4F8900002D920205AE600BF1D
:1049D000814221D20A46002042F8040BD4F89030DC
:1049E0009A4215D2486001F10802D4F890309A42F8
:1049F0003FBF0020886001F10C02D4F8903038BF2E
:104A00009A4205D2C8601031D4F890209142E1D387
:104A100005B0BDE8F08F00BF002005B0BDE8F08F05
:104A2000B0B586B04AF200420068C4F2000200212C
:104A300090420591CDE90311CDE9011136D04AF23A
:104A40000001C4F2000188427AD144F2E04002221F
:104A5000C5F6020050F8901C62F31D7140F8901CDE
:104A600042F67C01C2F200010A68002A02F101024A
:104A70000A6008D1C16841F48071C160C16801F465
:104A80008071009100990168152441F008010160CE
:104A90000068132500F008000090009840F20040E4
:104AA000C5F60200032100F500602EE044F2E0406C
:104AB0000222C5F6020050F8901C62F31D7140F806
:104AC000901C42F67C01C2F200010A68002A02F141
:104AD00001020A6008D1C16841F48071C160C168F7
:104AE00001F48071009100990168162441F00201DF
:104AF00001600068142500F002000090009840F268
:104B000000404FF44051C5F602000191022102918C
:104B10000021CDE903110921059101A900F070F9E7
:104B200000210022284600F0FBFA284600F0E4FAB3
:104B300000210022204600F0F3FA204600F0DCFAC3
:104B400006B0B0BD0000000070470000000000008B
:104B5000B0B58AB041F6CC0546F62020C2F2000579
:104B6000C2F2000005F108046A4640212346FFF71F
:104B7000D3FA0098B0F5897F3CD040F201318842E9
:104B800046D040F20521884240D141F240552146AD
:104B9000C2F20005286800F5387012F0C9FB2868D9
:104BA00041F24851C2F20001B0F9E2020C6817F07C
:104BB000C9FB9FED2F0B53EC102B17F0DBFB9FED88
:104BC0002E0B53EC102B17F015FB17F0E1FA00EE4B
:104BD000100A04F20440B7EE002A90ED001A30EEFD
:104BE000411AB4EE421AF1EE10FA2FDD4FF0FF3108
:104BF00034E000BF41F24850297AC2F20000006858
:104C000080F8391005F1340014F0CAFC0AB0B0BDC8
:104C1000A8689FED1B1A00BA00EE100A41F2485036
:104C2000C2F20000B8EEC00A006800F69C0020EE58
:104C3000010A90ED022A80ED010A20EE001A21EE11
:104C4000021A80ED001A0AB0B0BD00BFBFEE002A04
:104C5000B4EE421AF1EE10FA05DA0121D4F8082474
:104C60001144C4F8081480ED000A0AB0B0BD00BFBA
:104C7000000000000000303F000000000000F0BF16
:104C800017B7D1380000000070B58AB041F6CC05E6
:104C900046F6C020C2F20005C2F2000005F1100382
:104CA0006A464121FFF738FA0098B0F5807F5AD163
:104CB0002C4641F24056C2F2000614F8100F31683B
:104CC00000F00F00C0EB401001EB800021460C38D3
:104CD00012F08AFA207831689FED241A00F00F0054
:104CE0000238C0EB401001EB800090ED3D0A90F8D7
:104CF000541131EE402A90F85521002902FE000A95
:104D0000002A00F1EC020DD09FED192A30EE020AC4
:104D100090ED562A30EE420AB5EE400AF1EE10FA56
:104D200009DA0FE090ED562A32EE000AB5EE400A9D
:104D3000F1EE10FA06DBB4EE410AF1EE10FA03DDF3
:104D40009FED0C1A30EE010A92ED031A0029B1EE24
:104D5000412A80ED570A02FE011A80ED581A05F12A
:104D6000180014F01DFC0AB070BD00BFDB0FC94075
:104D7000DB0F4940DB0FC9C090F8981001290DD115
:104D8000022180F8981001688A6922F001028A6184
:104D90000021C0F89C100846704700BFD0F89C1056
:104DA00041F00401C0F89C10012070470000000091
:104DB0007047000000000000704700000000000085
:104DC0007047000000000000704700000000000075
:104DD0007047000000000000704700000000000065
:104DE0007047000000000000704700000000000055
:104DF0007047000000000000704700000000000045
:104E00002DE9F04F82B00D68002D00F0CB8000F14D
:104E1000264242F2004302F1FF72C5F602030A265F
:104E200098424FEAB22444F2F44E08BF0926092CF6
:104E300040F2040C38BF4FEAB226C5F6020EC5F6A2
:104E4000000C009600220027002609E001360D68BC
:104E500035FA06F307F1040702F1020200F0A2801E
:104E6000012303FA06F415EA0408EFD0D1F804A0F0
:104E700003230AF0030B9340ABF101056FEA03092A
:104E8000012D0FD88368CD6803EA090395402B43B1
:104E90008360CAF300154368A34305FA06F423436D
:104EA000436005E0BBF1030F02D14FF0030B21E09B
:104EB000C3688C6803EA09039440BBF1020F43EA1C
:104EC0000403C36016D16FF0030307F01C0503EA67
:104ED00056030F24034404FA05FBD3F820A00C6901
:104EE0002AEA0B0AAC4044EA0A041C62D1F804A086
:104EF0000AF0030B03680BFA02F403EA09031AF43D
:104F0000403F43EA04030360A0D0DEF8003040F2E3
:104F1000084A43F00203CEF80030DEF80030C5F650
:104F2000000A03F00203019326F00303019C07F03B
:104F30000C040F2553F80A90A54029EA0509009DA5
:104F400005FA04F444EA090443F80A404FF0B04A71
:104F5000DAF800904C6849EA0805E30258BF29EAEC
:104F60000805A302CAF80050DCF8009049EA0805D9
:104F700058BF29EA0805A303CCF80050DCF880905C
:104F800049EA080558BF29EA0805E403CCF880502F
:104F9000DCF87C3043EA080558BF23EA0805CCF862
:104FA0007C5053E702B0BDE8F08F00000000000025
:104FB00041F20000C5F600400068000C7047000098
:104FC00047F2FC70C2F20000006870470000000069
:104FD00080B5032000F0D4F800F026FE44F218411A
:104FE0004CF6D843C5F60201C0F601030A68096809
:104FF00001F00F01C2F30322595C9A5C01F01F011A
:1050000002F01F02D04041F20C42C2F2000220FA2C
:1050100001F1116041F20841C2F2000108600F2065
:1050200000F00AF800281CBF012080BD00F054F8F1
:10503000002080BD00000000B0B58AB00F283ED827
:105040000446762000222146002500F069F87620EB
:1050500000F052F841F20440C2F20000046044F251
:10506000F040C5F60200016841F48021016000684B
:1050700001A900F480200290029802A800F020FD0F
:1050800000F0A2FD4DF683614000C4F21B3144F6EE
:105090000002A0FB010146F6E830C2F200004FF02A
:1050A000FF33C4F20102026003EB9141C0E9011534
:1050B00040F2E731C0E9031501F012FA10B1012006
:1050C0000AB0B0BD46F6E830C2F2000001F0BCFA0A
:1050D0000AB0B0BD0000000081B044F2F440C5F653
:1050E0000200016841F002010160006800F0020066
:1050F0000090009801B07047002848BF704781B207
:1051000000F01F000122490902FA00F04EF20012DD
:10511000CEF2000242F821007047000000000000BB
:1051200070B54EF60C5C4FF0FF36CEF2000C00F17D
:10513000604505F56445DCF80030C3F3022E8EF0BF
:105140000703042B28BF0423BEF1030406FA03F36C
:1051500021EA030100F00F0338BF0024043B0028BC
:10516000634406FA04F048BF03F10C05A14022EAAB
:10517000000008430001287070BD0000000000001E
:105180004EF60C514FF6FF03CEF200010A681A40AA
:1051900060F30A2242F0806040F0FD7008607047C2
:1051A00080B500F0B9FC44F220414CF6D842C5F677
:1051B0000201C0F601020968C1F30211515C01F05D
:1051C0001F01C84080BD000080B544F2304EC5F6D6
:1051D000020E5EF8083C5EF8081CC1F3051C5EF880
:1051E000041CBCF1000FDEF8042025D001F0010101
:1051F00003F003034942022B01EAD2016FF35F314E
:1052000000EE101AB8EE400A1CD0012B2AD01BB9B0
:105210005EF8301C89066FD4DEF800109FED492A35
:105220006FF35F2101EE101AB8EE411AA0EE021AD8
:105230009FED470A24E000BF00218160C0E9001112
:1052400080BD00BFDEF800109FED3E2A6FF35F21A6
:1052500001EE101AB8EE411AA0EE021A9FED3A0ABA
:105260000EE000BFDEF800109FED362A6FF35F21DD
:1052700001EE101AB8EE411AA0EE021A9FED330AA1
:10528000A1EE000A01EE10CAB8EE411ADEF80010D5
:1052900080EE010AB7EE002AC1F3462101EE101A92
:1052A000B8EE411A31EE021A80EE011ABCEEC11AB4
:1052B00080ED001ADEF80010C1F3064101EE101A6D
:1052C000B8EE411A31EE021A80EE011ABCEEC11A94
:1052D00080ED011ADEF80010C1F3066101EE101A2C
:1052E000B8EE411A31EE021A80EE010ABCEEC00A95
:1052F00010EE101A816080BDB7EE001A5EF8301C07
:10530000DEF800209FED0F2A6FF35F22C1F3C10189
:10531000A0EE021A00EE102A49F20002C0F2D032CA
:1053200022FA01F1B8EE400A02EE101AB8EE422A53
:1053300031EE000A01EE10CAB8EE411A20EE020A60
:10534000A4E700BF000000390024F44A0024744A96
:105350000024744C0000000080B544F2384EC5F6BD
:10536000020E5EF8103C5EF8101C5EF80C2CC1F3C7
:10537000053CDEF80410BCF1000F23D0C90803F08F
:105380000303D206022B01EAE2716FF35F3100EEF4
:10539000101AB8EE400A2BD0012B19D0C3B95EF811
:1053A000381C89066ED4DEF800109FED492A6FF391
:1053B0005F2101EE101AB8EE411AA0EE021A9FED1D
:1053C000470A23E000218160C0E9001180BD00BFD1
:1053D000DEF800109FED3E2A6FF35F2101EE101AF8
:1053E000B8EE411AA0EE021A9FED3B0A0EE000BF94
:1053F000DEF800109FED362A6FF35F2101EE101AE0
:10540000B8EE411AA0EE021A9FED320AA1EE000A90
:1054100001EE10CAB8EE411ADEF8001080EE010A63
:10542000B7EE002AC1F3462101EE101AB8EE411A78
:1054300031EE021A80EE011ABCEEC11A80ED001A9C
:10544000DEF80010C1F3064101EE101AB8EE411A61
:1054500031EE021A80EE011ABCEEC11A80ED011A7B
:10546000DEF80010C1F3066101EE101AB8EE411A21
:1054700031EE021A80EE010ABCEEC00A10EE101ADC
:10548000816080BDB7EE001A5EF8381CDEF800209F
:105490009FED0F2A6FF35F22C1F3C101A0EE021A44
:1054A00000EE102A49F20002C0F2D03222FA01F1D5
:1054B000B8EE400A02EE101AB8EE422A31EE000AA7
:1054C00001EE10CAB8EE411A20EE020AA4E700BFAE
:1054D000000000390024F44A0024744A0024744C6B
:1054E00080B544F2404EC5F6020E5EF8183C5EF8F8
:1054F000181C5EF8142CC1F3055CDEF80410BCF136
:10550000000F23D0C90803F00303D205022B01EAE0
:10551000E2716FF35F3100EE101AB8EE400A2BD043
:10552000012B19D0C3B95EF8401C89066ED4DEF891
:1055300000109FED492A6FF35F2101EE101AB8EEBB
:10554000411AA0EE021A9FED470A23E00021816074
:10555000C0E9001180BD00BFDEF800109FED3E2ABB
:105560006FF35F2101EE101AB8EE411AA0EE021A95
:105570009FED3B0A0EE000BFDEF800109FED362ADB
:105580006FF35F2101EE101AB8EE411AA0EE021A75
:105590009FED320AA1EE000A01EE10CAB8EE411AE0
:1055A000DEF8001080EE010AB7EE002AC1F34621B2
:1055B00001EE101AB8EE411A31EE021A80EE011A0D
:1055C000BCEEC11A80ED001ADEF80010C1F30641EE
:1055D00001EE101AB8EE411A31EE021A80EE011AED
:1055E000BCEEC11A80ED011ADEF80010C1F30661AD
:1055F00001EE101AB8EE411A31EE021A80EE010ADD
:10560000BCEEC00A10EE101A816080BDB7EE001A21
:105610005EF8401CDEF800209FED0F2A6FF35F223A
:10562000C1F3C101A0EE021A00EE102A49F20002F5
:10563000C0F2D03222FA01F1B8EE400A02EE101A9E
:10564000B8EE422A31EE000A01EE10CAB8EE411A55
:1056500020EE020AA4E700BF000000390024F44A4B
:105660000024744A0024744C10B584B0024641F6FC
:10567000FF7300209B1A70EB01033BDB40F2FF330A
:105680009B1A70EB010361DA82F480630B4300F034
:10569000F78082F400630B4300F0188182F480529B
:1056A000114340F0868144F20041C5F60201086DC5
:1056B000C0F30232042A00F2548148F20000C0F222
:1056C000BB00DFE812F0150137014101760105004A
:1056D000C86C0A68520700F04052086802D5002AD8
:1056E00000F0B981C00540F17581B2F1805F00F032
:1056F000CC816FE147F6FF739B1A70EB010355DA1B
:1057000082F400430B4300F0F58082F480330B43B6
:1057100000F0008182F40022114340F04A8144F2FB
:105720000040C5F60200816D01F44031B1F5003F43
:1057300000F02081B1F5803F00F02A81002940F07F
:1057400010810068000140F10C81F6E082F4807362
:105750000B4357D082F40072114340F02A8144F287
:105760000041C5F60201086DC0F38212042A00F25E
:10577000F88048F20000C0F2BB00DFE812F0B90088
:10578000DB00E5001A010500C86C0A68520700F04A
:105790004052086802D5002A00F05D81C00540F142
:1057A0001981B2F1805F00F0708113E182F400533F
:1057B0000B434DD082F48042114340F0FA8044F212
:1057C0000044C5F60204A06DC0F30270052800F283
:1057D000C880DFE810F007001101130115011B015B
:1057E0001D0100BF00F098F9216A4CF6D842C0F6BE
:1057F0000102C1F30211515C01F01F01C84004B065
:1058000010BD00BF44F20041C5F60201086D00F072
:105810000702042A00F2A58048F20000C0F2BB0093
:10582000DFE802F0668892C7040000BFC86C0A680F
:10583000520700F04052086802D5002A00F00B81A0
:10584000C00540F1C780B2F1805F00F01E81C1E069
:1058500044F20040C5F60200016DC1F30241052982
:1058600000F27F80DFE811F00600DE00E800F200C1
:105870000201540004B0BDE8104000F075B900BF4B
:1058800044F20041C5F60201886DC0F34252042A79
:1058900000F2678048F20000C0F2BB00DFE802F0CF
:1058A000284A5489040000BFC86C0A68520700F0F7
:1058B0004052086802D5002A00F0CD80C00540F1B2
:1058C0008980B2F1805F00F0E08083E044F2004123
:1058D000C5F60201886DC0F30262042A41D848F27D
:1058E0000000C0F2BB00DFE802F003252F64670070
:1058F000086834E044F20040C5F60200016D01F092
:105900004051B1F1005F4DD0B1F1805F26D041BB75
:1059100000687EE044F20040C5F60200C16C0068F9
:10592000C9031CD500011CD501A8FFF715FD03987C
:1059300004B010BD0868000113D501A8FFF70CFDE5
:10594000019804B010BD00BF0868800009D501A807
:10595000FFF7C6FD019804B010BD00BF00688001CC
:1059600002D4002004B010BD01A8FFF72DFC02985E
:1059700004B010BDC16C0268520701F040510268CA
:1059800040F17E80002940F07B80C2F3C10064E0DA
:1059900000688000E5D501A8FFF7A2FD039804B0D8
:1059A00010BD00BF00680001DBD501A8FFF7D4FCE3
:1059B000029804B010BD00BFC86C0A68520700F01E
:1059C0004052086801D5002A45D0C00502D5B2F181
:1059D000805F5AD00868B2F1005F00F400314FF0E8
:1059E000000004BF41F20020C0F27A00002908BF85
:1059F000084604B010BD00BF206814E020681CE019
:105A000020684007ADD5206825E000BF20682EE063
:105A1000206841F200218003C0F27A0101EAE070BF
:105A200004B010BD006800019BD501A8FFF794FCED
:105A3000029804B010BD00BF006880007FF591AFF0
:105A400001A8FFF74DFD029804B010BD0168490799
:105A50007FF587AF0068C0F3C10049F20001C0F2D2
:105A6000D03121FA00F004B010BD00BF006840F64C
:105A70000011C005C0F23D0101EAE07004B010BDA4
:105A8000D20509D5B1F1805F06D140F60010C0F211
:105A90003D0004B010BD00BF0068B1F1005F00F42C
:105AA00000324FF0000004BF41F20020C0F27A0043
:105AB000002A08BF104604B010BD0000000000001E
:105AC0003F22026044F21842C5F6020252F8083C36
:105AD00003F007034360136803F470638360136883
