:020000040800F2
:10000000A8BD0120E1020008915C00084D520008E3
:100010008D5C0008B51900080963000800000000A5
:10002000000000000000000000000000695D000802
:100030000D1B000800000000955C00086D5D0008C5
:10004000FB020008FB020008FB020008FB0200089C
:10005000FB020008FB020008111B0008FB0200085D
:10006000FB020008191B0008211B0008FB02000806
:10007000DD190008FB020008FB020008FB02000873
:10008000FB020008FB020008FB020008FB0200085C
:10009000B9190008C5190008FB020008291B00084F
:1000A000FB020008FB020008FB020008FB0200083C
:1000B000855D0008FB020008FB020008FB02000847
:1000C000FB020008FB020008FB020008FB0200081C
:1000D000FB0200087D610008FB020008ED610008DA
:1000E000FB020008FB020008FB0200089D5D0008FF
:1000F000A95D0008FB020008FB020008FB020008E3
:10010000FB020008FB020008915D0008FB020008EA
:10011000FB020008FB020008FB020008FB020008CB
:10012000FB020008E9190008F5190008FB020008A5
:10013000FB020008FB020008FB020008FB020008AB
:10014000D1190008FB020008FB020008FB020008AE
:10015000FB020008011A0008211A0008A562000825
:10016000FB020008FB020008FB020008FB0200087B
:10017000FB020008FB020008FB0200080000000070
:10018000FB020008FB02000800F002F800F098F8FB
:100190000AA090E8000C82448344AAF10107DA45E2
:1001A00001D100F08DF8AFF2090EBAE80F0013F09C
:1001B000010F18BFFB1A43F001031847A40E0100FA
:1001C000C40E0100103A24BF78C878C1FAD852078B
:1001D00024BF30C830C144BF04680C6070470000C1
:1001E0000023002400250026103A28BF78C1FBD840
:1001F000520728BF30C148BF0B6070476E2900F01E
:100200003F84702900F0818566290FF0F486652906
:100210000FF0F18667290FF0EE8661290FF0ED8669
:1002200003681B0A28BF41F08001692900F018818A
:10023000642900F01581752900F012816F2900F002
:100240000F85782900F04D85E92900F0A984E4297B
:1002500000F0A684F52900F0A384EF2900F00C85B6
:10026000F82900F04C850368DB0928BF41F08001C4
:10027000632901F09981732901F09E81E32901F03E
:10028000A981F32901F0AE81002070471FB50FF05E
:10029000A0FE9DE8030000F075FD01F005FA0400E2
:1002A000002000210FF0AAF8401C6060002000210F
:1002B0000FF08EF8E06000F0B5FA1FBD10B510BD6C
:1002C00001F0C5F91146FFF7E1FF0EF085F901F0E5
:1002D000BBFA03B4FFF7F2FF03BC00F02DFD0000F2
:1002E0000948804709480047FEE7FEE7FEE7FEE7CA
:1002F000FEE7FEE7FEE7FEE7FEE7FEE70448054906
:10030000054A064B70470000715D0008890100082E
:10031000A81D0020A8BD0120A86D0120A86D012006
:1003200053EA020C00F069802DE9F04B4FF0000613
:10033000002B1FBFB3FA83F503FA05F424FA05F680
:100340005E4012BF1643B2FA82F502FA05F4C5F117
:1003500020051EBF22FA05FC44EA0C04203556EAAB
:10036000044C4FEA144418BF641C4FF000084FF0CF
:100370000009904271EB030C39D3002919BFB1FA7F
:1003800081F701FA07F6B0FA80F700FA07F6C7F12D
:1003900020071EBF20FA07FC46EA0C062037B6FBF2
:1003A000F4FCA7EB0507103F07F01F0BCBF120066D
:1003B0002CFA06F60CFA0BFB44BFB3460026202F9E
:1003C000A4BF5E464FF0000B5BEA060C08BF4FF07F
:1003D000010B19EB0B0948EB0608ABFB027C06FB93
:1003E00002CC0BFB03CCC01B71EB0C01C1E70B462D
:1003F000024641464846BDE8F08B13B5084318BF96
:100400004FF0FF300146AFF30080BDE81C4070475D
:100410001CB50C46064B7B4469460090204600F014
:1004200048FB04460020694600F056FB20461CBDF0
:10043000BF0600000FB41CB5084B06AA7B446946F2
:100440000090059800F035FB04460020694600F056
:1004500043FB20461CBC5DF814FB0000990600001D
:100460002DE9F0410646002410687529314616A58D
:1004700010D000F071FA002802DA404213A507E01C
:1004800031688A0701D512A502E0490704D511A5F4
:10049000012401E000F069FA00210A2206F1240794
:1004A00009E0B0FBF2FCB0FBF2F302FB1C003030C1
:1004B00078541846491C0028F3D123462A46304672
:1004C000BDE8F04100F083BA000000002D000000FC
:1004D0002B000000200000002DE9F05F8946044653
:1004E0004FF0000ADFF874B1FB44C0F820A02046AA
:1004F000E1688847002874D0252806D0D4E9012176
:100500009047206A401C2062F1E700265F462046A3
:10051000E16888472028054607DB312D05D2781988
:1005200010F8200C08B10643F1E7B00701D526F01A
:100530000406C4F81CA00027C4F818A02A2D09D06E
:1005400028460EF01FFF38B304EB8708303DC8F88B
:10055000185019E059F8041B204604EB87029161FA
:10056000E1688847012F054618D1E069002820DAA4
:1005700026F020061DE0D8F8180000EB800005EBFF
:1005800040003038C8F818002046E1688847054622
:100590000EF0F8FE0028EED1012F0AD02E2D08D142
:1005A0002046E16888477F1C0546022F46F020065A
:1005B000C4DBA069002803DA404246F00106A061CE
:1005C000F00701D026F010066C2D0BD0682D09D055
:1005D0004C2D39D06A2D35D0742D35D07A2D33D0AD
:1005E00016E038E0E1682F4620468847B8420546C5
:1005F00009D16C2F26D04FF48060E1680643204675
:100600008847054604E06C2F1AD04FF480700643EB
:100610000DB3A5F14100192802D8203546F4006633
:100620004A462946204626604E46FFF7E7FD80B140
:1006300001280BD0F61D26F0070000F1080956E747
:100640004020E4E78020D8E70020D6E706F104093F
:100650004DE7284652E7206ABDE8F09F12FB0000F4
:1006600010B5431C02E010F8011B71B18107FAD1EB
:100670004FF0013202C88C1A8C4314EAC211F9D02F
:10068000C01A0A0603D0C01E10BDC01A10BD0A044D
:1006900001D0801E10BD0902FCD0401E10BD032AEF
:1006A00040F2308010F0030C00F0158011F8013B8F
:1006B000BCF1020F624498BF11F801CB00F8013B76
:1006C00038BF11F8013BA2F1040298BF00F801CB3A
:1006D00038BF00F8013B11F0030300F02580083A11
:1006E000C0F0088051F8043B083A51F804CBA0E868
:1006F0000810F5E7121D5CBF51F8043B40F8043BBD
:10070000AFF30080D20724BF11F8013B11F801CBF1
:1007100048BF11F8012B24BF00F8013B00F801CBC2
:1007200048BF00F8012B704710B5203AC0F00B808D
:10073000B1E81850A0E81850B1E81850A0E81850D7
:10074000203ABFF4F5AF5FEA027C24BFB1E818504D
:10075000A0E8185044BF18C918C0BDE810405FEAAF
:10076000827C24BF51F8043B40F8043B08BF70472B
:10077000D20728BF31F8023B48BF11F8012B28BF30
:1007800020F8023B48BF00F8012B70474FF00002F1
:100790000429C0F0128010F0030C00F01B80CCF193
:1007A000040CBCF1020F18BF00F8012BA8BF20F801
:1007B000022BA1EB0C0100F00DB85FEAC17C24BF55
:1007C00000F8012B00F8012B48BF00F8012B7047FF
:1007D0004FF0000200B5134694469646203922BFDA
:1007E000A0E80C50A0E80C50B1F12001BFF4F7AF25
:1007F000090728BFA0E80C5048BF0CC05DF804EB07
:10080000890028BF40F8042B08BF704748BF20F874
:10081000022B11F0804F18BF00F8012B7047704772
:100820007047704770B5064C7C44064D7D4404E02B
:100830002046016808448047241DAC42F8D170BDB1
:10084000800901008009010070B5064600F07AFABF
:10085000056806F10B0020F00704B4429CBF00209D
:1008600070BD2B466A68BAB11068A04210D304F17B
:10087000080188423CBF5068586007D3516810197E
:1008800041601168091B016058601460101D70BD43
:1008900013465268002AE7D12146284600F05EFA46
:1008A0000028DED170BD70B50446051F00F04AFA7D
:1008B0000068002C14BF446870BD002C18BFAC4207
:1008C0003CBF20466468F8D301680A18AA4218BFE2
:1008D000456003D12A680546114401602868411922
:1008E000A1421CBF6C6070BD6168696021680844EA
:1008F000286070BD10B500F029FA006810BD10B571
:10090000044600F023FA046010BD70B50446856902
:100910000068C10601D5302600E02026C00707D0B8
:1009200070BDD4E9012130469047206A401C206206
:100930006D1EF6D570BD70B5044685690078C00798
:1009400007D170BDD4E9012120209047206A401CC6
:1009500020626D1EF6D570BD09684A0501D540B20A
:100960007047C905FCD500B2704709684A0501D532
:10097000C0B27047C905FCD580B2704770B50C464F
:100980000546012A05D02878800600D5EA690023AB
:1009900002E0012305E05B1C934202D2E05C0028E8
:1009A000F9D1A869E618C01AA861286A1844286213
:1009B0002846FFF7AAFF04E0D5E9012114F8010B4E
:1009C0009047B442F8D32846FFF7B5FF70BD2DE934
:1009D000F0470D4699469246044600F12408016806
:1009E000880604D5E06921F01001216000E00120B3
:1009F000A84201DD471B00E00027A1697A1902EB3C
:100A00000900081AA0612078C00602D42046FFF72A
:100A10007CFF002608E0D4E901211AF8060090477F
:100A2000206A401C761C20624E45F4DB2078C0060C
:100A30000AD52046FFF769FF06E0D4E901213020FE
:100A40009047206A401C2062381EA7F10107F4DCA1
:100A500007E0D4E9012118F805009047206A401CFE
:100A60002062281EA5F10105F3DC2046FFF763FF95
:100A70002078000602D50220BDE8F0870120FBE7C0
:100A800011680268006A530501D508700AE0D305B1
:100A900001D5088006E0130603D5C217C1E900029C
:100AA00000E008600120704701694A1C0261087873
:100AB000704700B58FB0CDE901310021059105499E
:100AC0007944CDE9031011466846FFF705FD0FB0E4
:100AD00000BD0000E5FFFFFF0A6802F8010B0A6095
:100AE000704700002DE9FF5F15468A460446DFF88F
:100AF000AC80F8440027D8E900103E46CDE900104C
:100B000010E03AF816106A4602A800F06FFD411C8A
:100B100007D02178890603D5E269391891420DD8AA
:100B20000744761C2078800602D5E069B84205DDCE
:100B3000AE42E6DB3AF816000028E2D1A069C01BFD
:100B4000A0612046FFF7E1FED8E90010CDE90010D2
:100B5000002017E03AF818106A4602A800F046FD97
:100B6000B0F1FF3F81460BD000250DF1080B05E0E9
:100B7000D4E901211BF8050090476D1C4D45F7D3C2
:100B800008F10100B0428046E4DB206A384420626C
:100B90002046FFF7D0FEBDE8FF9F00001AF50000D9
:100BA0002DE9F0418046D21D22F007020025D2E94E
:100BB0000002F52915A614D0011E72F1000106DA13
:100BC0000023D0EB030063EB020211A608E0D8F883
:100BD00000108B0701D50FA602E0490701D50EA62C
:100BE00001251146002408F1240704E000F000F973
:100BF00030323A55641C50EA0102F7D12B46324696
:100C000021464046BDE8F041FFF7E1BE000000008C
:100C10002D0000002B0000002000000030B4002157
:100C200000F1240408E002F00705D208303542EA5A
:100C30004372DB086554491C52EA0305F3D104688A
:100C4000002310A2250708D504F020040C4304D08B
:100C5000C46901230CA2641EC46130BCFFF7B7BE97
:100C600010B5044621461068FFF77FFE0246204675
:100C7000BDE810400023D1E7D21D22F00701D1E9E1
:100C80000023CBE70000000030000000F0B40D4668
:100C90000188090502D5214C7C4402E01F4C7C44AC
:100CA0000E34002100F1240608E002F00F071209BB
:100CB000E75D42EA03721B097754491C52EA0307B5
:100CC000F3D102780023120704D5702D06D009B1A4
:100CD000022311342246F0BCFFF779BE0123103401
:100CE000F8E770B504460D4621461068FFF73DFE53
:100CF000024629462046BDE870400023C6E7D21DC3
:100D000022F00703D3E90023C0E70368126843F029
:100D1000200303600823C3610023B7E77CF30000CE
:100D200010B5002000F086FCFFF7C8FABDE81040BF
:100D3000012000F001B8000001491820ABBEFEE719
:100D4000260002000048704720000020004870473D
:100D500018000020704770477047704738B5044648
:100D60000A4600206946AFF30080002808BF38BD5E
:100D700002460099204600F09BFC012038BD01206E
:100D800000F088BDF8B5AFF30080054600200C46A2
:100D9000102000BF0646A819A0420DD93246694668
:100DA0000020AFF30080070008BF00F073FD00983B
:100DB000A04218BF0546C419FFF7C4FF05600746E7
:100DC000F01D20F007004619284600F00AF8B4424A
:100DD00008BFF8BDA21B31463868BDE8F84000F0F6
:100DE00067BC00210160C0E9011070471020704706
:100DF00030B5B0F10A0271F100034FEA900E4EEAED
:100E0000817EB0EB0E0061EB91014FEA101E4EEABD
:100E1000017E10EB0E0041EB11114FEA102E4EEA4D
:100E2000016E10EB0E0041EB11214FEA104E4EEA1D
:100E3000014E10EB0E0041EB1141401841F1000151
:100E40004FEAD00040EA41704FEAD1014FEA8104F5
:100E500044EA907410EB800544EB01046D1944EBF7
:100E60000404521BA3414FF0000348BF0A3200D5CF
:100E700030BD401C41F1000130BD2DE9FF4F0C4653
:100E80001E464FF0FF378BB0D2E90001DDF86080DD
:100E90000A908A46C1F30A5505B93D460021084625
:100EA0004FF00000BAF1000F00F4400005DA00EB4B
:100EB00080004FF4400101EA50004FEA9059B9F127
:100EC000010F00DDB9460A9850EA4A000ED044F6F8
:100ED0001050A5F2FF3545432F14B8F1000F1ED076
:100EE0007542291E1EDDC9F100021CE0B8F1010F98
:100EF0004FF0000001D0302103E0F24305E021541F
:100F0000401CB042FBDB30460022002121540B99EB
:100F1000C1F80880C1E900200FB0BDE8F08FBD1B0B
:100F20006D1CDEE74A4600DA694206A800F01AFCAA
:100F300006AB93E8070003AB83E8070050460A9925
:100F40000DF080FB8DE80700A0F500501F380090E1
:100F50000398002D0ADD42F21F014A46084400238F
:100F600003A9039068460DF0E9FD09E0A0F50050E3
:100F70004A461F38002303A9039068460DF0F3FD8D
:100F80008DE807000004000C03D04FF0FF3041084B
:100F900000E01046B8F1000F03D000220092154681
:100FA0001EE0751E05D4FFF723FF303262556D1E1B
:100FB000F9D5B3460122084302D000227F1C04E089
:100FC0002078302801D100227F1E002A099784D082
:100FD0001DE0112D07DAFFF70BFF303262556D1C53
:100FE00050EA0102F5D1084302D00098C8B10EE0E2
:100FF0000021681E05E0235C625C63542254401E9D
:10100000491C8142F7DBAB46A81B401E099000201B
:1010100004F80B000B98099AC0F80880C0E9002B6F
:101020007AE711264FF0000857E72DE9F04F884680
:101030000446D21D22F0070191B0D1E90001CDE9AB
:101040000A010DF0C7FE02460B98C00F01D02D20FB
:1010500007E02068810701D52B2002E0202101EA6A
:10106000C000032A099001D0072A05DB0346414648
:10107000204600F037FB0BE12078800601D5E069BF
:1010800000E00620B8F1650F814606D0B8F1660F82
:1010900018D0B8F1670F70D131E00020B9F1110F0D
:1010A000009001DB112301E009F101030AAA01A963
:1010B0000CA8FFF7E2FEDDE90C70002609F101053E
:1010C000834647E001204B4600904FF000470AAAB4
:1010D00001A90CA8FFF7D1FEDDE90DB00C995D4622
:1010E000002610B909F101000D18B9EB050003D471
:1010F000C0F1FF3609F10105A5EB09002BE0B9F1BC
:10110000010F01DA4FF001090020B9F1110F009031
:10111000484601DD112300E003460AAA01A90CA8F4
:10112000FFF7ABFEDDE90C704D46002683462078C4
:1011300000070AD4AB4500DA5D4601A8012D04DDA5
:10114000411911F8011C302907D04F4502DA17F177
:10115000040F04DA012082460FE06D1EEEE7002F37
:1011600002DCED1B3E4403E0781CA84200DD7D1C40
:10117000B81B00F1010A4FF000472078000703D4A4
:10118000AA4501DB4FF0FF3A0021B7F1004F0DF106
:1011900043088DF8431024D002202B23002F01DABE
:1011A0007F422D230A21021EA0F1010000DC5FB165
:1011B00097FBF1FC97FBF1F201FB1C7C17460CF14D
:1011C000300C08F801CDEEE7A8F10100037021888A
:1011D000090501D5452100E06521A0F1010800F8CD
:1011E000011C09980FA9A1EB0807FF1D00B1012000
:1011F000411901EBEA70A1693844081A401EA06148
:101200002078C00602D42046FFF77FFB099828B15A
:10121000D4E901219047206A401C20622078C00652
:1012200022D52046FFF771FB1EE0002E04DBB345FC
:1012300002DD01A8805D00E03020D4E90121904763
:10124000206A401C2062761CAAF101005FEA000AB5
:101250000AD100F029FAC0680168405CD4E9012194
:101260009047206A401C2062281EA5F10105DCDCA5
:1012700007E0D4E9012118F8010B9047206A401CCF
:101280002062381EA7F10107F3DC2046FFF753FB6D
:10129000032011B041E600002DE9F04F04460D4651
:1012A000D21D22F0070089B0D0E9009748463946A0
:1012B0000DF090FD0246F80F01D02D2307E02068C5
:1012C000810701D52B2302E0202101EAC0038DF81C
:1012D00020300BB1012000E00020032A824601D01B
:1012E000072A04DB2946204600F0FCF93FE120787C
:1012F000800601D40D2500E0E569C7F30A560D2DDF
:1013000049DA00214FEA175B08464FF00000002F32
:1013100000F4400007DA00EB80004FF4400100EBDE
:10132000D07001EA60008115012901DD4FF0FF3125
:1013300000224FEA850CBCF1180F06D31346ACF11E
:1013400018004FF08052C24003E04FF4801323FA9C
:101350000CF30CF10C0CBCF1200F04D3ACF1200CFD
:1013600009FA0CF001E007FA0CF000294FF00048F0
:1013700001DD18B90FE00ED140450CD319EB02097D
:101380005F4121B9404502D19F4329EA0209BBEBE5
:10139000175F00D0761C2088000502D57B48784472
:1013A00002E07A487844193808AA302302F80A3053
:1013B000037C0AF10101002E0AF1020A53546A4625
:1013C00002DC4FF0300101E04FF031014FF0010835
:1013D0008DF8001002D0A6F2FF3603E059EA47016B
:1013E00000D06B4E002D02DC2178090704D54FF0A8
:1013F00002082E218DF80110C44600210BE0C7F32E
:1014000003433F01C35C491C6D1E02F808300529E7
:1014100008F1010801DA002DF1DC00210CE000EBFD
:101420001973491C1B786D1E082902F808304FEA11
:10143000091908F1010801DA002DF0DC21688B069A
:1014400002D516E0A8F10108E04505DD02EB08032E
:1014500013F8013C302BF5D0B8F1000F09DD02EB99
:10146000080313F8013C2E2B03D1090701D4A8F17E
:101470000108002D05DD3E2102F808106D1E08F15F
:101480000108407C002E02F8080008F1010804DA87
:101490002D20764202F8080002E02B2002F8080016
:1014A0000A214FF47A70864208F101080BDB96FBA3
:1014B000F0F3303302F8083096FBF0F308F101083E
:1014C00000FB136601E0642E0CDB642096FBF0F356
:1014D000303302F8083096FBF0F308F1010800FB06
:1014E000136601E00A2E06DB96FBF1F0303002F8BD
:1014F000080008F1010896FBF1F001FB10603030A4
:1015000002F80800A16908F1010808EB050202EBE6
:101510000A00081AA0612078C00602D42046FFF70E
:10152000F4F9216A08AE01EB0A00206204E0D4E974
:10153000012116F8010B9047BAF1010AF7D2207881
:10154000C00602D52046FFF7E0F96E4609E016F81E
:10155000010B3E280FD0D4E901219047206A401C9E
:101560002062B8F10108F2D22046FFF7E4F909B091
:101570000320BDE8F08F206A2844206203E0D4E90C
:101580000121302090476D1EEBD3F8E7B1EC00004D
:1015900002FCFFFF10B5436913B1AFF3008001E017
:1015A000FFF7ECF9012010BD127800F124010A7058
:1015B00000224A700122EDE711684FF0FF32E9E79F
:1015C00010B5436913B1AFF3008001E0FFF78AFA69
:1015D000012010BD128800F1240182840022C284FF
:1015E0000122EDE711684FF0FF32E9E72DE9F04104
:1015F00016460C46054600F04FF8036893F80101C3
:10160000012807D0FF2C12D8185D80B101202C7062
:10161000BDE8F081D3F807013246214603F20713F3
:10162000C7182846BC46BDE8F041002360474FF08C
:10163000FF30EDE710B500F015F9BDE8104000F0FF
:101640000CB900000048704718000020704775462C
:10165000FFF7F8FFAE4605006946534620F0070045
:10166000854618B020B5FEF749FEBDE820404FF092
:1016700000064FF000074FF000084FF0000BAC469B
:10168000ACE8C009ACE8C009ACE8C009ACE8C009E6
:1016900021F007018D46704710B500F005F8001DD8
:1016A00010BD00BF59DD0000004870473800002021
:1016B000034640688C46002818BF88423CBF03465A
:1016C0004068F8D318681844884207D00CF103002A
:1016D00020F00700001D411A521A0146081D0A6039
:1016E000FFF7E1B82DE9F0411F46044603260168E3
:1016F000072A01F4006004DB08B116A505E016A571
:1017000003E008B115A500E015A521F01000206048
:10171000A069C01EA0610FB1401EA0612046FFF766
:10172000F4F84FB1D4E9012138469047206A401CB3
:101730002062C01C206206E0206AFAE7D4E9012199
:1017400015F8010B9047761EF8D22046FFF7F3F804
:10175000BDE8F0814E414E006E616E00494E46007C
:10176000696E66002DE9F047814616468AB0354815
:1017700078440DC88DE80D0032487844801C03ACD5
:101780000DC884E80D0041F69B300844372190FBDA
:10179000F1F290FBF1F5A5F1800501FB12041B3C71
:1017A00002D56442012000E00020DFF898A08046C6
:1017B0000027FA44AAF1BE0A0EE0E0070AD032463A
:1017C000684607EB470101230AEB81010DF0CBF9D5
:1017D0008DE8070064107F1C002CEED1194F7F4468
:1017E000AE3F19E0E80715D007EB04100DF1180A19
:1017F00090E80E008AE80E00C068F04201D1981906
:1018000008903246012306A903A80DF0ACF903ABFA
:1018100083E807006D10641C002DE3D14FF0010335
:1018200032466946B8F1000F03A802D00DF086F9E0
:1018300001E00DF098F9C9E90001C9F808200AB0E3
:10184000BDE8F08770E9000010B50446AFF30080F2
:101850002046BDE81040FEF73CBD002801D0FFF750
:101860006BBA704710B5002102A000F01AF80120F1
:1018700010BD0000534947414252543A2041626E24
:101880006F726D616C207465726D696E6174696FE1
:101890006E00000010B500F01DF8BDE81040FFF725
:1018A000DCBF70B505460C460A2000E06D1C00F058
:1018B00079F835B128780028F8D102E0641C00F0EE
:1018C00071F814B120780028F8D1BDE870400A20E2
:1018D00000F068B810B5012805D0002103A0FFF77B
:1018E000E0FF012010BD09A1F8E70000534947526D
:1018F000544D454D3A204F7574206F6620686561E0
:1019000070206D656D6F7279000000003A204865A7
:101910006170206D656D6F727920636F7272757082
:10192000746564000000000030B44FF0013C50F8D2
:10193000042B51F8043BCCFA52F4D51A20D1FCB94F
:1019400050F8042B51F8043BCCFA52F4D51A17D1B5
:10195000B4B950F8042B51F8043BCCFA52F4D51A20
:101960000ED16CB950F8042B51F8043BCCFA52F468
:10197000D51A05D1002CDAD030BC4FF000007047EA
:1019800029BAB1FA81F111F01801D1F12000844097
:10199000F2D1CA40CB4012F0FF0213F0FF0330BC7B
:1019A000D01A704708B569468DF800000320ABBE19
:1019B00008BD0000FEE7000040F23830C2F200002F
:1019C00000F00EBC40F23830C2F2000000F008BC5B
:1019D00040F26030C2F2000000F002BC40F2484029
:1019E000C2F2000000F028BF40F2A840C2F200009E
:1019F00000F022BF40F28830C2F2000000F01CBFAD
:101A000080B540F20850C2F2000000F015FF40F629
:101A10007000C2F20000BDE8804003F02BBA000065
:101A200080B540F67000C2F20000202180F83D1021
:101A300040F2E830C2F20000012146F20C4C80F87E
:101A40003510C4F2020C03680CF14C0246F2080E89
:101A50009342C4F2020E06D94FF00061CCF8001098
:101A600093420AD920E00EF1B0018B4210D94FF019
:101A70000061CEF80014934216D80EF1B0018B42EB
:101A80001DD94FF08061CEF80014934212D822E0A5
:101A90000EF150018B424FF0006194BFCEF8001060
:101AA000CEF804109342E8D94FF08061CCF80010D2
:101AB000934210D94FF48001CCF800101EE00EF1D3
:101AC00050018B424FF0806194BFCEF80010CEF8E9
:101AD00004109342EED80EF1B0018B4204D94FF4BA
:101AE0008001CEF8001409E00EF150018B424FF452
:101AF000800194BFCEF80010CEF80410002180F8C9
:101B00003410BDE8804000F097BE00007047000030
:101B1000012001F0E1B90000082001F0DDB900006A
:101B2000102001F0D9B90000202001F0D5B9000043
:101B3000EFF3108072B600002DE9F04140F63C183A
:101B4000044643F60C46C2F200080020C4F2020626
:101B5000C8F81C0001F0A2FA3168C90345D4306806
:101B6000C0071CBF01203060306810F0F20F43D076
:101B70003068C00607D5D8F81C0040F01000C8F83F
:101B80001C00102030603068800607D5D8F81C0093
:101B900040F00800C8F81C00202030603068400683
:101BA00007D5D8F81C0040F00400C8F81C004020FD
:101BB00030603068000607D5D8F81C0040F00200FD
:101BC000C8F81C0080203060306880075CBF0120AE
:101BD000BDE8F081D8F81C0040F02000C8F81C00D7
:101BE000022030600120BDE8F0810546671C07D067
:101BF0005CB90320BDE8F0810020BDE8F08100BFA2
:101C00003068C003ABD5002FFAD001F047FA401B73
:101C1000A042F5D90320BDE8F0810000B0B581B045
:101C20000022009290F83C20012A01D1022176E0A6
:101C3000D1F800E001221FFA8EFC80F83C204FEA28
:101C40004C0212FA8EF30268BEF10A0F32BF103254
:101C50001E3B0C32072415689C4025EA04041460DE
:101C60008C68156804FA03F32B4313604A68062A4C
:101C700007D802EB82014A1F01681F2351F8344F35
:101C80000CE001680C2A02EB820203D851F8304FB5
:101C9000233A02E051F82C4F413A1F23934024EAA3
:101CA00003030B600D680CFA02F22A4342F204337C
:101CB0000A60C4F201030168A3F54172914208BFB2
:101CC000BEF1120F02D0914206D025E01D6845F406
:101CD00080051D6091421FD12EF0010110291BD1FA
:101CE0001968BEF1100F41F40001196014D140F2DF
:101CF0000001C2F2000109684DF68362C4F21B3292
:101D0000A1FB0212910C01EB8101490000910099A5
:101D100011B100990139F9E7002180F83C1008461B
:101D200001B0B0BD002804BF0120704710B50446C3
:101D3000006C30B9204600F09BF80020606484F805
:101D40003C00206CC0063AD4206C41F2021188435A
:101D5000023042F204312064C4F20101086820F428
:101D6000403008600A6894E809101A43D4F810E07B
:101D70000A604168012321F4807141604168C0F626
:101D8000007341EA0E214160416821F040714160D9
:101D9000416841EA0C014160816821F40061816081
:101DA000E168826811438160A16A8268994222F0E9
:101DB00070628260826804D122F040510AE0012002
:101DC00052E011438160816821F040518160E16AF5
:101DD000826811438160816821F00201816081681D
:101DE000227E94F8203041EA42018160416883B14B
:101DF00041F40061416041684EF2000221F460410B
:101E00004160616ACFF6FF72436802EB41311943CA
:101E100001E021F400614160C16A40F2000C21F44C
:101E20007001C162E2696169CFF6F07CC36A0CEBB4
:101E300002521A43C262826822F40072826094F8ED
:101E40003020836843EA42228260826822F4806202
:101E50008260826842EA8121816000206064216C96
:101E6000012262F301012164002184F83C1010BDBD
:101E700080B586B0006842F20022C4F2010200215F
:101E80009042CDE90411CDE90211019116D042F240
:101E90000001C4F20101884238D10020009043F6CD
:101EA0004400C4F20200016841F4807101600068DE
:101EB00000F480700090009806B080BD43F64400A6
:101EC0000091C4F20200026842F48062026002687B
:101ED00002F480620092009A009150F8142C42F0B3
:101EE000200240F8142C50F8140C00F02000009050
:101EF00000984FF4806001900320CDE9020141F287
:101F00000040C4F2020001A900F0F2FF06B080BD5B
:101F100090F82020013A012A04D8006800F1140248
:101F2000002004E000F1240201204FF48021136816
:101F3000194311607047000010B590F820E0D0F808
:101F400000C0AEF1010EBEF1010FDCF808E00DD8C3
:101F50001EF0E05F10D0CEF3016EBEF1030F11D181
:101F600000F1240101204FF4000235E000F12401CA
:101F700001204FF480222FE000F1240101204FF4D2
:101F8000001229E0012000FA0EF01860886828B1DC
:101F90004B68CC6844EAC303034303E00868CB689A
:101FA00043EA40530CEB0E10C0F880310B69C0F8C7
:101FB0008431097D012905D100F5C2710B6843F414
:101FC00080730B605168C0F88C11126800F5C07105
:101FD000C0F88821002001220B681A430A6010BD56
:101FE000B0B590F82020013A012A2FD846F20060BF
:101FF000C4F20000026842F001020260026822F4AA
:102000007C520260D1F814E0CC694A6A0368012C62
:1020100043EA022202600EF01F024FF0010303FAAE
:1020200002F2C3696FEA020C23EA0203C36113D010
:102030002CBBC36803EA0C03C360CB688C8844EAFA
:10204000034300EBCE0423640B4611E0416A41F4E4
:10205000802141620120B0BDC3681343C3600B6897
:102060008C8844EA034300EBCE04236401F10C03A3
:102070008C681B8843EA044300EBCE046364436826
:102080008D6943EA0204D1F810E0096A002D08BF07
:1020900003EA0C0444604369BEF1000F43EA020402
:1020A00008BF03EA0C040129446102D1C16911434C
:1020B000C161016821F0010101600020B0BD000094
:1020C0007047000010B590F82040013C012C0CD85E
:1020D000D0F800C079B1DCF81040A4070FD100F1AE
:1020E000240101204FF4001270E000F124010120CE
:1020F0004FF480226AE0DCF80C40A4076AD0046840
:1021000004EB011CDCF8B0410CF5D87E14F004049B
:102110009460DCF8B04119BFE4085460640D1460A9
:10212000DEF80040002904F00204D460DCF8B44179
:1021300004F00F041461DCF8B441C4F30724946183
:10214000DCF8B4414FEA14445461DCF8B8211A7049
:10215000026802EB0112D2F8B8214FEA12225A703B
:10216000026802EB0112D2F8B8214FEA12429A70CB
:10217000026802EB0112D2F8B8214FEA1262DA705B
:10218000026802EB0112D2F8BC211A71026802EB5C
:102190000112D2F8BC214FEA12225A71026802EBF6
:1021A0000112D2F8BC214FEA12429A71026802EB86
:1021B0000112D2F8BC214FEA1262DA71006814BF32
:1021C00000F1100100F10C01002020220B681A43DD
:1021D0000A6010BD00F1240101204FF40012F5E760
:1021E0002DE9F04F81B0044600684669D0F80490AC
:1021F0008768D0F80CB0D0F810A0D0F81880F1079C
:1022000003D1002530071CD423E0F90710D00121A9
:10221000BA07816009D4780700F1AA80380700F175
:10222000B080204600F0A4FA02E0204600F0A2FAB6
:102230000025F80500F18480F80300F1AA8030073A
:1022400007D51BF0100004D0206845F4007510215C
:10225000C160700708D51BF0080005D02068082170
:10226000C160204600F0F8F9B00706D52068C068C4
:10227000800702D0204600F0F1F9700607D51AF069
:10228000100004D0206845F4806510210161B0067B
:1022900008D51AF0080005D0206808210161204601
:1022A00000F032FAF00606D520680069800702D0F7
:1022B000204600F02BFAB00308D519F0100005D025
:1022C000206810214160204600F022FAF00308D572
:1022D00019F0080005D0206808214160204600F070
:1022E00053FA300440F18F805FEA497040F18880F2
:1022F00006F4807008EA102028435FEA88710146DE
:1023000048BF41F00201B20558BF01465FEA48707C
:102310000D4648BF45F00405700558BF0D46300511
:102320006ED518F070006BD010380009052862D8FF
:10233000DFE800F0035356595C5F45F008055AE0AA
:1023400020684FF48071BA0581600AD4780512D4F0
:10235000380519D4204600F00FFAF8037FF56FAF67
:1023600017E0204600F00AFAF8037FF568AF10E0A6
:102370004FF400655DE705F50055F8037FF55FAFA5
:1023800007E04FF4805554E705F58045F8037FF5E5
:1023900056AF20684FF48031BA0381600AD47803C5
:1023A0000FD4380313D4204600F0EAF930073FF584
:1023B00048AF4EE7204600F0E5F930073FF541AF62
:1023C00047E705F5004530073FF53BAF41E705F529
:1023D000803530073FF535AF3BE745F010050AE0A3
:1023E00045F0200507E045F0400504E045F0800594
:1023F00001E045F480752068816921F070018161F8
:102400002068042141604DB1606A40EA0501204620
:10241000616201B0BDE8F04FFFF752BE01B0BDE808
:10242000F08F0000B0B5C8B1044690F8200010B994
:10243000204600F071F82068016841F00101016058
:1024400000F02CFE054600BF20684168C90707D18F
:1024500000F024FE401B0B28F6D312E00120B0BD93
:10246000016821F00201016000F018FE054600BF7E
:102470002068416889070DD500F010FE401B0B282D
:10248000F6D3606A052140F400306062012084F8D0
:102490002010B0BD217E0268012922F0800208BF11
:1024A00080320260617E0268012922F0400208BF8A
:1024B00040320260A17E0268012922F0200208BF9A
:1024C00020320260E17E0268012922F0100218BF6A
:1024D00010320260217F0268012922F0080208BF41
:1024E00008320260617F0268012922F0040208BFFD
:1024F00004320260D4E901C2D4E9033561691A43A8
:102500002A431143ACF101021143C16100200121B2
:10251000606284F82010B0BD10B586B0006846F641
:102520000002C4F2000200219042CDE90411CDE97D
:102530000211019146D046F20041C4F200018842E6
:1025400040F0888040F27801C2F200010A6843F648
:102550004000C4F20200531C0B6052B900210091EC
:10256000016841F000710160016801F000710091A3
:1025700000990021009150F8102C42F0080240F818
:10258000102C50F8100C022200F008000090009867
:102590000320019004900920059040F20040C4F20D
:1025A0000200CDE9022100F5006001A900F0A0FCC5
:1025B00014200021002200F04FFF142000F03CFF07
:1025C00015243FE043F64000C4F202000091016888
:1025D00041F080610160016801F080610091009923
:1025E00040F27801C2F200010A68531C0B6052B934
:1025F00000210091016841F000710160016801F063
:102600000071009100990021009150F8102C42F0C7
:10261000020240F8102C50F8100C00F0020000905C
:102620000098602001900220CDE90201032004906F
:102630000920059040F20040C4F2020001A900F018
:1026400057FC402420460021002200F005FF2046D0
:1026500000F0F2FE06B010BD70470000F0B589B082
:102660006C4602AA002123460746FFF72BFD40F2E5
:102670003830C2F20000874240F66010C2F200001B
:102680001CD190F8B81AC9B1002104E090F8B82A1A
:102690000131914212D200EB8102D2F8BC3A029D84
:1026A0001B889D42F2D102F6BC2200231568E65C2D
:1026B0001D440133082BEE70F8D1E7E740F260319A
:1026C000C2F200018F421DD190F8681CD1B10021E7
:1026D00005E000BF90F8682C0131914212D200EB66
:1026E0008102D2F86C3C029F1B889F42F2D102F615
:1026F0006C4200231768E65C1F440133082BFE7010
:10270000F8D1E7E709B0F0BD70470000704700005E
:1027100070470000B0B5044690F8200001281DD194
:10272000022084F820002068016821F00101016086
:1027300000F0B4FC054600BF20684068C00713D015
:1027400000F0ACFC401B0B28F6D3606A40F400306C
:102750006062052084F820000120B0BD606A40F46A
:10276000002060620120B0BD00206062B0BD0000AA
:10277000704700007047000070470000704700007D
:1027800070470000704700007047000070B5866D0C
:10279000044600F083FC94F83510022925D1054643
:1027A0002068216C026822F016020260426922F061
:1027B0008002426109B9A16C19B1016821F00801D8
:1027C0000160016821F00101016000BF206800681C
:1027D000C0070ED000F062FC401B0628F6D3202074
:1027E0006065032084F835000CE0802060650120DE
:1027F00008E0E06D3F2101FA00F0B060012084F8AC
:1028000035000020002184F8341070BD90F8351098
:10281000022909D1052180F835100068016821F0EE
:10282000010101600020704780214165012070474F
:1028300090F8350070470000F0B581B004460020E4
:10284000009040F20000C2F200000268D4E9166075
:1028500048F2B51337680821C1F64E33814039423A
:10286000A2FB03250CD0226813685B0708D5136808
:1028700023F004031360B160616D41F001016165F3
:1028800001218140394208D022685269120604D5DC
:10289000B160616D41F002016165042181403942FE
:1028A00008D022681268920704D5B160616D41F0CA
:1028B0000401616510218140394215D02068026809
:1028C000120711D5B16002680168520306D4C90528
:1028D00006D4016821F00801016001E008033ED43C
:1028E000216C09B120468847E16D202000FA01F2F1
:1028F0003A4240D020680368DB063CD5B26094F8C9
:1029000035300268052B1AD122F0160202604269A6
:1029100022F080024261226C0AB9A26C1AB10268EC
:1029200022F0080202603F208840B060012084F855
:102930003500216D002084F83400D9BB3FE00168E8
:10294000520310D4C90512D4016821F010010160AE
:10295000012084F83500002084F8340007E0A16CE1
:102960000029BFD1C0E7080301D4616C00E0E16B2E
:1029700009B120468847606D08B3606DC00717D065
:10298000052084F835002068A90A026822F00102B7
:10299000026000BF009A01328A42009202D80268A7
:1029A000D207F7D1012084F83500002084F83400E4
:1029B000E16C21B1204601B0BDE8F040084701B00C
:1029C000F0BD00002DE9F041044600F067FBC4B102
:1029D0000546022084F835000020216884F8340080
:1029E000086820F00100086020680168C9070BD062
:1029F00000F054FB401B0528F6D9032120220320B8
:102A00007AE00120BDE8F081016848F23F02CFF290
:102A10001002D4E9013501EA020ED4E9032143EAA8
:102A20000E032B43D4E9056C1A43D4E9077811430C
:102A3000314341EA0702616A42EA0802042942EA94
:102A40000C0303D1D4E90B273A43134303604269D3
:102A5000042922F0070241EA02012DD1D4E90A53E8
:102A600041EA050143B3BCF5005F08D0BCF1000F9B
:102A700012D1022D16D0012D07D09DB119E0032DE2
:102A800017D8DFE805F00B0F0B02A3F1C072B2FA02
:102A900082F252094AB90FE0032D02D2012222B973
:102AA0000AE006D1C3F3006232B1012140220120C5
:102AB00022E00022002AF8D100F0F8024AF6AB2307
:102AC000103ACAF6AA23A2FB033740F2E073416131
:102AD0003909C0F60103595C40F2FF3398435F2A7D
:102AE0004FF03F0288BF0430C4E9160102FA01F139
:102AF0008160002201210020626584F83510BDE864
:102B0000F081000070B590F834C0BCF1010F45D0E1
:102B10004FF0010C80F834C0D0F858E090F835C080
:102B2000BCF1010F37D14FF0020C80F835C04FF0E7
:102B3000000CC0F854C0D0F800C08468056CC06DAB
:102B4000DCF80060402C26F48026CCF80060CCF83D
:102B500004300B4604BF13460A463F2101FA00F039
:102B6000CCF80830CCF80C20CEF80800DCF80000D7
:102B700040F01600CCF800002DB1DCF8000040F069
:102B80000800CCF80000DCF8000040F00100CCF8B0
:102B90000000002070BD002180F83410022070BDBC
:102BA000B0B5044600F07AFA054640F20C00C2F2D5
:102BB00000000078611C18BF044400BF00F06EFAEA
:102BC000401BA042FAD3B0BD2DE9F04381B040F6DE
:102BD0003C18C2F2000898F81820012A03D10220FC
:102BE00001B0BDE8F0830546012088F818004CF2DA
:102BF00050308946FEF7A0FF002840F093804FF048
:102C0000FF31C9F80010296843F610470129C4F2C2
:102C1000020718D128693968000221F4407139602F
:102C2000396880B241F0040139603968084340F4E2
:102C3000803038604CF25030FEF77EFF396821F06A
:102C40000401396036E0D5E9026131448E4231D267
:102C5000F000841C28694FF44072C1B2032939681E
:102C60004FEA002021F440713960396838BF82B2E0
:102C700041EA02003860386820F0F80038603868AF
:102C800020433860386840F4803038604CF250306F
:102C9000FEF752FF396821F0FA01396040B9D5E9F1
:102CA0000212013611448E4204F10804D2D301E02D
:102CB000C9F8006057F8101C890517D557F8101C83
:102CC00021F4007147F8101C57F8101C41F4006102
:102CD00047F8101C57F8101C21F4006147F8101C2D
:102CE00057F8101C41F4007147F8101C57F8101CDD
:102CF000490517D557F8101C21F4806147F8101CBE
:102D000057F8101C41F4805147F8101C57F8101C5C
:102D100021F4805147F8101C57F8101C41F48061D1
:102D200047F8101C002188F8181001B0BDE8F083A6
:102D300043F61041C4F20201086840F0004200204E
:102D40000A6070472DE9F04381B040F63C14C2F2AE
:102D500000049046227E012A03D1022001B0BDE882
:102D6000F0830746012020764CF250301E460D4677
:102D7000FEF7E2FE002866D143F61049022FC4F2A6
:102D8000020915D0012F28D0E7BBD9F8000020F4A4
:102D90004070C9F80000D9F80000C9F80000D9F85F
:102DA000000040F00100C9F8000085F8008040E014
:102DB000D9F8000020F44070C9F80000D9F80000EC
:102DC00040F40070C9F80000D9F8000040F001009C
:102DD000C9F80000C5F800802BE0D9F8000020F405
:102DE0004070C9F80000D9F8000040F48070C9F8BC
:102DF0000000D9F8000040F00100C9F80000A5F873
:102E0000008016E0D9F8000020F44070C9F80000F6
:102E1000D9F8000040F44070C9F80000D9F800006B
:102E200040F00100C9F80000C5F80080BFF36F8FC3
:102E30006E604CF25030FEF77FFED9F8001021F0A2
:102E40000101C9F800100021217601B0BDE8F0832E
:102E500043F60440C4F20200C168B1F1FF3FC4BFB1
:102E60000020704740F22311C4F26751016048F618
:102E7000AB11CCF6EF510160C068C00F7047000085
:102E8000F0B5ADF66C1D102823D140F66010C2F2EB
:102E9000000041F208414458DCB140F28406C2F21D
:102EA0000006316840F28807C2F2000701AD3960C0
:102EB00000F5A871284640F66812FDF735FC284653
:102EC0000BF0C6F8306021683A688B68811A20469A
:102ED00098470DF66C1DF0BD43F61441C4F2010194
:102EE0000A68024214BF08607047FFF7C9BF0000BC
:102EF0002DE9F04F82B000F13E4241F6004502F16B
:102F0000FF77C4F2020508224FEAB726A84208BF9D
:102F10000722072E38BF4FEAB7224FF0010A0024DC
:102F200000274FF00009009209E000BF09F10109F4
:102F30000237B9F1100F04F1040400F0A6800A680A
:102F40000AFA09FC12EA0C08F0D0D1F804B00BF030
:102F5000030AAAF10102012A12D882680323CE686B
:102F600003FA07FE22EA0E02BE4032438260426844
:102F7000CBF3001622EA0C0206FA09F6324342604D
:102F8000BAF1030F1DD0C26803238D6803FA07F658
:102F9000B24305FA07F63243BAF1020FC26010D10C
:102FA0006FF0030202EA59020244D2F820C004F092
:102FB0001C050F230E69AB402CEA0303AE403343DC
:102FC0001362026803234E68BB409A4306F0030372
:102FD000BB401A4316F4403F4FF0010A0260A5D0EF
:102FE000002243F644030192C4F202031A6843F636
:102FF000004E42F480421A601A68C4F2010E02F4D4
:1030000080420192019A29F003024FF6084C724463
:10301000CFF6FF7C52F80C3004F00C060F25B540BB
:10302000AB43009D05FA06F6334342F80C30DEF858
:1030300008204B6842EA080643F60C4CDD0258BFF4
:1030400022EA0806CEF80860C4F2010CDCF8002081
:103050009D0242EA080658BF22EA0806CCF8006042
:10306000DEF804209D0342EA080658BF22EA08065B
:10307000CEF80460DEF80020DB0342EA080658BF01
:1030800022EA0806CEF8006050E702B0BDE8F08FF3
:10309000002A08BF090481617047000041F6A05072
:1030A000C2F2000000687047F0B581B0B0B30446CA
:1030B00090F83D0028B9002084F83C00204600F03C
:1030C000BFF8242084F83D002068016821F0010148
:1030D0000160016841F400410160016821F4004190
:1030E000016000F0A5FA48F28041C0F21E0140F6EE
:1030F0000012656888424FF00001C0F23D0248F2BC
:10310000A16C4FF0000338BF01219042C0F2010CC6
:1031100038BF0123654538BF0B4613B1012001B00C
:10312000F0BD4DF68361C4F21B31A0FB0112216892
:103130004FEA924E4B684FF4967623F03F0343EAF2
:1031400092434B6044F6D3530F6A0EFB06F6C1F26E
:103150006203A6FB033627F03F03B709654538BF76
:10316000970C7A1C1A430A62CA6948F2A0674CF6A7
:10317000FF73C0F20107BD4222EA030C0AD80138EE
:103180006A00B0FBF2F001306FF31F30042898BFE3
:1031900004202BE0A368A0F1010E9BB11920684325
:1031A000BEFBF0F00422013062F31F30000512D0A4
:1031B0009BB119206843BEFBF0F00422013062F39A
:1031C0001F3011E005EB4500BEFBF0F001306FF35E
:1031D0001F300005ECD1012008E005EB4500BEFBE7
:1031E000F0F001306FF31F3040F4004040EA0C0073
:1031F000C8610868D4E9072320F0C00010431843D1
:103200000860886848F2FF3204F10C0790438CCFC5
:1032100018431043A6698860C86820F0FF0038434F
:103220003043C860086840F0010008600020202199
:10323000206484F83D10206384F83E0001B0F0BDA6
:103240002DE9F04F87B0006845F60041C4F2000157
:1032500000268842CDE90566CDE90366029632D0A4
:1032600045F60001C4F20001884273D1002543F6FF
:1032700030040195C4F202042068122140F02000BD
:103280002060206800F02000019001980320039145
:1032900001210290CDE90410042006900020C4F220
:1032A000020000F5A05002A9FFF722FE0195206957
:1032B00040F480002061206900F4800001900198B2
:1032C00007B0BDE8F08F43F630070196C4F202075D
:1032D0003868002440F0040038603868C4F2020402
:1032E00000F00400019001980196386802AD40F0AA
:1032F0000100386038684FF0120800F001000190BA
:1033000001984FF4007002904FF001094FF0030A4A
:103310004FF0040B04F500602946CDF80C80CDF881
:103320001090CDF814A0CDF818B0FFF7E1FD4FF4E0
:10333000807002A981E8010F20462946FFF7D8FDD9
:103340000196386940F400003861386900F40000E3
:103350000190019807B0BDE8F08F000040F20C002A
:1033600041F6A051C2F20000C2F2000100780A68E2
:10337000104408607047000080B543F60040C4F276
:103380000200016841F400710160016841F480614C
:103390000160016841F480710160032000F088F849
:1033A000002000F005F800F02BF8002080BD0000A0
:1033B000B0B540F20C02C2F2000240F200011278F5
:1033C000C2F200014FF47A730968B3FBF2F20446CB
:1033D000B1FBF2F1084600F00DFD0F2C4FF0010596
:1033E0000CD858B94FF0FF3021460022002500F0DC
:1033F00033F840F21000C2F2000004602846B0BD6D
:1034000082B0002043F640010190C4F202014A68F4
:1034100042F480424A604A6802F480420192019A72
:103420000090086840F080500860086800F0805004
:103430000090009802B07047002848BF704700F025
:103440001F01012202FA01F14EF200124009CEF2F0
:10345000000242F82010704710B54EF60C5CCEF218
:10346000000CDCF80030C3F3022E8EF00704042CAD
:1034700028BF0424BEF103034FF0FF3E0EFA04F40C
:1034800038BF0023A14399400EFA03F39A43114336
:1034900000F1604200F00F03090102F56442043BB1
:1034A0006344002848BF03F10C02117010BD0000F6
:1034B0004EF60C51CEF200010A684FF6FF031A4097
:1034C00060F30A2242F0806040F0FD7008607047AF
:1034D0002DE9F041002800F08B8043F60808C4F283
:1034E00002080446D8F8F8030D4600F007008842A9
:1034F00007D288F8F853D8F8F80300F00700A8427C
:1035000076D12068810717D5410705D5D8F8001076
:1035100041F4E051C8F80010010705D5D8F80010B3
:1035200041F46041C8F80010D8F80010A26821F0FA
:10353000F0011143C8F80010C0073FD1D8F8F803D4
:1035400000F00700A84207D988F8F853D8F8F80324
:1035500000F00700A8424BD12068410707D5D8F8F2
:103560000010E26821F4E0511143C8F80010000790
:1035700008D5D8F80000216920F4604040EAC10075
:10358000C8F8000000F07CF8D8F8001040F2D4121F
:10359000C1F30311C0F60102515C40F2000220FAAF
:1035A00001F140F21000C2F200000068C2F2000215
:1035B0001160FFF7FDFE0020BDE8F0816068811E0C
:1035C000022907D258F8081C89015CBF0120BDE818
:1035D000F08110E0012807D158F8081C89035CBF6E
:1035E0000120BDE8F08106E058F8081C890702D4E4
:1035F0000120BDE8F081D8F8001021F00301084354
:10360000C8F80000FFF74AFD064641F2883700BFC0
:10361000D8F80000616800F00C00B0EB810F8DD08D
:10362000FFF73CFD801BB842F2D90320BDE8F081D2
:1036300040F2000043F60801C2F20000C4F20201A9
:103640000068096840F2E412C1F38221C0F6010269
:10365000515CC8407047000040F2000043F608018A
:10366000C2F20000C4F202010068096840F2E412EC
:10367000C1F34231C0F60102515CC84070470000FE
:1036800010B543F60404C4F20204606800F00C00B4
:1036900008280AD0042819BF42F20040C0F2F40002
:1036A00041F60030C0F2B70010BD206821682368E1
:1036B000490241F60031C0F2B70100F03F02C3F306
:1036C00088105CBF42F20041C0F2F401A1FB00018E
:1036D0000023FCF725FE21680222C1F3014102EB21
:1036E0004101B0FBF1F010BD2DE9F04182B000289E
:1036F00000F0A1800446007843F60006C007C4F23B
:10370000020643D0B06800F00C00042805D13068F0
:1037100080033BD56068C8BB8DE0B06800F00C004A
:10372000082802D170684002F1D46568B5F5A02F71
:103730000AD0B5F5803F0BD0306820F4803030607F
:10374000306820F4802006E0306840F4802030604B
:10375000306840F480303060FFF7A0FC002D054653
:1037600011D000BF3068800310D4FFF797FC401BD6
:103770006428F7D920E100BFFFF790FC401B6428C4
:103780004FF0030054D830688003F5D420788007C8
:103790001AD5B06810F00C0F09D0B06800F00C001A
:1037A000082840F088807068400200F1848030680A
:1037B000800702D5E06801283DD13068216920F0FA
:1037C000F80040EAC10030602078000737D4207844
:1037D00040074AD4A56955B3B06800F00C0008282A
:1037E00040F09C80012D26D07068E16900F48002D1
:1037F0008A4220D1216A00F03F028A421BD147F65B
:10380000C071626A0140B1EB821F14D1A16A4FF608
:10381000FF73C903994300F44032A1F580318A4215
:1038200009D1E16A00F07060B0EB016F03D10020B4
:1038300002B0BDE8F081012002B0BDE8F08160690E
:10384000002840F20000C4F2472056D00121C0F801
:10385000801EFFF723FC0546706F8007B7D4FFF783
:103860001DFC401B0228F7D9A6E0306C10F08058F0
:103870000AD100200190306C40F080503064306CF0
:1038800000F080500190019847F20007C4F2000751
:103890003868C00524D4386840F480703860FFF779
:1038A000FDFB05463868C0051AD4FFF7F7FB401B3F
:1038B0000228F7D980E0E068002851D00020C4F247
:1038C000472001210160FFF7E9FB054630688007CA
:1038D0003FF573AFFFF7E2FB401B0228F6D96BE020
:1038E000A568052D50D0012D52D0306F20F0010079
:1038F0003067306F20F004004DE00021C0F8801EDA
:10390000FFF7CCFB054600BF706F80077FF55FAF08
:10391000FFF7C4FB401B0228F6D94DE00027C4F294
:10392000472700203866FFF7B9FB022D05460BD16B
:103930003068800158D5FFF7B1FB401B02284FF0DB
:103940000300F5D974E700BF306880017FF56FAFE1
:10395000FFF7A4FB401B02284FF00300F4D967E7F0
:103960000020C4F2472000210160FFF797FB0546C5
:10397000306880077FF528AFFFF790FB401B0228D7
:103980004FF00300F4D953E7306F40F00400306784
:10399000306F40F001003067FFF780FB002D0546D7
:1039A00041F2883714D000BF306F800713D4FFF77F
:1039B00075FB401BB842F7D9032002B0BDE8F08187
:1039C000FFF76CFB401BB8424FF003003FF630AFEF
:1039D000306F8007F4D4B8F1000F7FF4FBAE306C89
:1039E00020F080503064F5E604F11C052FCD08432B
:1039F00040EA8210D9034FF6FF729143A1F580315E
:103A000040EA05600843706001203866FFF746FB16
:103A1000044600BF306880013FF509AFFFF73EFB69
:103A2000001B02284FF00300F4D901E770B538B14C
:103A30000446406A30B10020206104F1140007E020
:103A4000012070BD6068B0F5827F03D004F11C00D6
:103A5000002101600026A66294F8510020B920469A
:103A600084F8506000F03CF8022084F8510094E89B
:103A70000F0001F48271056802F4044225F040054C
:103A80000560114403F400622369114403F002024B
:103A90006369114403F00102A369E569114403F469
:103AA0000072114405F03802256A114405F08002C5
:103AB000A56A114305F4005211430160626A0421B2
:103AC00001EA134102F0100211444160C16921F47E
:103AD0000061C1610120666584F85100304670BD07
:103AE000F0B587B0006843F60002C4F2000200217E
:103AF0009042CDE90511CDE90311029141D043F285
:103B00000001C4F20101884264D1002543F630006F
:103B10000195C4F20200416940F2004441F4805131
:103B200041614169C4F2020401F48051019101999B
:103B300001950168022641F0020101600168032736
:103B400001F00201019101990195016841F0010123
:103B50000160006802A900F001000190019818209E
:103B60000290052006902046CDE903650597FFF7F2
:103B7000BFF98020CDE90206CDE90457A4F58060A5
:103B800023E043F630000191C4F20200026942F4DE
:103B900080420261026902F480420192019A01911D
:103BA000026842F002020260006800F00200019028
:103BB00001984FF4604002900220CDE903010320F8
:103BC000059040F20040C4F202000521069102A9CE
:103BD000FFF78EF907B0F0BD2DE9F04383B004463E
:103BE00090F85000012803D1022003B0BDE8F08313
:103BF00001201E4615460F4684F85000FFF74EFA86
:103C000094F85110814601290AD06068B0F5827F8E
:103C100070D1A06800284FF0020008BF04296AD1C3
:103C2000002F4FF0010018BF002D64D0002E62D08D
:103C300094F85100002104281CBF052084F851008D
:103C40006165A563E687A6872763E6862068A68662
:103C5000216461640168490603D4016841F04001B0
:103C600001606168731EE268B1FA81F1B3FA83F30F
:103C7000DDF8288049095B09B2F5006F41EA0301CC
:103C800042D131B137F8021BC1602763E08E0138A1
:103C9000E086012608F10105E08E10B9E08F0028CA
:103CA0006ED02068816889070CD5E18E51B1012E54
:103CB00008D1216B002631F8022BC2602163E18E0E
:103CC0000139E1868168C9070AD0E18F41B1C06836
:103CD000A16B012621F8020BA163E08F0138E08778
:103CE000FFF7DCF9002DD7D0A0EB09004045D3D376
:103CF000032000E00220012184F85110002184F803
:103D0000501003B0BDE8F08339B139780173206BEE
:103D100001302063E08E0138E086012608F10105BC
:103D2000E08E08B9E08F58B32068816889070DD507
:103D3000E18E59B1012E09D1216B0026097801735A
:103D4000206B01302063E08E0138E08620688168B6
:103D5000C9070BD0E18F49B1C068A16B012608707B
:103D6000A06B0130A063E08F0138E087FFF796F980
:103D7000002DD5D0A0EB09004045D1D30320BAE7F0
:103D800040F20000C2F20000006849F68171C1F201
:103D90005E61A0FB0101480D4FF47A714843029027
:103DA0006068B0F5827F0ED12046802142464B46A6
:103DB00001F072FF80B1606D40F02000606520204E
:103DC0006065012097E7029830B1029801380290AF
:103DD000206880680006F6D4A06800284FF0000034
:103DE0007FF489AF01902168CA68019289680191C6
:103DF000019980E7411E0020B0EB116F1CBF01202C
:103E000070474EF21002CEF2000251604EF623517E
:103E1000CEF20001F0230B70072190601160704713
:103E20007047000070470000B0B590F83C20012AB0
:103E300004BF0220B0BD01F108053CCDD1E900CEA0
:103E400023F47C5322F470521A432EF4F0431A43A5
:103E50002CF4E0431A4324F4C0431A432A43C969AB
:103E600022F48042036811435964002180F83C1019
:103E70000846B0BD10B590F83C20012A4FF0020270
:103E800052D0012380F83C3080F83D200268D2F8FF
:103E900004E0D2F808C00C682EF07003234341F20E
:103EA000FF74C4F20004A24253600DDC40F2FF73C1
:103EB000C4F200039A4215DCB2F1804F29D040F2DF
:103EC0000043C4F2000322E040F2FF33C4F20103D6
:103ED0009A4212DC41F60003C4F200039A4218D061
:103EE000002312E040F60003C4F200039A4210D00F
:103EF00040F60043C4F2000309E044F20003C4F2B8
:103F000001039A4205D040F20043C4F201039A42F1
:103F100004D149682CF080031943916001210022EB
:103F200080F83D1080F83C20104610BD002804BFEA
:103F30000120704710B5044690F83D0028B90020D4
:103F400084F83C00204600F01FF8022084F83D0071
:103F50002068211D01F02EFF012084F8460084F81E
:103F60003E0084F83F0084F8400084F8410084F863
:103F7000420084F8430084F8440084F8450084F843
:103F80003D00002010BD000080B582B000684FF6F3
:103F9000FF71C4F20001884221DD44F20041C4F205
:103FA000010188423DD040F20041C4F20101884243
:103FB00048D00021C4F20101884241D10020019083
:103FC00043F64400C4F20200016841F001010160BF
:103FD000006800F001000190019802B080BDB0F1CE
:103FE000804F4DD040F60041C4F20001884227D1F5
:103FF0000020019043F64400C4F2020050F8041C73
:10400000002241F0080140F8041C50F8040C002183
:1040100000F00800019001983220FFF71DFA3220CD
:1040200046E00020019043F64400C4F2020001681B
:1040300041F400310160006800F400300190019803
:1040400002B080BD0020019043F64400C4F202009B
:104050000168002241F0020101600068002100F0C7
:104060000200019001982B20FFF7F6F92B20FFF7B3
:10407000E3F92C2000210022FFF7EEF92C2017E0B5
:104080000020019043F64400C4F2020050F8041CE2
:10409000002241F0010140F8041C50F8040C0021FA
:1040A00000F00100019001981C20FFF7D5F91C20B9
:1040B00002B0BDE88040FFF7BFB9000090F83D10A6
:1040C00001291CBF01207047022180F83D100068C3
:1040D00041F2FF72C168C4F20002904241F0010156
:1040E000C1600DDC40F2FF71C4F20001884215DCB2
:1040F000B0F1804F29D040F20041C4F2000122E02B
:1041000040F2FF31C4F20101884212DC41F60001A5
:10411000C4F20001884218D0002112E040F60001EC
:10412000C4F20001884210D040F60041C4F2000100
:1041300009E044F20001C4F20101884205D040F2D6
:104140000041C4F20101884206D1816801F00701F3
:10415000062904BF00207047016841F00101016099
:104160000020704780B590F83C20012A4FF00202F1
:1041700000F0C280012380F83C3080F83D20D0F868
:1041800000C04FF67772DCF8083023EA0202CCF860
:1041900008200B684F2B28DC1F2B43DD202B44D03D
:1041A000302B42D0402B40F0A980D1F804E0C96800
:1041B000DCF82030DCF8202022F00102CCF82020AE
:1041C000DCF8182022F0F00242EA011123F00A0282
:1041D00042EA0E02CCF81810CCF82020DCF80810C7
:1041E00041F0470121F030017DE06F2B25DDB3F573
:1041F000005F46D0B3F5805F77D0702B7ED1D1E9D8
:1042000001E3C968DCF8082043EA0E0322F47F4288
:1042100043EA01211143CCF80810DCF8081041F002
:10422000770160E00BB1102B68D1DCF8081021F0A9
:104230007001194341F0070155E0502B34D0602B39
:104240005CD1D1F804E0C968DCF8203023F0100319
:10425000CCF82030DCF81830DCF8202023F4704350
:1042600022F0A00243EA013142EA0E12CCF8181003
:10427000CCF82020DCF8081041F0670121F0100193
:1042800031E0D1E901E3C968DCF8082043EA0E0314
:1042900022F47F4243EA01211143CCF80810DCF8F4
:1042A000081041F480411EE0D1F804E0C968DCF850
:1042B0002030DCF8202022F00102CCF82020DCF8AD
:1042C000182022F0F00242EA011123F00A0242EA29
:1042D0000E02CCF81810CCF82020DCF8081041F0C1
:1042E000570121F02001CCF808100022012180F8AC
:1042F0003D10002180F83C10104680BD0122F5E7FA
:104300007047000010B5044600680169890744BF82
:10431000C1685FEA81713FD420680169490744BFE1
:10432000C1685FEA417143D420680169090744BF4D
:10433000C1685FEA017148D420680169C90644BFB9
:10434000C1685FEAC1614CD420680169C9071CBF1C
:10435000C1685FEAC17151D120680169090644BF93
:10436000C1685FEA016150D420680169490644BF11
:10437000C1685FEA41614FD421680869800646BF81
:10438000C8685FEA806010BD6FF0200220460A61B5
:10439000BDE81040FFF746BD6FF002010161012149
:1043A0002177806980073ED02046FFF7A9FF40E0D3
:1043B0006FF00401016102212177806910F4407FD0
:1043C0003AD02046FFF79CFF3CE06FF00801016106
:1043D00004212177C069800737D02046FFF790FF7E
:1043E00039E06FF01001016108212177C06910F4F4
:1043F000407F33D02046FFF783FF35E06FF00101A7
:104400000161204600F0BAFAA6E76FF08001016171
:104410002046FFF705FDA7E76FF040010161204648
:1044200000F0A2FBA8E7204600F0B6F8204600F016
:104430000BFA002020776FE7204600F0ADF8204609
:1044400000F002FA002020776EE7204600F0A4F882
:10445000204600F0F9F9002020776DE7204600F0B3
:104460009BF8204600F0F0F9002020776CE7000070
:1044700080B586B0006840F2FF31C4F20101884285
:104480004FF000010591CDE90311CDE9011124DCC4
:1044900040F60001C4F20001884242D00021C4F27B
:1044A0000101884276D10020009043F63000C4F22A
:1044B0000200016841F0100101600068012100F074
:1044C0001000009000984FF42060019040F60040EA
:1044D000C4F2020000F5806053E040F20041C4F2F3
:1044E0000101884235D044F20041C4F20101884202
:1044F00050D10020009043F63000C4F20200016861
:1045000041F020010160006800F020000090009858
:104510004020019040F60040C4F2020000F5006027
:104520002EE00020009043F63000C4F20200016843
:1045300041F0080101600068022100F008000090CD
:1045400000984FF48040019040F60040C4F2020011
:1045500017E00020009043F63000C4F2020001682A
:1045600041F480710160006800F480700090009850
:10457000C020019040F60040C4F2020000F5A050B7
:104580000321022202920022059101A9CDE9032212
:10459000FEF7AEFC06B080BD704700002DE9F04389
:1045A00090F83C30012B04BF0220BDE8F0834FEAB5
:1045B000B2020123032A80F83C3000F2F580DFE8E4
:1045C00002F0023E7DBD036840F200471A6A43F4E0
:1045D000806522F001021A621C6A1A46D3F804E0D0
:1045E00052F818CF8E6824F00204C4F20107BD42CD
:1045F00044EA060405D1CE6824F00C0426F0040633
:1046000034430E68BD4207D1D1E905572EF4407EF0
:1046100045EA0E0545EA070E2CF073073743C3F849
:1046200004E09F614F6809695F631C629F6947F0FE
:1046300008079F619F6927F004079F61B0E0036846
:1046400040F200481A6A43F4806522F010021A62B0
:104650001C6A1A46D3F804C052F818EF8F6824F089
:104660002004C4F20108454544EA071407D1CF6885
:104670006FF0400624F0C00406EA07163443D1F870
:104680000090454506D1D1E905562CF440672E43EC
:1046900047EA860C2EF4E64747EA0927C3F804C028
:1046A0009F614F6809699F631C629F6947F40067B7
:1046B0009F619F6927F480679F6170E0036840F203
:1046C00000481A6A43F4806522F480721A621C6AF8
:1046D0001A46D3F804C052F81CEF8F6824F4007413
:1046E000C4F20108454544EA072408D1CF6840F2E6
:1046F000FF463F0224F4406427EA06063443D1F81B
:104700000090454506D1D1E905562CF440572E437B
:1047100047EA061C2EF0730747EA0907C3F804C0EE
:10472000DF614F680969DF631C62DF6947F00807D2
:10473000DF61DF6927F00407DF6131E0036840F2E1
:1047400000451A6A43F4806722F480521A621A46BE
:10475000D3F820C05C6852F81CEFD1F800808E6856
:10476000C4F20105AF4204D14D6924F4804444EA07
:1047700085142CF4005747EA06372EF4E64646EA3D
:1047800008265C60DE614E6809691E641F62DF698D
:1047900047F40067DF61DF6927F48067DF610902A2
:1047A0001368194300231160002180F83C1018465B
:1047B000BDE8F083002804BF0120704710B504460F
:1047C00090F83D0028B9002084F83C00204600F015
:1047D0001FF8022084F83D002068211D01F0EAFA4C
:1047E000012084F8460084F83E0084F83F0084F8F5
:1047F000400084F8410084F8420084F8430084F8C3
:10480000440084F8450084F83D00002010BD0000FD
:1048100081B0006840F60001C4F20001884201D076
:1048200001B070470020009043F64000C4F202003F
:10483000016841F004010160006800F0040000908C
:10484000009801B0704700007047000041B108298E
:1048500009D0042914BF00F1410200F13F0204E035
:1048600000F13E0201E000F140021278012A1CBF73
:1048700001207047022241B1082909D0042914BF40
:1048800080F8412080F83F2004E080F83E2001E0DD
:1048900080F84020006801F01F010122036A02FA3B
:1048A00001F123EA01020262026A0A4341F2FF7146
:1048B000C4F20001884202620FDC40F2FF71C4F2D0
:1048C0000001884217DCB0F1804F49D040F200412E
:1048D000C4F20001884243D049E040F2FF32C4F202
:1048E0000102904214DC41F60003C4F20003984236
:1048F00036D0002314E040F60001C4F200018842E3
:104900002ED040F60041C4F20001884228D02EE0AB
:1049100044F20003C4F20103984221D040F2004364
:10492000C4F20103984222D1436C884243F400430D
:104930004364C2DD904207DC41F60001C4F200018D
:1049400088420DD0002107E044F20001C4F20101C9
:10495000884205D040F20041C4F20101884206D1EC
:10496000816801F00701062904BF00207047016833
:1049700041F00101016000207047000040F25071D9
:10498000C2F20001884218BF7047B0B540F29415DA
:10499000C2F20005287840F660140130C1B26329E4
:1049A00088BF00206FF0320128704843C1B2C908A7
:1049B00041EA4010C0B20628C2F2000400F2A28010
:1049C00041F208402058D0F8800001688A6840F61B
:1049D0004051C0F20301904741F22C40205890F81A
:1049E0002C1001290AD140F2C061C2F2000109680D
:1049F00040F2DC524A63002180F82C1090F82D1010
:104A000001290AD140F2C061C2F20001096840F2F6
:104A100026224A63002180F82D1041F210402258CE
:104A200042F2B943D158B3EE041A00EE101A42F222
:104A3000AA40B4EE410A40F298111044F1EE10FA87
:104A4000C2F200014CDD1A4492889FED411A00EE3B
:104A5000102A40F29012B8EE400AC2F200029FED16
:104A60003D3A30EE011AB1EE000A92ED004A21EE15
:104A7000002A21EE031A9FED383A31EE041AB4EE03
:104A8000431AF1EE10FAC8BFB0EE431A9FED333A65
:104A90009FED334AB4EE431AF1EE10FAB8BFB0EE10
:104AA000441A9FED303A91ED004A82ED001A21EE52
:104AB000031A32EE042A32EE011AB4EE401AF1EE75
:104AC00010FA81ED001A02DD81ED000A08E0B9EE6E
:104AD0000C0AB4EE401AF1EE10FAB8BF81ED000AEC
:104AE000008891ED001A00EE100AB8EE400A31EE8F
:104AF000000A41F23840BDEEC00A205810EE101AEC
:104B000080F8C41028784AF6AB21CAF6AA21484397
:104B1000B0F1553F07D841F22C40205801688A680F
:104B200043F2CD71904741F234402058806A406A88
:104B3000B0F94610012001F02DFD41F20C40205843
:104B400001688A6841F28831BDE8B040104700BF73
:104B500000005CC2CDCCCC3D00004843000048C3FF
:104B600000401CC58FC2F53C704700007047000034
:104B700070470000B0B582B0044600680168C368A1
:104B8000426901F02F05202D03F0200506D12DB13B
:104B9000204602B0BDE8B04001F01ABA5FEA017CDD
:104BA0001EBF02F0010E03F4907212EB0E0253D1FD
:104BB000226B012A05D111F0100218BF13F0100268
:104BC00036D10A0622D513F080021FD094F83D108A
:104BD00021293FD1A168B1F5805F03D12169002966
:104BE00000F03F81216A4A1C226209784160E18C11
:104BF00001390A04E1842DD1C16821F08001C1602E
:104C0000C16841F04001C16002B0B0BD490621D584
:104C100013F040011ED0C16821F04001C160202185
:104C2000204684F83D1002B0BDE8B04000F00ABB59
:104C30000021019101680191416801910199406948
:104C4000400611D4A08DE18DE28D002A18BF884264
:104C500040F0DB8002B0B0BDC80718BF13F480700D
:104C600045D1480749D44FE0A06B016849688AB232
:104C7000002AEFD0A38D9A42ECD2E185C069B0F54D
:104C8000807F30D0206850E8030F216820F48070C6
:104C900041E80302002AF5D1206850E8050F216899
:104CA00020F0010041E80502002AF5D1206850E813
:104CB000050F216820F0400041E80502002AF5D1E7
:104CC000202084F83E000020206300BF206850E8C8
:104CD000030F216820F0100041E80302002AF5D1FB
:104CE000A06BFDF753FDA08DE18D401AB2E0206C62
:104CF00040F001002064480706D5BEF1000F03D044
:104D0000206C40F002002064880706D5BEF1000F39
:104D100003D0206C40F004002064BCF1000F09D5E2
:104D200045EA0E00B0FA80F0400903D1206C40F053
:104D300008002064206C00283FF48CAF11F02000A4
:104D400018BF002D02D0204601F042F920684069CA
:104D5000216C00F0400001F00801401848D000BF6D
:104D6000206850E8030F216820F4907041E80302A6
:104D7000002AF5D1206850E8050F216820F00100D5
:104D800041E80502002AF5D1206B01280AD100BFB5
:104D9000206850E8030F216820F0100041E803026A
:104DA000002AF5D1202084F83E00002020632068EE
:104DB0004069400623D500BF206850E8050F2168F0
:104DC00020F0400041E80502002AF5D1A06BB0B107
:104DD00045F6D961C0F600010165FDF717FD002811
:104DE0003FF438AFA06B016D02B0BDE8B04008479A
:104DF0002046FFF7BDFE0020206402B0B0BD204673
:104E000002B0BDE8B040FFF7B3BE401A216851E8D8
:104E1000031F226821F4907142E80313002BF5D19F
:104E2000216851E8051F226821F0010142E80513BD
:104E3000002BF5D1202184F83E100021216300BF12
:104E4000216851E8031F226821F0100142E8031392
:104E5000002BF5D181B2204602B0BDE8B040FFF78B
:104E600085BE216A31F8022B6FF35F224260216216
:104E7000BDE60000002804BF0120704710B50446BD
:104E800090F83D0028B9002084F83C00204600F04E
:104E900021F8242084F83D002068C16821F40051E5
:104EA000C160204601F0F4F82068016921F49041C6
:104EB0000161416921F02A014161C16841F4005159
:104EC000C16000202021206484F83D1084F83E1049
:104ED00010BD00002DE9F04F87B00446006844F68D
:104EE0000001C4F2000100268842CDE90566CDE943
:104EF0000366029600F0968041F20041C4F201017F
:104F0000884200F0DE8041F20001C4F201018842D3
:104F100040F04D81002743F630000197C4F20200B3
:104F20004169002541F0100141614169C4F2020567
:104F300001F01001019101990197016802AE41F061
:104F400002010160016846F2280801F002010191A6
:104F50000199019701684FF0020941F001010160D8
:104F600000684FF0030A00F00100019001988020D2
:104F700002904FF0070B05F580603146C4F202083D
:104F8000CDE90397CDF814A0CDF818B0FDF7B0FF28
:104F90004FF40070CDE9020904A880E8800C28468F
:104FA0003146FDF7A5FF40F2E83508F59260C2F200
:104FB00000054FF0006A4021C5E9000A05F108002C
:104FC0004FF4806980E882024FF440362846C5E9F4
:104FD0000577EF61C5E90867FDF7F4FC002818BF05
:104FE000FCF7A6FD6563AC6340F2883508F5836085
:104FF000C2F200054FF48071C5E9000A2846C5E9F0
:105000000277C5E90497C5E90671C5E90867FDF7A8
:10501000D9FC002818BFFCF78BFDA56305F138000B
:105020002525BBE043F630000196C4F20200016979
:1050300041F480210161016901F48021019101990C
:105040000196016841F004010160006802A900F0C6
:105050000400019001984FF4406002900220CDE9D5
:10506000030603200590072006900020C4F20200EA
:1050700000F50060FDF73CFF40F2484546F228008D
:10508000C2F20005C4F202004FF0006185E843005F
:105090004FF440304FF480624FF48073C5E9080646
:1050A0002846C5E90362C5E90566EB61FDF78AFCA0
:1050B000002818BFFCF73CFDA56305F13800272543
:1050C0006CE0002643F630000196C4F2020041690C
:1050D00046F2280841F0200141614169C4F202080A
:1050E00001F02001019101990196016841F0400110
:1050F0000160006802A900F04000019001984FF49F
:10510000844002900220CDE9030603200590082088
:1051100006900020C4F2020000F5C050FDF7E8FE42
:1051200040F2A84508F58060C2F200054FF0206A01
:105130004FF480694FF48071C5E9000A4FF440379D
:105140002846C5E90266C5E90496C5E90661C5E9D0
:105150000876FDF737FC002818BFFCF7E9FCA563CB
:10516000AC6340F2085508F58F60C2F2000540219B
:10517000C5E9000A05F1080080E842022846C5E9B1
:105180000566C5E907676E62FDF71CFC002818BFBD
:10519000FCF7CEFC656305F138004725046028461E
:1051A00000210022FEF758F92846FEF745F907B01E
:1051B000BDE8F08F7047000070B5044690F83D00E0
:1051C00020280AD14FF00100D9B3002A134608BFA6
:1051D00070BD94F83C00012801D1022070BD01206F
:1051E00084F83C00002621202162A384E384266405
:1051F00084F83D002268606B45F6897C45F6C97EDF
:1052000045F6E565C0F6000CC0F6000EC0F60005D8
:105210000432C0E90FCEC0E91356FDF773FC2068D5
:105220006FF04001016084F83C6000BF206850E8E6
:10523000050F216840F0800041E80502002AF5D101
:10524000002070BD7047000070470000FEE70000BE
:10525000B0B584B040F2A82042F20001012300243E
:10526000C2F20000C4F20101C0F600730125CDE9CD
:105270000244CDE900444FF48032047680F82040A7
:10528000C0E90A34C56180F8304080E81600C0E902
:1052900003444561FCF746FD002818BFFCF748FCB5
:1052A0001020CDE9000540F2A820C2F200006946B6
:1052B0000294FCF7B3FC002818BFFCF739FC04B0DB
:1052C000B0BD0000B0B584B040F2F02042F2002141
:1052D00001230024C2F20000C4F20101C0F60073F1
:1052E0000125CDE90244CDE900444FF48032047633
:1052F00080F82040C0E90A34C56180F8304080E879
:105300001600C0E903444561FCF70CFD002818BFF6
:10531000FCF70EFC0820CDE9000540F2F020C2F2B7
:10532000000069460294FCF779FC002818BFFCF7DE
:10533000FFFB04B0B0BD000080B540F2383046F24B
:105340000041C2F20000C4F200010322002380E801
:105350000E0000F10C014FF4102C4FF4001E81E8F8
:10536000085083618383FDF75DF8002808BF80BD86
:10537000BDE88040FCF7DCBB80B540F2603046F60B
:105380000001C2F20000C4F200010322002380E801
:105390000E0000F10C014FF4102C4FF4001E81E8B8
:1053A000085083618383FDF73DF8002808BF80BD66
:1053B000BDE88040FCF7BCBB80B582B0002043F65E
:1053C00030010190C4F202010A6842F400120A603E
:1053D0000A6802F400120192019A00900868002203
:1053E00040F4800008600868002100F4800000900C
:1053F00000980C20FEF730F80C20FEF71DF839203D
:1054000000210022FEF728F83920FEF715F83A208F
:1054100000210022FEF720F83A20FEF70DF8452083
:1054200000210022FEF718F84520FEF705F8462077
:1054300000210022FEF710F8462002B0BDE88040AF
:10544000FDF7FABF2DE9F04F87B0002543F6300095
:105450000695CDE90455CDE902550195C4F2020047
:10546000016840F2000A41F0020101600168C4F2E3
:10547000020A01F0020101910199019501680AF502
:10548000006941F0400101600168012201F0400122
:1054900001910199019501684FF4807741F0010174
:1054A00001600168012401F0010101910199019558
:1054B000016841F008010160016801F008010191F3
:1054C00001990195016841F004010160016801F052
:1054D0000401019101990195016841F48071016015
:1054E000016801F48071019101990195016841F011
:1054F00020010160016801F02001019101990195ED
:10550000016841F080010160016801F080010191B2
:1055100001990195016841F01001016000684FF4A4
:10552000807100F01000019001984846FDF7B0FD31
:105530000AF5C056304640210122FDF7A9FD0AF5C3
:10554000E05B58464FF4E0510022FDF7A1FD5046C4
:1055500010210122FDF79CFD0AF58068404641F2CA
:1055600001010122FDF794FDCDE9027402AF484626
:105570003946CDE90455FDF7BBFC402002A931C1F5
:10558000304639460595FDF7B3FC4FF4E05002A9CB
:1055900031C1584639460595FDF7AAFC082002900E
:1055A0004FF4041B30463946CDE903B4FDF7A0FCA7
:1055B0004FF48810CDE90305504639460294FDF7B3
:1055C00097FC1020CDE90204022550463946049488
:1055D0000595FDF78DFC3020CDE9020B4846394694
:1055E0000494FDF785FC41F20100CDE90204404638
:1055F0003946CDE90445FDF77BFC06200021002259
:10560000FDF72AFF0620FDF717FF092000210022E1
:10561000FDF722FF0920FDF70FFF0A2000210022DD
:10562000FDF71AFF0A20FDF707FF172000210022CF
:10563000FDF712FF1720FDF7FFFE07B0BDE8F08F62
:1056400080B540F2685045F60001C2F20000C4F295
:10565000000141F6802200234FF4804CC0F2060284
:1056600080E80E00C0E9033CC0E90533C0E9073318
:10567000FDF71AFD002808BF80BDBDE88040FCF79B
:1056800057BA000080B540F2BC5045F60041C2F266
:105690000000C4F2000141F6802200234FF4804C48
:1056A000C0F2060280E80E00C0E9033CC0E9053301
:1056B000C0E90733FDF7F8FC002808BF80BDBDE84E
:1056C0008040FCF735BA0000B0B540F2106043F2FC
:1056D0000001C2F20000C4F201014FF48272002303
:1056E00080E80E0000F10C014FF0020C4FF0010EAB
:1056F0004FF40074182581E808500A21C0E90645D6
:10570000C0E90833C0E90A31FEF790F9002808BF64
:10571000B0BDBDE8B040FCF70BBA000080B540F268
:10572000686043F60001C2F20000C4F200014FF4C9
:105730008272002380E80E0000F114014FF4007C17
:105740004FF0100E81E808500A21C0E90333C0E988
:105750000833C0E90A31FEF769F9002808BF80BDA7
:10576000BDE88040FCF7E4B980B588B040F208702D
:1057700044F200420021C2F20000C4F20102A72359
:1057800040F2CF7C0791CDE90511CDE90311CDE9B8
:105790000111C0E90023C0E9021C01618161FEF72B
:1057A000C5FB002818BFFCF7C3F940F20870C2F22D
:1057B0000000FEF7FFFF002818BFFCF7B9F96020D2
:1057C00001900020CDE90200059040F20870C2F27D
:1057D000000001A90022FEF7E1FE002818BFFCF737
:1057E000A7F940F20870C2F20000FEF741FE08B0CF
:1057F00080BD000010B596B040F2C06000220021CC
:10580000C2F20000C4F20102A72344F61F641591FE
:10581000CDE91311CDE91111CDE90F11CDE90D112C
:10582000CDE90B11CDE90911CDE90711CDE905113C
:10583000CDE90311CDE90111C0E90023C0E902144B
:10584000C0E904118161FEF771FB002818BFFCF765
:105850006FF94FF48050129040F2C060C2F2000025
:1058600012A9FEF77FFC002818BFFCF761F940F28F
:10587000C060C2F20000FEF79DFF002818BFFCF7D1
:1058800057F940F2C0600024C2F2000010A9CDE92F
:105890001044FEF7EFFA002818BFFCF749F9602022
:1058A000CDE9090440F2C060C2F2000009A900225B
:1058B000CDE90B44CDE90D440F94FEF76FFE0028AF
:1058C00018BFFCF735F940F2C060C2F2000009A928
:1058D0000422FEF763FE002818BFFCF729F9002018
:1058E0000590CDE90300CDE901004FF40051089087
:1058F00040F2C0600691C2F2000001A9FEF794FADE
:10590000002818BFFCF714F940F2C060C2F2000092
:10591000FEF7AEFD16B010BD80B586B040F25070F7
:105920000021C2F200004FF08042532341F2873C35
:10593000CDE90411CDE90211CDE90011C0E9002340
:10594000C0E9021C01618161FEF7F0FA002818BF6E
:10595000FCF7EEF84FF48050029040F25070C2F223
:10596000000002A9FEF7FEFB002818BFFCF7E0F8D4
:105970000020CDE9000040F25070C2F200006946FC
:10598000FEF778FA002818BFFCF7D2F806B080BD01
:1059900010B58AB040F2987040F600010024C2F2BF
:1059A0000000C4F200014FF47A730994CDE9074472
:1059B000CDE90544CDE90344CDE90144532280E813
:1059C0001600C0E903348461FEF7F4FE002818BF16
:1059D000FCF7AEF840F29870C2F2000008A9CDE9D9
:1059E0000844FEF747FA002818BFFCF7A1F860202A
:1059F00001900020CDE90200059040F29870C2F2BB
:105A0000000001A90822FEF7C9FD002818BFFCF715
:105A10008FF840F29870C2F20000FEF729FD0AB03C
:105A200010BD000080B586B040F2E07040F6004244
:105A30000021C2F20000C4F2000253234FF0FF3CE9
:105A4000CDE90411CDE90211CDE90011C0E900232F
:105A5000C0E9021C01618161FEF768FA002818BFE5
:105A6000FCF766F84FF48050029040F2E070C2F20A
:105A7000000002A9FEF776FB002818BFFCF758F8D3
:105A80000020CDE9000040F2E070C2F2000069465B
:105A9000FEF7F0F9002818BFFCF74AF806B080BD01
:105AA00010B596B040F6280040F200420021C2F244
:105AB0000000C4F20102A72340F6C3141591CDE9FA
:105AC0001311CDE91111CDE90F11CDE90D11CDE97A
:105AD0000B11CDE90911CDE90711CDE90511CDE98A
